{
    "tests/prague/eip2537_bls_12_381_precompiles/test_bls12_variable_length_input_contracts.py::test_valid_gas_g2msm[fork_Prague-full_discount_table-state_test-precompile_address_14--exact_gas]": {
        "env": {
            "currentCoinbase": "0x2adc25665018aa1fe0e6bc666dac8fc2697ff9ba",
            "currentGasLimit": "0x07270e00",
            "currentNumber": "0x01",
            "currentTimestamp": "0x03e8",
            "currentRandom": "0x0000000000000000000000000000000000000000000000000000000000000000",
            "currentDifficulty": "0x00",
            "currentBaseFee": "0x07",
            "currentExcessBlobGas": "0x00"
        },
        "pre": {
            "0xb4d7e28e05dd45e5f89900653a751d80d8e2774a": {
                "nonce": "0x01",
                "balance": "0x00",
                "code": "0x6000600061012060006000600e6157e4f16000556000600061024060006000600e61afc8f16001556000600061036060006000600e61f35ef16002556000600061048060006000600e620136c8f1600355600060006105a060006000600e620177bbf1600455600060006106c060006000600e6201b6c0f1600555600060006107e060006000600e6201f392f16006556000600061090060006000600e62022fb0f160075560006000610a2060006000600e62026a93f160085560006000610b4060006000600e6202a4c2f160095560006000610c6060006000600e6202ddccf1600a5560006000610d8060006000600e620315f6f1600b5560006000610ea060006000600e62034d82f1600c5560006000610fc060006000600e620384b4f1600d55600060006110e060006000600e6203ba7ef1600e556000600061120060006000600e6203f048f1600f556000600061132060006000600e62042655f16010556000600061144060006000600e620459c0f16011556000600061156060006000600e62048f46f16012556000600061168060006000600e6204c22af1601355600060006117a060006000600e6204f5d8f1601455600060006118c060006000600e620528a5f1601555600060006119e060006000600e62055c96f160165560006000611b0060006000600e62058db8f160175560006000611c2060006000600e6205c02bf160185560006000611d4060006000600e6205f1eaf160195560006000611e6060006000600e62062554f1601a5560006000611f8060006000600e620655c2f1601b55600060006120a060006000600e6206857bf1601c55600060006121c060006000600e6206b724f1601d55600060006122e060006000600e6206e845f1601e556000600061240060006000600e620718e0f1601f556000600061252060006000600e620748f3f16020556000600061264060006000600e62077880f16021556000600061276060006000600e6207a785f16022556000600061288060006000600e6207d604f1602355600060006129a060006000600e6208073cf160245560006000612ac060006000600e620834c3f160255560006000612be060006000600e62086530f160265560006000612d0060006000600e620891c0f160275560006000612e2060006000600e6208c163f160285560006000612f4060006000600e6208f0acf16029556000600061306060006000600e62091f9bf1602a556000600061318060006000600e62094a52f1602b55600060006132a060006000600e62097876f1602c55600060006133c060006000600e6209a641f1602d55600060006134e060006000600e6209d3b1f1602e556000600061360060006000600e620a00c8f1602f556000600061372060006000600e620a31d3f16030556000600061384060006000600e620a5e4cf16031556000600061396060006000600e620a8a6bf160325560006000613a8060006000600e620ab630f160335560006000613ba060006000600e620ae19bf160345560006000613cc060006000600e620b116bf160355560006000613de060006000600e620b3c38f160365560006000613f0060006000600e620b66acf16037556000600061402060006000600e620b95c8f16038556000600061414060006000600e620bbf9ef16039556000600061426060006000600e620bee49f1603a556000600061438060006000600e620c1782f1603b55600060006144a060006000600e620c45bdf1603c55600060006145c060006000600e620c6e58f1603d55600060006146e060006000600e620c9c22f1603e556000600061480060006000600e620cc9c0f1603f556000600061492060006000600e620cf17af160405560006000614a4060006000600e620d1ea7f160415560006000614b6060006000600e620d4ba7f160425560006000614c8060006000600e620d7280f160435560006000614da060006000600e620d9f0ff160445560006000614ec060006000600e620dcb72f160455560006000614fe060006000600e620df7a7f16046556000600061510060006000600e620e1d5cf16047556000600061522060006000600e620e4921f16048556000600061534060006000600e620e74b9f16049556000600061546060006000600e620ea024f1604a556000600061558060006000600e620ecb62f1604b55600060006156a060006000600e620ef673f1604c55600060006157c060006000600e620f2157f1604d55600060006158e060006000600e620f451cf1604e5560006000615a0060006000600e620f6f90f1604f5560006000615b2060006000600e620f99d6f160505560006000615c4060006000600e620fc3f0f160515560006000615d6060006000600e620feddcf160525560006000615e8060006000600e6210179cf160535560006000615fa060006000600e6210412ef1605455600060006160c060006000600e62106a94f1605555600060006161e060006000600e621093ccf16056556000600061630060006000600e6210bcd8f16057556000600061642060006000600e6210e5b6f16058556000600061654060006000600e62110e68f16059556000600061666060006000600e62113eecf1605a556000600061678060006000600e6211675af1605b55600060006168a060006000600e62118f9bf1605c55600060006169c060006000600e6211b7aff1605d5560006000616ae060006000600e6211df96f1605e5560006000616c0060006000600e62120750f1605f5560006000616d2060006000600e62122eddf160605560006000616e4060006000600e6212563df160615560006000616f6060006000600e62128623f16062556000600061708060006000600e6212ad40f1606355600060006171a060006000600e6212d42ff1606455600060006172c060006000600e6212faf2f1606555600060006173e060006000600e62132187f16066556000600061750060006000600e62135114f16067556000600061762060006000600e62137766f16068556000600061774060006000600e62139d8bf16069556000600061786060006000600e6213c383f1606a556000600061798060006000600e6213e94ef1606b5560006000617aa060006000600e62141880f1606c5560006000617bc060006000600e62143e08f1606d5560006000617ce060006000600e62146362f1606e5560006000617e0060006000600e62149268f1606f5560006000617f2060006000600e6214b77ff16070556000600061804060006000600e6214dc69f16071556000600061816060006000600e62150126f16072556000600061828060006000600e62152fe8f1607355600060006183a060006000600e62155461f1607455600060006184c060006000600e621578aef1607555600060006185e060006000600e6215a743f16076556000600061870060006000600e6215cb4cf16077556000600061882060006000600e6215ef28f16078556000600061894060006000600e62161d90f160795560006000618a6060006000600e62164128f1607a5560006000618b8060006000600e62166494f1607b5560006000618ca060006000600e621692cff1607c5560006000618dc060006000600e6216b5f7f1607d5560006000618ee060006000600e6216d8f2f1607e556000600061900060006000600e62170700f1607f556000600061912060006000600e6217350ef1608055",
                "storage": {}
            },
            "0xee016ed8a9a9eae7c88c708b9019981e3fb8d653": {
                "nonce": "0x00",
                "balance": "0x3635c9adc5dea00000",
                "code": "0x",
                "storage": {}
            }
        },
        "transaction": {
            "nonce": "0x00",
            "gasPrice": "0x0a",
            "gasLimit": [
                "0x0688e288"
            ],
            "to": "0xb4d7e28e05dd45e5f89900653a751d80d8e2774a",
            "value": [
                "0x00"
            ],
            "data": [
                "0x"
            ],
            "sender": "0xee016ed8a9a9eae7c88c708b9019981e3fb8d653",
            "secretKey": "0x321a982cb8b3e2b2718dfb99b4d7e28e05dd45e5f89900653a751d80d8e2774a"
        },
        "post": {
            "Prague": [
                {
                    "hash": "0x245ae60df19250cf71614001ef1120ac2724be006fdddd0c28935e62cd67da4f",
                    "logs": "0x1dcc4de8dec75d7aab85b567b6ccd41ad312451b948a7413f0a142fd40d49347",
                    "txbytes": "0xf861800a840688e28894b4d7e28e05dd45e5f89900653a751d80d8e2774a808026a018d796b366c7123711494f297f664ffbbc72b839951adb7a79481d4861d86399a054ed253087ca279163cb412fb42c0dae701c2a5dcdbc19d88e89714e4c393f32",
                    "indexes": {
                        "data": 0,
                        "gas": 0,
                        "value": 0
                    },
                    "state": {
                        "0xb4d7e28e05dd45e5f89900653a751d80d8e2774a": {
                            "nonce": "0x01",
                            "balance": "0x00",
                            "code": "0x6000600061012060006000600e6157e4f16000556000600061024060006000600e61afc8f16001556000600061036060006000600e61f35ef16002556000600061048060006000600e620136c8f1600355600060006105a060006000600e620177bbf1600455600060006106c060006000600e6201b6c0f1600555600060006107e060006000600e6201f392f16006556000600061090060006000600e62022fb0f160075560006000610a2060006000600e62026a93f160085560006000610b4060006000600e6202a4c2f160095560006000610c6060006000600e6202ddccf1600a5560006000610d8060006000600e620315f6f1600b5560006000610ea060006000600e62034d82f1600c5560006000610fc060006000600e620384b4f1600d55600060006110e060006000600e6203ba7ef1600e556000600061120060006000600e6203f048f1600f556000600061132060006000600e62042655f16010556000600061144060006000600e620459c0f16011556000600061156060006000600e62048f46f16012556000600061168060006000600e6204c22af1601355600060006117a060006000600e6204f5d8f1601455600060006118c060006000600e620528a5f1601555600060006119e060006000600e62055c96f160165560006000611b0060006000600e62058db8f160175560006000611c2060006000600e6205c02bf160185560006000611d4060006000600e6205f1eaf160195560006000611e6060006000600e62062554f1601a5560006000611f8060006000600e620655c2f1601b55600060006120a060006000600e6206857bf1601c55600060006121c060006000600e6206b724f1601d55600060006122e060006000600e6206e845f1601e556000600061240060006000600e620718e0f1601f556000600061252060006000600e620748f3f16020556000600061264060006000600e62077880f16021556000600061276060006000600e6207a785f16022556000600061288060006000600e6207d604f1602355600060006129a060006000600e6208073cf160245560006000612ac060006000600e620834c3f160255560006000612be060006000600e62086530f160265560006000612d0060006000600e620891c0f160275560006000612e2060006000600e6208c163f160285560006000612f4060006000600e6208f0acf16029556000600061306060006000600e62091f9bf1602a556000600061318060006000600e62094a52f1602b55600060006132a060006000600e62097876f1602c55600060006133c060006000600e6209a641f1602d55600060006134e060006000600e6209d3b1f1602e556000600061360060006000600e620a00c8f1602f556000600061372060006000600e620a31d3f16030556000600061384060006000600e620a5e4cf16031556000600061396060006000600e620a8a6bf160325560006000613a8060006000600e620ab630f160335560006000613ba060006000600e620ae19bf160345560006000613cc060006000600e620b116bf160355560006000613de060006000600e620b3c38f160365560006000613f0060006000600e620b66acf16037556000600061402060006000600e620b95c8f16038556000600061414060006000600e620bbf9ef16039556000600061426060006000600e620bee49f1603a556000600061438060006000600e620c1782f1603b55600060006144a060006000600e620c45bdf1603c55600060006145c060006000600e620c6e58f1603d55600060006146e060006000600e620c9c22f1603e556000600061480060006000600e620cc9c0f1603f556000600061492060006000600e620cf17af160405560006000614a4060006000600e620d1ea7f160415560006000614b6060006000600e620d4ba7f160425560006000614c8060006000600e620d7280f160435560006000614da060006000600e620d9f0ff160445560006000614ec060006000600e620dcb72f160455560006000614fe060006000600e620df7a7f16046556000600061510060006000600e620e1d5cf16047556000600061522060006000600e620e4921f16048556000600061534060006000600e620e74b9f16049556000600061546060006000600e620ea024f1604a556000600061558060006000600e620ecb62f1604b55600060006156a060006000600e620ef673f1604c55600060006157c060006000600e620f2157f1604d55600060006158e060006000600e620f451cf1604e5560006000615a0060006000600e620f6f90f1604f5560006000615b2060006000600e620f99d6f160505560006000615c4060006000600e620fc3f0f160515560006000615d6060006000600e620feddcf160525560006000615e8060006000600e6210179cf160535560006000615fa060006000600e6210412ef1605455600060006160c060006000600e62106a94f1605555600060006161e060006000600e621093ccf16056556000600061630060006000600e6210bcd8f16057556000600061642060006000600e6210e5b6f16058556000600061654060006000600e62110e68f16059556000600061666060006000600e62113eecf1605a556000600061678060006000600e6211675af1605b55600060006168a060006000600e62118f9bf1605c55600060006169c060006000600e6211b7aff1605d5560006000616ae060006000600e6211df96f1605e5560006000616c0060006000600e62120750f1605f5560006000616d2060006000600e62122eddf160605560006000616e4060006000600e6212563df160615560006000616f6060006000600e62128623f16062556000600061708060006000600e6212ad40f1606355600060006171a060006000600e6212d42ff1606455600060006172c060006000600e6212faf2f1606555600060006173e060006000600e62132187f16066556000600061750060006000600e62135114f16067556000600061762060006000600e62137766f16068556000600061774060006000600e62139d8bf16069556000600061786060006000600e6213c383f1606a556000600061798060006000600e6213e94ef1606b5560006000617aa060006000600e62141880f1606c5560006000617bc060006000600e62143e08f1606d5560006000617ce060006000600e62146362f1606e5560006000617e0060006000600e62149268f1606f5560006000617f2060006000600e6214b77ff16070556000600061804060006000600e6214dc69f16071556000600061816060006000600e62150126f16072556000600061828060006000600e62152fe8f1607355600060006183a060006000600e62155461f1607455600060006184c060006000600e621578aef1607555600060006185e060006000600e6215a743f16076556000600061870060006000600e6215cb4cf16077556000600061882060006000600e6215ef28f16078556000600061894060006000600e62161d90f160795560006000618a6060006000600e62164128f1607a5560006000618b8060006000600e62166494f1607b5560006000618ca060006000600e621692cff1607c5560006000618dc060006000600e6216b5f7f1607d5560006000618ee060006000600e6216d8f2f1607e556000600061900060006000600e62170700f1607f556000600061912060006000600e6217350ef1608055",
                            "storage": {
                                "0x00": "0x01",
                                "0x01": "0x01",
                                "0x02": "0x01",
                                "0x03": "0x01",
                                "0x04": "0x01",
                                "0x05": "0x01",
                                "0x06": "0x01",
                                "0x07": "0x01",
                                "0x08": "0x01",
                                "0x09": "0x01",
                                "0x0a": "0x01",
                                "0x0b": "0x01",
                                "0x0c": "0x01",
                                "0x0d": "0x01",
                                "0x0e": "0x01",
                                "0x0f": "0x01",
                                "0x10": "0x01",
                                "0x11": "0x01",
                                "0x12": "0x01",
                                "0x13": "0x01",
                                "0x14": "0x01",
                                "0x15": "0x01",
                                "0x16": "0x01",
                                "0x17": "0x01",
                                "0x18": "0x01",
                                "0x19": "0x01",
                                "0x1a": "0x01",
                                "0x1b": "0x01",
                                "0x1c": "0x01",
                                "0x1d": "0x01",
                                "0x1e": "0x01",
                                "0x1f": "0x01",
                                "0x20": "0x01",
                                "0x21": "0x01",
                                "0x22": "0x01",
                                "0x23": "0x01",
                                "0x24": "0x01",
                                "0x25": "0x01",
                                "0x26": "0x01",
                                "0x27": "0x01",
                                "0x28": "0x01",
                                "0x29": "0x01",
                                "0x2a": "0x01",
                                "0x2b": "0x01",
                                "0x2c": "0x01",
                                "0x2d": "0x01",
                                "0x2e": "0x01",
                                "0x2f": "0x01",
                                "0x30": "0x01",
                                "0x31": "0x01",
                                "0x32": "0x01",
                                "0x33": "0x01",
                                "0x34": "0x01",
                                "0x35": "0x01",
                                "0x36": "0x01",
                                "0x37": "0x01",
                                "0x38": "0x01",
                                "0x39": "0x01",
                                "0x3a": "0x01",
                                "0x3b": "0x01",
                                "0x3c": "0x01",
                                "0x3d": "0x01",
                                "0x3e": "0x01",
                                "0x3f": "0x01",
                                "0x40": "0x01",
                                "0x41": "0x01",
                                "0x42": "0x01",
                                "0x43": "0x01",
                                "0x44": "0x01",
                                "0x45": "0x01",
                                "0x46": "0x01",
                                "0x47": "0x01",
                                "0x48": "0x01",
                                "0x49": "0x01",
                                "0x4a": "0x01",
                                "0x4b": "0x01",
                                "0x4c": "0x01",
                                "0x4d": "0x01",
                                "0x4e": "0x01",
                                "0x4f": "0x01",
                                "0x50": "0x01",
                                "0x51": "0x01",
                                "0x52": "0x01",
                                "0x53": "0x01",
                                "0x54": "0x01",
                                "0x55": "0x01",
                                "0x56": "0x01",
                                "0x57": "0x01",
                                "0x58": "0x01",
                                "0x59": "0x01",
                                "0x5a": "0x01",
                                "0x5b": "0x01",
                                "0x5c": "0x01",
                                "0x5d": "0x01",
                                "0x5e": "0x01",
                                "0x5f": "0x01",
                                "0x60": "0x01",
                                "0x61": "0x01",
                                "0x62": "0x01",
                                "0x63": "0x01",
                                "0x64": "0x01",
                                "0x65": "0x01",
                                "0x66": "0x01",
                                "0x67": "0x01",
                                "0x68": "0x01",
                                "0x69": "0x01",
                                "0x6a": "0x01",
                                "0x6b": "0x01",
                                "0x6c": "0x01",
                                "0x6d": "0x01",
                                "0x6e": "0x01",
                                "0x6f": "0x01",
                                "0x70": "0x01",
                                "0x71": "0x01",
                                "0x72": "0x01",
                                "0x73": "0x01",
                                "0x74": "0x01",
                                "0x75": "0x01",
                                "0x76": "0x01",
                                "0x77": "0x01",
                                "0x78": "0x01",
                                "0x79": "0x01",
                                "0x7a": "0x01",
                                "0x7b": "0x01",
                                "0x7c": "0x01",
                                "0x7d": "0x01",
                                "0x7e": "0x01",
                                "0x7f": "0x01",
                                "0x80": "0x01"
                            }
                        },
                        "0xee016ed8a9a9eae7c88c708b9019981e3fb8d653": {
                            "nonce": "0x01",
                            "balance": "0x3635c9adc59d4c9578",
                            "code": "0x",
                            "storage": {}
                        },
                        "0x2adc25665018aa1fe0e6bc666dac8fc2697ff9ba": {
                            "nonce": "0x00",
                            "balance": "0x1399065c",
                            "code": "0x",
                            "storage": {}
                        }
                    }
                }
            ]
        },
        "config": {
            "blobSchedule": {
                "Cancun": {
                    "target": "0x03",
                    "max": "0x06",
                    "baseFeeUpdateFraction": "0x32f0ed"
                },
                "Prague": {
                    "target": "0x06",
                    "max": "0x09",
                    "baseFeeUpdateFraction": "0x4c6964"
                }
            },
            "chainid": "0x01"
        },
        "_info": {
            "hash": "0x26880f6caf0fbb1eef72f834ece42709cc2b27b7dc8c7de215195d9298ceea4d",
            "comment": "`execution-specs` generated test",
            "filling-transition-tool": "2.18.0rc6",
            "description": "Test the BLS12_G2MSM discount gas table in full, by expecting the call to\n    succeed for all possible input lengths because the appropriate amount of\n    gas is provided.\n\n    If any of the calls fail, the test will fail.",
            "url": "https://github.com/ethereum/execution-specs/blob/tests-v5.4.0/tests/prague/eip2537_bls_12_381_precompiles/test_bls12_variable_length_input_contracts.py#L445",
            "fixture-format": "state_test",
            "reference-spec": "https://github.com/ethereum/EIPs/blob/master/EIPS/eip-2537.md",
            "reference-spec-version": "c561ec1426fe5ec470eade499a0bd4174f270583"
        }
    }
}