{
    "tests/prague/eip2537_bls_12_381_precompiles/test_bls12_variable_length_input_contracts.py::test_invalid_gas_g1msm[fork_Prague-full_discount_table-state_test-precompile_address_12--insufficient_gas]": {
        "env": {
            "currentCoinbase": "0x2adc25665018aa1fe0e6bc666dac8fc2697ff9ba",
            "currentGasLimit": "0x07270e00",
            "currentNumber": "0x01",
            "currentTimestamp": "0x03e8",
            "currentRandom": "0x0000000000000000000000000000000000000000000000000000000000000000",
            "currentDifficulty": "0x00",
            "currentBaseFee": "0x07",
            "currentExcessBlobGas": "0x00"
        },
        "pre": {
            "0xfe0ace2eb56f8c23d9af572de06b83d101ffc3ac": {
                "nonce": "0x01",
                "balance": "0x00",
                "code": "0x6000600060a060006000600c612edff16000556000600061014060006000600c6158f7f1600155600060006101e060006000600c61773ff16002556000600061028060006000600c61956ff16003556000600061032060006000600c61b30ff1600455600060006103c060006000600c61d2eff16005556000600061046060006000600c61f227f16006556000600061050060006000600c620110fff1600755600060006105a060006000600c62012f53f16008556000600061064060006000600c62014dbff1600955600060006106e060006000600c62016b83f1600a556000600061078060006000600c6201889ff1600b556000600061082060006000600c6201a5aff1600c55600060006108c060006000600c6201c2d7f1600d556000600061096060006000600c6201df87f1600e5560006000610a0060006000600c6201fbbff1600f5560006000610aa060006000600c6202184bf160105560006000610b4060006000600c62023477f160115560006000610be060006000600c62025043f160125560006000610c8060006000600c62026baff160135560006000610d2060006000600c620287b7f160145560006000610dc060006000600c6202a26ff160155560006000610e6060006000600c6202bddbf160165560006000610f0060006000600c6202d8fff160175560006000610fa060006000600c6202f3dbf16018556000600061104060006000600c62030e6ff1601955600060006110e060006000600c620329fff1601a556000600061118060006000600c6203440ff1601b556000600061122060006000600c62035f33f1601c55600060006112c060006000600c620378bff1601d556000600061136060006000600c62039377f1601e556000600061140060006000600c6203ac7ff1601f55600060006114a060006000600c6203c6cbf16020556000600061154060006000600c6203e0e7f1602155600060006115e060006000600c6203fad3f16022556000600061168060006000600c6204148ff16023556000600061172060006000600c62042e1bf1602455600060006117c060006000600c62044777f16025556000600061186060006000600c620460a3f16026556000600061190060006000600c6204799ff1602755600060006119a060006000600c6204926bf160285560006000611a4060006000600c6204acfff160295560006000611ae060006000600c6204c577f1602a5560006000611b8060006000600c6204ddbff1602b5560006000611c2060006000600c6204f7f3f1602c5560006000611cc060006000600c62050fe7f1602d5560006000611d6060006000600c620527abf1602e5560006000611e0060006000600c6205417ff1602f5560006000611ea060006000600c620558eff160305560006000611f4060006000600c62057287f160315560006000611fe060006000600c620589a3f16032556000600061208060006000600c6205a2fff16033556000600061212060006000600c6205bc43f1603455600060006121c060006000600c6205d2e7f16035556000600061226060006000600c6205ebeff16036556000600061230060006000600c6206023ff1603755600060006123a060006000600c62061b0bf16038556000600061244060006000600c620633bff1603955600060006124e060006000600c62064997f1603a556000600061258060006000600c6206620ff1603b556000600061262060006000600c62067a6ff1603c55600060006126c060006000600c620692b7f1603d556000600061276060006000600c6206a7f3f1603e556000600061280060006000600c6206bffff1603f55600060006128a060006000600c6206d7f3f16040556000600061294060006000600c6206efcff1604155600060006129e060006000600c62070793f160425560006000612a8060006000600c62071f3ff160435560006000612b2060006000600c62073397f160445560006000612bc060006000600c62074b07f160455560006000612c6060006000600c6207625ff160465560006000612d0060006000600c6207799ff160475560006000612da060006000600c620790c7f160485560006000612e4060006000600c6207a7d7f160495560006000612ee060006000600c6207becff1604a5560006000612f8060006000600c6207d5aff1604b556000600061302060006000600c6207ec77f1604c55600060006130c060006000600c62080327f1604d556000600061316060006000600c620819bff1604e556000600061320060006000600c6208303ff1604f55600060006132a060006000600c620846a7f16050556000600061334060006000600c62085cf7f1605155600060006133e060006000600c6208732ff16052556000600061348060006000600c6208894ff16053556000600061352060006000600c62089f57f1605455600060006135c060006000600c6208b547f16055556000600061366060006000600c6208cb1ff16056556000600061370060006000600c6208e0dff1605755600060006137a060006000600c6208f687f16058556000600061384060006000600c62090c17f1605955600060006138e060006000600c6209218ff1605a556000600061398060006000600c620936eff1605b5560006000613a2060006000600c62095093f1605c5560006000613ac060006000600c620965cff1605d5560006000613b6060006000600c62097af3f1605e5560006000613c0060006000600c62098ffff1605f5560006000613ca060006000600c6209a4f3f160605560006000613d4060006000600c6209b9cff160615560006000613de060006000600c6209ce93f160625560006000613e8060006000600c6209e33ff160635560006000613f2060006000600c6209fc8ff160645560006000613fc060006000600c620a1117f16065556000600061406060006000600c620a2587f16066556000600061410060006000600c620a39dff1606755600060006141a060006000600c620a4e1ff16068556000600061424060006000600c620a673ff1606955600060006142e060006000600c620a7b5bf1606a556000600061438060006000600c620a8f5ff1606b556000600061442060006000600c620aa34bf1606c55600060006144c060006000600c620ab71ff1606d556000600061456060006000600c620ad00ff1606e556000600061460060006000600c620ae3bff1606f55600060006146a060006000600c620af757f16070556000600061474060006000600c620b0ad7f1607155600060006147e060006000600c620b1e3ff16072556000600061488060006000600c620b36fff16073556000600061492060006000600c620b4a43f1607455600060006149c060006000600c620b5d6ff160755560006000614a6060006000600c620b7083f160765560006000614b0060006000600c620b891ff160775560006000614ba060006000600c620b9c0ff160785560006000614c4060006000600c620baee7f160795560006000614ce060006000600c620bc1a7f1607a5560006000614d8060006000600c620bda1ff1607b5560006000614e2060006000600c620becbbf1607c5560006000614ec060006000600c620bff3ff1607d5560006000614f6060006000600c620c179ff1607e556000600061500060006000600c620c29fff1607f55600060006150a060006000600c620c4253f1608055",
                "storage": {}
            },
            "0x83add0a91baa928f459d9e75c2e89fd58d8786ee": {
                "nonce": "0x00",
                "balance": "0x3635c9adc5dea00000",
                "code": "0x",
                "storage": {}
            }
        },
        "transaction": {
            "nonce": "0x00",
            "gasPrice": "0x0a",
            "gasLimit": [
                "0x0386b3af"
            ],
            "to": "0xfe0ace2eb56f8c23d9af572de06b83d101ffc3ac",
            "value": [
                "0x00"
            ],
            "data": [
                "0x"
            ],
            "sender": "0x83add0a91baa928f459d9e75c2e89fd58d8786ee",
            "secretKey": "0x06c3a3bb6af233122c830ee5fe0ace2eb56f8c23d9af572de06b83d101ffc3ac"
        },
        "post": {
            "Prague": [
                {
                    "hash": "0x04db89827c639a1c12a79dc30071df545d284955760bc53da5862b8735a5eb6a",
                    "logs": "0x1dcc4de8dec75d7aab85b567b6ccd41ad312451b948a7413f0a142fd40d49347",
                    "txbytes": "0xf861800a840386b3af94fe0ace2eb56f8c23d9af572de06b83d101ffc3ac808026a0406ec2b48672d46b99c6b634dc4d85a93647a60d70ebae4154fab30e7ffef31aa02b2dda20a4526871fb9f134642b7dcf9f7b4288634b241a460a7d1790a3810fe",
                    "indexes": {
                        "data": 0,
                        "gas": 0,
                        "value": 0
                    },
                    "state": {
                        "0xfe0ace2eb56f8c23d9af572de06b83d101ffc3ac": {
                            "nonce": "0x01",
                            "balance": "0x00",
                            "code": "0x6000600060a060006000600c612edff16000556000600061014060006000600c6158f7f1600155600060006101e060006000600c61773ff16002556000600061028060006000600c61956ff16003556000600061032060006000600c61b30ff1600455600060006103c060006000600c61d2eff16005556000600061046060006000600c61f227f16006556000600061050060006000600c620110fff1600755600060006105a060006000600c62012f53f16008556000600061064060006000600c62014dbff1600955600060006106e060006000600c62016b83f1600a556000600061078060006000600c6201889ff1600b556000600061082060006000600c6201a5aff1600c55600060006108c060006000600c6201c2d7f1600d556000600061096060006000600c6201df87f1600e5560006000610a0060006000600c6201fbbff1600f5560006000610aa060006000600c6202184bf160105560006000610b4060006000600c62023477f160115560006000610be060006000600c62025043f160125560006000610c8060006000600c62026baff160135560006000610d2060006000600c620287b7f160145560006000610dc060006000600c6202a26ff160155560006000610e6060006000600c6202bddbf160165560006000610f0060006000600c6202d8fff160175560006000610fa060006000600c6202f3dbf16018556000600061104060006000600c62030e6ff1601955600060006110e060006000600c620329fff1601a556000600061118060006000600c6203440ff1601b556000600061122060006000600c62035f33f1601c55600060006112c060006000600c620378bff1601d556000600061136060006000600c62039377f1601e556000600061140060006000600c6203ac7ff1601f55600060006114a060006000600c6203c6cbf16020556000600061154060006000600c6203e0e7f1602155600060006115e060006000600c6203fad3f16022556000600061168060006000600c6204148ff16023556000600061172060006000600c62042e1bf1602455600060006117c060006000600c62044777f16025556000600061186060006000600c620460a3f16026556000600061190060006000600c6204799ff1602755600060006119a060006000600c6204926bf160285560006000611a4060006000600c6204acfff160295560006000611ae060006000600c6204c577f1602a5560006000611b8060006000600c6204ddbff1602b5560006000611c2060006000600c6204f7f3f1602c5560006000611cc060006000600c62050fe7f1602d5560006000611d6060006000600c620527abf1602e5560006000611e0060006000600c6205417ff1602f5560006000611ea060006000600c620558eff160305560006000611f4060006000600c62057287f160315560006000611fe060006000600c620589a3f16032556000600061208060006000600c6205a2fff16033556000600061212060006000600c6205bc43f1603455600060006121c060006000600c6205d2e7f16035556000600061226060006000600c6205ebeff16036556000600061230060006000600c6206023ff1603755600060006123a060006000600c62061b0bf16038556000600061244060006000600c620633bff1603955600060006124e060006000600c62064997f1603a556000600061258060006000600c6206620ff1603b556000600061262060006000600c62067a6ff1603c55600060006126c060006000600c620692b7f1603d556000600061276060006000600c6206a7f3f1603e556000600061280060006000600c6206bffff1603f55600060006128a060006000600c6206d7f3f16040556000600061294060006000600c6206efcff1604155600060006129e060006000600c62070793f160425560006000612a8060006000600c62071f3ff160435560006000612b2060006000600c62073397f160445560006000612bc060006000600c62074b07f160455560006000612c6060006000600c6207625ff160465560006000612d0060006000600c6207799ff160475560006000612da060006000600c620790c7f160485560006000612e4060006000600c6207a7d7f160495560006000612ee060006000600c6207becff1604a5560006000612f8060006000600c6207d5aff1604b556000600061302060006000600c6207ec77f1604c55600060006130c060006000600c62080327f1604d556000600061316060006000600c620819bff1604e556000600061320060006000600c6208303ff1604f55600060006132a060006000600c620846a7f16050556000600061334060006000600c62085cf7f1605155600060006133e060006000600c6208732ff16052556000600061348060006000600c6208894ff16053556000600061352060006000600c62089f57f1605455600060006135c060006000600c6208b547f16055556000600061366060006000600c6208cb1ff16056556000600061370060006000600c6208e0dff1605755600060006137a060006000600c6208f687f16058556000600061384060006000600c62090c17f1605955600060006138e060006000600c6209218ff1605a556000600061398060006000600c620936eff1605b5560006000613a2060006000600c62095093f1605c5560006000613ac060006000600c620965cff1605d5560006000613b6060006000600c62097af3f1605e5560006000613c0060006000600c62098ffff1605f5560006000613ca060006000600c6209a4f3f160605560006000613d4060006000600c6209b9cff160615560006000613de060006000600c6209ce93f160625560006000613e8060006000600c6209e33ff160635560006000613f2060006000600c6209fc8ff160645560006000613fc060006000600c620a1117f16065556000600061406060006000600c620a2587f16066556000600061410060006000600c620a39dff1606755600060006141a060006000600c620a4e1ff16068556000600061424060006000600c620a673ff1606955600060006142e060006000600c620a7b5bf1606a556000600061438060006000600c620a8f5ff1606b556000600061442060006000600c620aa34bf1606c55600060006144c060006000600c620ab71ff1606d556000600061456060006000600c620ad00ff1606e556000600061460060006000600c620ae3bff1606f55600060006146a060006000600c620af757f16070556000600061474060006000600c620b0ad7f1607155600060006147e060006000600c620b1e3ff16072556000600061488060006000600c620b36fff16073556000600061492060006000600c620b4a43f1607455600060006149c060006000600c620b5d6ff160755560006000614a6060006000600c620b7083f160765560006000614b0060006000600c620b891ff160775560006000614ba060006000600c620b9c0ff160785560006000614c4060006000600c620baee7f160795560006000614ce060006000600c620bc1a7f1607a5560006000614d8060006000600c620bda1ff1607b5560006000614e2060006000600c620becbbf1607c5560006000614ec060006000600c620bff3ff1607d5560006000614f6060006000600c620c179ff1607e556000600061500060006000600c620c29fff1607f55600060006150a060006000600c620c4253f1608055",
                            "storage": {}
                        },
                        "0x83add0a91baa928f459d9e75c2e89fd58d8786ee": {
                            "nonce": "0x01",
                            "balance": "0x3635c9adc5bcea2454",
                            "code": "0x",
                            "storage": {}
                        },
                        "0x2adc25665018aa1fe0e6bc666dac8fc2697ff9ba": {
                            "nonce": "0x00",
                            "balance": "0x0a1cf51a",
                            "code": "0x",
                            "storage": {}
                        }
                    }
                }
            ]
        },
        "config": {
            "blobSchedule": {
                "Cancun": {
                    "target": "0x03",
                    "max": "0x06",
                    "baseFeeUpdateFraction": "0x32f0ed"
                },
                "Prague": {
                    "target": "0x06",
                    "max": "0x09",
                    "baseFeeUpdateFraction": "0x4c6964"
                }
            },
            "chainid": "0x01"
        },
        "_info": {
            "hash": "0xf718d33feccda4ff45233bbf848acd18694918f6c180eca6da0bd7267f6b62e6",
            "comment": "`execution-specs` generated test",
            "filling-transition-tool": "2.18.0rc6",
            "description": "Test the BLS12_G1MSM discount gas table in full, by expecting the call to\n    fail for all possible input lengths because the appropriate amount of gas\n    is not provided.\n\n    If any of the calls succeeds, the test will fail.",
            "url": "https://github.com/ethereum/execution-specs/blob/tests-v5.4.0/tests/prague/eip2537_bls_12_381_precompiles/test_bls12_variable_length_input_contracts.py#L347",
            "fixture-format": "state_test",
            "reference-spec": "https://github.com/ethereum/EIPs/blob/master/EIPS/eip-2537.md",
            "reference-spec-version": "c561ec1426fe5ec470eade499a0bd4174f270583"
        }
    }
}