{
    "tests/prague/eip2537_bls_12_381_precompiles/test_eip_mainnet.py::test_eip_2537[fork_Prague-state_test-G1ADD]": {
        "env": {
            "currentCoinbase": "0x2adc25665018aa1fe0e6bc666dac8fc2697ff9ba",
            "currentGasLimit": "0x07270e00",
            "currentNumber": "0x01",
            "currentTimestamp": "0x03e8",
            "currentRandom": "0x0000000000000000000000000000000000000000000000000000000000000000",
            "currentDifficulty": "0x00",
            "currentBaseFee": "0x07",
            "currentExcessBlobGas": "0x00"
        },
        "pre": {
            "0x25ceaabab53b540e83b1f5eeea969342679ab26c": {
                "nonce": "0x01",
                "balance": "0x00",
                "code": "0x366000600037600060003660006000600b610177f16000553d6001553d600060003e3d600020600255",
                "storage": {}
            },
            "0xad8b2aea605684bd216cd0a38665f841e94205f9": {
                "nonce": "0x00",
                "balance": "0x3635c9adc5dea00000",
                "code": "0x",
                "storage": {}
            }
        },
        "transaction": {
            "nonce": "0x00",
            "gasPrice": "0x0a",
            "gasLimit": [
                "0x01ef59"
            ],
            "to": "0x25ceaabab53b540e83b1f5eeea969342679ab26c",
            "value": [
                "0x00"
            ],
            "data": [
                "0x0000000000000000000000000000000017f1d3a73197d7942695638c4fa9ac0fc3688c4f9774b905a14e3a3f171bac586c55e83ff97a1aeffb3af00adb22c6bb0000000000000000000000000000000008b3f481e3aaa0f1a09e30ed741d8ae4fcf5e095d5d00af600db18cb2c04b3edd03cc744a2888ae40caa232946c5e7e10000000000000000000000000000000000000000000000000000000000000000000000000000000000000000000000000000000000000000000000000000000000000000000000000000000000000000000000000000000000000000000000000000000000000000000000000000000000000000000000000000000000000000"
            ],
            "sender": "0xad8b2aea605684bd216cd0a38665f841e94205f9",
            "secretKey": "0xa11a121be62046fb1da5c03725ceaabab53b540e83b1f5eeea969342679ab26c"
        },
        "post": {
            "Prague": [
                {
                    "hash": "0xdcc71ce30756cdb82165f59a5cd6458068f7aee9314600497567b7c1bd383c20",
                    "logs": "0x1dcc4de8dec75d7aab85b567b6ccd41ad312451b948a7413f0a142fd40d49347",
                    "txbytes": "0xf90162800a8301ef599425ceaabab53b540e83b1f5eeea969342679ab26c80b901000000000000000000000000000000000017f1d3a73197d7942695638c4fa9ac0fc3688c4f9774b905a14e3a3f171bac586c55e83ff97a1aeffb3af00adb22c6bb0000000000000000000000000000000008b3f481e3aaa0f1a09e30ed741d8ae4fcf5e095d5d00af600db18cb2c04b3edd03cc744a2888ae40caa232946c5e7e1000000000000000000000000000000000000000000000000000000000000000000000000000000000000000000000000000000000000000000000000000000000000000000000000000000000000000000000000000000000000000000000000000000000000000000000000000000000000000000000000000000000000000025a0e8c883508f49c085012ec14112d8d754eb1d319431ae718fc7676fa9b65edf71a017b6567ae8aa72b8d2272d29301c5c2d4e6c4608781438b0f71c9d730311f21c",
                    "indexes": {
                        "data": 0,
                        "gas": 0,
                        "value": 0
                    },
                    "state": {
                        "0x25ceaabab53b540e83b1f5eeea969342679ab26c": {
                            "nonce": "0x01",
                            "balance": "0x00",
                            "code": "0x366000600037600060003660006000600b610177f16000553d6001553d600060003e3d600020600255",
                            "storage": {
                                "0x00": "0x01",
                                "0x01": "0x80",
                                "0x02": "0x17324a2fdcdb2cdcf2a8697d8dc07e3ee621d20e7dfb64771438fe28ce1701c1"
                            }
                        },
                        "0xad8b2aea605684bd216cd0a38665f841e94205f9": {
                            "nonce": "0x01",
                            "balance": "0x3635c9adc5de92400a",
                            "code": "0x",
                            "storage": {}
                        },
                        "0x2adc25665018aa1fe0e6bc666dac8fc2697ff9ba": {
                            "nonce": "0x00",
                            "balance": "0x041ffd",
                            "code": "0x",
                            "storage": {}
                        }
                    }
                }
            ]
        },
        "config": {
            "blobSchedule": {
                "Cancun": {
                    "target": "0x03",
                    "max": "0x06",
                    "baseFeeUpdateFraction": "0x32f0ed"
                },
                "Prague": {
                    "target": "0x06",
                    "max": "0x09",
                    "baseFeeUpdateFraction": "0x4c6964"
                }
            },
            "chainid": "0x01"
        },
        "_info": {
            "hash": "0xe1f3ea466421056723299f7a026905d46e7ab04d78928b6183c9511b04ff062b",
            "comment": "`execution-specs` generated test",
            "filling-transition-tool": "2.18.0rc6",
            "description": "Test the all precompiles of EIP-2537.",
            "url": "https://github.com/ethereum/execution-specs/blob/tests-v5.4.0/tests/prague/eip2537_bls_12_381_precompiles/test_eip_mainnet.py#L17",
            "fixture-format": "state_test",
            "reference-spec": "https://github.com/ethereum/EIPs/blob/master/EIPS/eip-2537.md",
            "reference-spec-version": "c561ec1426fe5ec470eade499a0bd4174f270583"
        }
    },
    "tests/prague/eip2537_bls_12_381_precompiles/test_eip_mainnet.py::test_eip_2537[fork_Prague-state_test-G1MSM]": {
        "env": {
            "currentCoinbase": "0x2adc25665018aa1fe0e6bc666dac8fc2697ff9ba",
            "currentGasLimit": "0x07270e00",
            "currentNumber": "0x01",
            "currentTimestamp": "0x03e8",
            "currentRandom": "0x0000000000000000000000000000000000000000000000000000000000000000",
            "currentDifficulty": "0x00",
            "currentBaseFee": "0x07",
            "currentExcessBlobGas": "0x00"
        },
        "pre": {
            "0xf7193bc1379fb566ab66e77d39b9b29dd40b2541": {
                "nonce": "0x01",
                "balance": "0x00",
                "code": "0x366000600037600060003660006000600c6158f8f16000553d6001553d600060003e3d600020600255",
                "storage": {}
            },
            "0x17d77173da7a7b9ef8ff46ae2f516ac7e9384035": {
                "nonce": "0x00",
                "balance": "0x3635c9adc5dea00000",
                "code": "0x",
                "storage": {}
            }
        },
        "transaction": {
            "nonce": "0x00",
            "gasPrice": "0x0a",
            "gasLimit": [
                "0x02499c"
            ],
            "to": "0xf7193bc1379fb566ab66e77d39b9b29dd40b2541",
            "value": [
                "0x00"
            ],
            "data": [
                "0x0000000000000000000000000000000017f1d3a73197d7942695638c4fa9ac0fc3688c4f9774b905a14e3a3f171bac586c55e83ff97a1aeffb3af00adb22c6bb0000000000000000000000000000000008b3f481e3aaa0f1a09e30ed741d8ae4fcf5e095d5d00af600db18cb2c04b3edd03cc744a2888ae40caa232946c5e7e1000000000000000000000000000000000000000000000000000000000000000100000000000000000000000000000000000000000000000000000000000000000000000000000000000000000000000000000000000000000000000000000000000000000000000000000000000000000000000000000000000000000000000000000000000000000000000000000000000000000000000000000000000000000000000000000000000000000000000000000000000000000000000000000001"
            ],
            "sender": "0x17d77173da7a7b9ef8ff46ae2f516ac7e9384035",
            "secretKey": "0x114d2e7b6d33b964305bf7eef7193bc1379fb566ab66e77d39b9b29dd40b2541"
        },
        "post": {
            "Prague": [
                {
                    "hash": "0x4fcc733629b49f79fd3a069de8e8c3c9d63e20f452581b63ff7bb627021e4d40",
                    "logs": "0x1dcc4de8dec75d7aab85b567b6ccd41ad312451b948a7413f0a142fd40d49347",
                    "txbytes": "0xf901a2800a8302499c94f7193bc1379fb566ab66e77d39b9b29dd40b254180b901400000000000000000000000000000000017f1d3a73197d7942695638c4fa9ac0fc3688c4f9774b905a14e3a3f171bac586c55e83ff97a1aeffb3af00adb22c6bb0000000000000000000000000000000008b3f481e3aaa0f1a09e30ed741d8ae4fcf5e095d5d00af600db18cb2c04b3edd03cc744a2888ae40caa232946c5e7e100000000000000000000000000000000000000000000000000000000000000010000000000000000000000000000000000000000000000000000000000000000000000000000000000000000000000000000000000000000000000000000000000000000000000000000000000000000000000000000000000000000000000000000000000000000000000000000000000000000000000000000000000000000000000000000000000000000000000000000000000000000000000000000000125a0ad2f15f419268bebe0572d84e9197c75d3035c95d833875a8aafa7dacadfaf30a05e718c62c1737a1d5be1add2e623f540fe2ba36b4f8d2b2dc359e5a9be3bc460",
                    "indexes": {
                        "data": 0,
                        "gas": 0,
                        "value": 0
                    },
                    "state": {
                        "0xf7193bc1379fb566ab66e77d39b9b29dd40b2541": {
                            "nonce": "0x01",
                            "balance": "0x00",
                            "code": "0x366000600037600060003660006000600c6158f8f16000553d6001553d600060003e3d600020600255",
                            "storage": {
                                "0x00": "0x01",
                                "0x01": "0x80",
                                "0x02": "0x17324a2fdcdb2cdcf2a8697d8dc07e3ee621d20e7dfb64771438fe28ce1701c1"
                            }
                        },
                        "0x17d77173da7a7b9ef8ff46ae2f516ac7e9384035": {
                            "nonce": "0x01",
                            "balance": "0x3635c9adc5de8ec998",
                            "code": "0x",
                            "storage": {}
                        },
                        "0x2adc25665018aa1fe0e6bc666dac8fc2697ff9ba": {
                            "nonce": "0x00",
                            "balance": "0x0529ec",
                            "code": "0x",
                            "storage": {}
                        }
                    }
                }
            ]
        },
        "config": {
            "blobSchedule": {
                "Cancun": {
                    "target": "0x03",
                    "max": "0x06",
                    "baseFeeUpdateFraction": "0x32f0ed"
                },
                "Prague": {
                    "target": "0x06",
                    "max": "0x09",
                    "baseFeeUpdateFraction": "0x4c6964"
                }
            },
            "chainid": "0x01"
        },
        "_info": {
            "hash": "0xfa3b8b82fc3d5b5902df6fda1c65581b0a26d3e2f4c557012f79556f3d6e53bc",
            "comment": "`execution-specs` generated test",
            "filling-transition-tool": "2.18.0rc6",
            "description": "Test the all precompiles of EIP-2537.",
            "url": "https://github.com/ethereum/execution-specs/blob/tests-v5.4.0/tests/prague/eip2537_bls_12_381_precompiles/test_eip_mainnet.py#L17",
            "fixture-format": "state_test",
            "reference-spec": "https://github.com/ethereum/EIPs/blob/master/EIPS/eip-2537.md",
            "reference-spec-version": "c561ec1426fe5ec470eade499a0bd4174f270583"
        }
    },
    "tests/prague/eip2537_bls_12_381_precompiles/test_eip_mainnet.py::test_eip_2537[fork_Prague-state_test-G2ADD]": {
        "env": {
            "currentCoinbase": "0x2adc25665018aa1fe0e6bc666dac8fc2697ff9ba",
            "currentGasLimit": "0x07270e00",
            "currentNumber": "0x01",
            "currentTimestamp": "0x03e8",
            "currentRandom": "0x0000000000000000000000000000000000000000000000000000000000000000",
            "currentDifficulty": "0x00",
            "currentBaseFee": "0x07",
            "currentExcessBlobGas": "0x00"
        },
        "pre": {
            "0x7590c8e4d59667b09afd8bfc12134b078f9e2b7d": {
                "nonce": "0x01",
                "balance": "0x00",
                "code": "0x366000600037600060003660006000600d610258f16000553d6001553d600060003e3d600020600255",
                "storage": {}
            },
            "0xf732eb5cd5db97b24cac769d3d9fb2cbf73164a5": {
                "nonce": "0x00",
                "balance": "0x3635c9adc5dea00000",
                "code": "0x",
                "storage": {}
            }
        },
        "transaction": {
            "nonce": "0x00",
            "gasPrice": "0x0a",
            "gasLimit": [
                "0x0205b0"
            ],
            "to": "0x7590c8e4d59667b09afd8bfc12134b078f9e2b7d",
            "value": [
                "0x00"
            ],
            "data": [
                "0x00000000000000000000000000000000024aa2b2f08f0a91260805272dc51051c6e47ad4fa403b02b4510b647ae3d1770bac0326a805bbefd48056c8c121bdb80000000000000000000000000000000013e02b6052719f607dacd3a088274f65596bd0d09920b61ab5da61bbdc7f5049334cf11213945d57e5ac7d055d042b7e000000000000000000000000000000000ce5d527727d6e118cc9cdc6da2e351aadfd9baa8cbdd3a76d429a695160d12c923ac9cc3baca289e193548608b82801000000000000000000000000000000000606c4a02ea734cc32acd2b02bc28b99cb3e287e85a763af267492ab572e99ab3f370d275cec1da1aaa9075ff05f79be00000000000000000000000000000000000000000000000000000000000000000000000000000000000000000000000000000000000000000000000000000000000000000000000000000000000000000000000000000000000000000000000000000000000000000000000000000000000000000000000000000000000000000000000000000000000000000000000000000000000000000000000000000000000000000000000000000000000000000000000000000000000000000000000000000000000000000000000000000000000000000000000000000000000000000000000000000000000000000000000000000000000000000000000000000000"
            ],
            "sender": "0xf732eb5cd5db97b24cac769d3d9fb2cbf73164a5",
            "secretKey": "0x1d530f62d55d3834c911177d7590c8e4d59667b09afd8bfc12134b078f9e2b7d"
        },
        "post": {
            "Prague": [
                {
                    "hash": "0x5601ee2459a6fc5bbc583984441cf25f844b089d2cfdc9454c25494eac56f382",
                    "logs": "0x1dcc4de8dec75d7aab85b567b6ccd41ad312451b948a7413f0a142fd40d49347",
                    "txbytes": "0xf90262800a830205b0947590c8e4d59667b09afd8bfc12134b078f9e2b7d80b9020000000000000000000000000000000000024aa2b2f08f0a91260805272dc51051c6e47ad4fa403b02b4510b647ae3d1770bac0326a805bbefd48056c8c121bdb80000000000000000000000000000000013e02b6052719f607dacd3a088274f65596bd0d09920b61ab5da61bbdc7f5049334cf11213945d57e5ac7d055d042b7e000000000000000000000000000000000ce5d527727d6e118cc9cdc6da2e351aadfd9baa8cbdd3a76d429a695160d12c923ac9cc3baca289e193548608b82801000000000000000000000000000000000606c4a02ea734cc32acd2b02bc28b99cb3e287e85a763af267492ab572e99ab3f370d275cec1da1aaa9075ff05f79be0000000000000000000000000000000000000000000000000000000000000000000000000000000000000000000000000000000000000000000000000000000000000000000000000000000000000000000000000000000000000000000000000000000000000000000000000000000000000000000000000000000000000000000000000000000000000000000000000000000000000000000000000000000000000000000000000000000000000000000000000000000000000000000000000000000000000000000000000000000000000000000000000000000000000000000000000000000000000000000000000000000000000000000000000000000025a050035920fbb6fb6c75d1a6d6a3f392e07159bbba8bcb77ad34b1bd8040768114a0411acc57cdbebc54f8a52191b88d9d1d968e6fa02c039d11d736cc617e2e6f13",
                    "indexes": {
                        "data": 0,
                        "gas": 0,
                        "value": 0
                    },
                    "state": {
                        "0x7590c8e4d59667b09afd8bfc12134b078f9e2b7d": {
                            "nonce": "0x01",
                            "balance": "0x00",
                            "code": "0x366000600037600060003660006000600d610258f16000553d6001553d600060003e3d600020600255",
                            "storage": {
                                "0x00": "0x01",
                                "0x01": "0x0100",
                                "0x02": "0x073c1d14a584cbdb80754aed6e8b19731982abdc13565587b26f5c8d1d78b569"
                            }
                        },
                        "0xf732eb5cd5db97b24cac769d3d9fb2cbf73164a5": {
                            "nonce": "0x01",
                            "balance": "0x3635c9adc5de91de80",
                            "code": "0x",
                            "storage": {}
                        },
                        "0x2adc25665018aa1fe0e6bc666dac8fc2697ff9ba": {
                            "nonce": "0x00",
                            "balance": "0x043d40",
                            "code": "0x",
                            "storage": {}
                        }
                    }
                }
            ]
        },
        "config": {
            "blobSchedule": {
                "Cancun": {
                    "target": "0x03",
                    "max": "0x06",
                    "baseFeeUpdateFraction": "0x32f0ed"
                },
                "Prague": {
                    "target": "0x06",
                    "max": "0x09",
                    "baseFeeUpdateFraction": "0x4c6964"
                }
            },
            "chainid": "0x01"
        },
        "_info": {
            "hash": "0xa864de062ff3e8fe41679415ba4094725063a44f211e38df64dedece5e319bd5",
            "comment": "`execution-specs` generated test",
            "filling-transition-tool": "2.18.0rc6",
            "description": "Test the all precompiles of EIP-2537.",
            "url": "https://github.com/ethereum/execution-specs/blob/tests-v5.4.0/tests/prague/eip2537_bls_12_381_precompiles/test_eip_mainnet.py#L17",
            "fixture-format": "state_test",
            "reference-spec": "https://github.com/ethereum/EIPs/blob/master/EIPS/eip-2537.md",
            "reference-spec-version": "c561ec1426fe5ec470eade499a0bd4174f270583"
        }
    },
    "tests/prague/eip2537_bls_12_381_precompiles/test_eip_mainnet.py::test_eip_2537[fork_Prague-state_test-G2MSM]": {
        "env": {
            "currentCoinbase": "0x2adc25665018aa1fe0e6bc666dac8fc2697ff9ba",
            "currentGasLimit": "0x07270e00",
            "currentNumber": "0x01",
            "currentTimestamp": "0x03e8",
            "currentRandom": "0x0000000000000000000000000000000000000000000000000000000000000000",
            "currentDifficulty": "0x00",
            "currentBaseFee": "0x07",
            "currentExcessBlobGas": "0x00"
        },
        "pre": {
            "0x6040f0ce6da942d58e78946f7a6796e4ac856c88": {
                "nonce": "0x01",
                "balance": "0x00",
                "code": "0x366000600037600060003660006000600e61afc8f16000553d6001553d600060003e3d600020600255",
                "storage": {}
            },
            "0x9bb6ec8094156c0068fd3d62639b128025f0957e": {
                "nonce": "0x00",
                "balance": "0x3635c9adc5dea00000",
                "code": "0x",
                "storage": {}
            }
        },
        "transaction": {
            "nonce": "0x00",
            "gasPrice": "0x0a",
            "gasLimit": [
                "0x02b5e2"
            ],
            "to": "0x6040f0ce6da942d58e78946f7a6796e4ac856c88",
            "value": [
                "0x00"
            ],
            "data": [
                "0x00000000000000000000000000000000024aa2b2f08f0a91260805272dc51051c6e47ad4fa403b02b4510b647ae3d1770bac0326a805bbefd48056c8c121bdb80000000000000000000000000000000013e02b6052719f607dacd3a088274f65596bd0d09920b61ab5da61bbdc7f5049334cf11213945d57e5ac7d055d042b7e000000000000000000000000000000000ce5d527727d6e118cc9cdc6da2e351aadfd9baa8cbdd3a76d429a695160d12c923ac9cc3baca289e193548608b82801000000000000000000000000000000000606c4a02ea734cc32acd2b02bc28b99cb3e287e85a763af267492ab572e99ab3f370d275cec1da1aaa9075ff05f79be0000000000000000000000000000000000000000000000000000000000000001000000000000000000000000000000000000000000000000000000000000000000000000000000000000000000000000000000000000000000000000000000000000000000000000000000000000000000000000000000000000000000000000000000000000000000000000000000000000000000000000000000000000000000000000000000000000000000000000000000000000000000000000000000000000000000000000000000000000000000000000000000000000000000000000000000000000000000000000000000000000000000000000000000000000000000000000000000000000000000000000000000000000000000000000000000000000000000000000000000000000000000000000000000000000000000000001"
            ],
            "sender": "0x9bb6ec8094156c0068fd3d62639b128025f0957e",
            "secretKey": "0x5cffe60e00c62b594a710c596040f0ce6da942d58e78946f7a6796e4ac856c88"
        },
        "post": {
            "Prague": [
                {
                    "hash": "0xd276a4f3013913f3c573e560b8e6abef400e3ffc787a123879503bb4a18097a3",
                    "logs": "0x1dcc4de8dec75d7aab85b567b6ccd41ad312451b948a7413f0a142fd40d49347",
                    "txbytes": "0xf902a2800a8302b5e2946040f0ce6da942d58e78946f7a6796e4ac856c8880b9024000000000000000000000000000000000024aa2b2f08f0a91260805272dc51051c6e47ad4fa403b02b4510b647ae3d1770bac0326a805bbefd48056c8c121bdb80000000000000000000000000000000013e02b6052719f607dacd3a088274f65596bd0d09920b61ab5da61bbdc7f5049334cf11213945d57e5ac7d055d042b7e000000000000000000000000000000000ce5d527727d6e118cc9cdc6da2e351aadfd9baa8cbdd3a76d429a695160d12c923ac9cc3baca289e193548608b82801000000000000000000000000000000000606c4a02ea734cc32acd2b02bc28b99cb3e287e85a763af267492ab572e99ab3f370d275cec1da1aaa9075ff05f79be000000000000000000000000000000000000000000000000000000000000000100000000000000000000000000000000000000000000000000000000000000000000000000000000000000000000000000000000000000000000000000000000000000000000000000000000000000000000000000000000000000000000000000000000000000000000000000000000000000000000000000000000000000000000000000000000000000000000000000000000000000000000000000000000000000000000000000000000000000000000000000000000000000000000000000000000000000000000000000000000000000000000000000000000000000000000000000000000000000000000000000000000000000000000000000000000000000000000000000000000000000000000000000000000000000000000000126a0677fd0855c9607111a0a7ddfef61119a2ea217bfab184fa300eb352ff8687262a05baae319db29c30951267bd1ef6de6adc7e5ad51cfe4dd3b3c29324fda2143e0",
                    "indexes": {
                        "data": 0,
                        "gas": 0,
                        "value": 0
                    },
                    "state": {
                        "0x6040f0ce6da942d58e78946f7a6796e4ac856c88": {
                            "nonce": "0x01",
                            "balance": "0x00",
                            "code": "0x366000600037600060003660006000600e61afc8f16000553d6001553d600060003e3d600020600255",
                            "storage": {
                                "0x00": "0x01",
                                "0x01": "0x0100",
                                "0x02": "0x073c1d14a584cbdb80754aed6e8b19731982abdc13565587b26f5c8d1d78b569"
                            }
                        },
                        "0x9bb6ec8094156c0068fd3d62639b128025f0957e": {
                            "nonce": "0x01",
                            "balance": "0x3635c9adc5de8b0cb8",
                            "code": "0x",
                            "storage": {}
                        },
                        "0x2adc25665018aa1fe0e6bc666dac8fc2697ff9ba": {
                            "nonce": "0x00",
                            "balance": "0x0648fc",
                            "code": "0x",
                            "storage": {}
                        }
                    }
                }
            ]
        },
        "config": {
            "blobSchedule": {
                "Cancun": {
                    "target": "0x03",
                    "max": "0x06",
                    "baseFeeUpdateFraction": "0x32f0ed"
                },
                "Prague": {
                    "target": "0x06",
                    "max": "0x09",
                    "baseFeeUpdateFraction": "0x4c6964"
                }
            },
            "chainid": "0x01"
        },
        "_info": {
            "hash": "0x0bb55298ce138503adbb0ac19bf928d4929b9f7f57683933990d9ba0c4f4a04c",
            "comment": "`execution-specs` generated test",
            "filling-transition-tool": "2.18.0rc6",
            "description": "Test the all precompiles of EIP-2537.",
            "url": "https://github.com/ethereum/execution-specs/blob/tests-v5.4.0/tests/prague/eip2537_bls_12_381_precompiles/test_eip_mainnet.py#L17",
            "fixture-format": "state_test",
            "reference-spec": "https://github.com/ethereum/EIPs/blob/master/EIPS/eip-2537.md",
            "reference-spec-version": "c561ec1426fe5ec470eade499a0bd4174f270583"
        }
    },
    "tests/prague/eip2537_bls_12_381_precompiles/test_eip_mainnet.py::test_eip_2537[fork_Prague-state_test-PAIRING]": {
        "env": {
            "currentCoinbase": "0x2adc25665018aa1fe0e6bc666dac8fc2697ff9ba",
            "currentGasLimit": "0x07270e00",
            "currentNumber": "0x01",
            "currentTimestamp": "0x03e8",
            "currentRandom": "0x0000000000000000000000000000000000000000000000000000000000000000",
            "currentDifficulty": "0x00",
            "currentBaseFee": "0x07",
            "currentExcessBlobGas": "0x00"
        },
        "pre": {
            "0x400b6d2e14e100064ecdd76c37fa5faa15109840": {
                "nonce": "0x01",
                "balance": "0x00",
                "code": "0x366000600037600060003660006000600f6201129cf16000553d6001553d600060003e3d600020600255",
                "storage": {}
            },
            "0x229ae19f46db9fbafde5dd008785a0dd9482450d": {
                "nonce": "0x00",
                "balance": "0x3635c9adc5dea00000",
                "code": "0x",
                "storage": {}
            }
        },
        "transaction": {
            "nonce": "0x00",
            "gasPrice": "0x0a",
            "gasLimit": [
                "0x03058a"
            ],
            "to": "0x400b6d2e14e100064ecdd76c37fa5faa15109840",
            "value": [
                "0x00"
            ],
            "data": [
                "0x0000000000000000000000000000000017f1d3a73197d7942695638c4fa9ac0fc3688c4f9774b905a14e3a3f171bac586c55e83ff97a1aeffb3af00adb22c6bb0000000000000000000000000000000008b3f481e3aaa0f1a09e30ed741d8ae4fcf5e095d5d00af600db18cb2c04b3edd03cc744a2888ae40caa232946c5e7e100000000000000000000000000000000000000000000000000000000000000000000000000000000000000000000000000000000000000000000000000000000000000000000000000000000000000000000000000000000000000000000000000000000000000000000000000000000000000000000000000000000000000000000000000000000000000000000000000000000000000000000000000000000000000000000000000000000000000000000000000000000000000000000000000000000000000000000000000000000000000000000000000000000000000000000000000000000000000000000000000000000000000000000000000000000"
            ],
            "sender": "0x229ae19f46db9fbafde5dd008785a0dd9482450d",
            "secretKey": "0x3e566d7fca1cd2058e63635e400b6d2e14e100064ecdd76c37fa5faa15109840"
        },
        "post": {
            "Prague": [
                {
                    "hash": "0x9b8e4cd2c693b3a903686b1392413b67b637c7c07a45399d7415338b6fe51af7",
                    "logs": "0x1dcc4de8dec75d7aab85b567b6ccd41ad312451b948a7413f0a142fd40d49347",
                    "txbytes": "0xf901e2800a8303058a94400b6d2e14e100064ecdd76c37fa5faa1510984080b901800000000000000000000000000000000017f1d3a73197d7942695638c4fa9ac0fc3688c4f9774b905a14e3a3f171bac586c55e83ff97a1aeffb3af00adb22c6bb0000000000000000000000000000000008b3f481e3aaa0f1a09e30ed741d8ae4fcf5e095d5d00af600db18cb2c04b3edd03cc744a2888ae40caa232946c5e7e10000000000000000000000000000000000000000000000000000000000000000000000000000000000000000000000000000000000000000000000000000000000000000000000000000000000000000000000000000000000000000000000000000000000000000000000000000000000000000000000000000000000000000000000000000000000000000000000000000000000000000000000000000000000000000000000000000000000000000000000000000000000000000000000000000000000000000000000000000000000000000000000000000000000000000000000000000000000000000000000000000000000000000000000000000000026a00dfd182259d27f9c73f4c6f550bf35ff7decbc9d8ea14521d10be25de1dd4c00a02101f0132b3bb2841d407b78a5bc228b01acbdb85f17cdf5b9c76c53f931f508",
                    "indexes": {
                        "data": 0,
                        "gas": 0,
                        "value": 0
                    },
                    "state": {
                        "0x400b6d2e14e100064ecdd76c37fa5faa15109840": {
                            "nonce": "0x01",
                            "balance": "0x00",
                            "code": "0x366000600037600060003660006000600f6201129cf16000553d6001553d600060003e3d600020600255",
                            "storage": {
                                "0x00": "0x01",
                                "0x01": "0x20",
                                "0x02": "0xb10e2d527612073b26eecdfd717e6a320cf44b4afac2b0732d9fcbe2b7fa0cf6"
                            }
                        },
                        "0x229ae19f46db9fbafde5dd008785a0dd9482450d": {
                            "nonce": "0x01",
                            "balance": "0x3635c9adc5de8780b6",
                            "code": "0x",
                            "storage": {}
                        },
                        "0x2adc25665018aa1fe0e6bc666dac8fc2697ff9ba": {
                            "nonce": "0x00",
                            "balance": "0x075963",
                            "code": "0x",
                            "storage": {}
                        }
                    }
                }
            ]
        },
        "config": {
            "blobSchedule": {
                "Cancun": {
                    "target": "0x03",
                    "max": "0x06",
                    "baseFeeUpdateFraction": "0x32f0ed"
                },
                "Prague": {
                    "target": "0x06",
                    "max": "0x09",
                    "baseFeeUpdateFraction": "0x4c6964"
                }
            },
            "chainid": "0x01"
        },
        "_info": {
            "hash": "0xc8019fc62705596f4e510bb80bad18413e0b2d1dfc49402afff5ba9edb2ceb67",
            "comment": "`execution-specs` generated test",
            "filling-transition-tool": "2.18.0rc6",
            "description": "Test the all precompiles of EIP-2537.",
            "url": "https://github.com/ethereum/execution-specs/blob/tests-v5.4.0/tests/prague/eip2537_bls_12_381_precompiles/test_eip_mainnet.py#L17",
            "fixture-format": "state_test",
            "reference-spec": "https://github.com/ethereum/EIPs/blob/master/EIPS/eip-2537.md",
            "reference-spec-version": "c561ec1426fe5ec470eade499a0bd4174f270583"
        }
    },
    "tests/prague/eip2537_bls_12_381_precompiles/test_eip_mainnet.py::test_eip_2537[fork_Prague-state_test-fp_map_to_inf0]": {
        "env": {
            "currentCoinbase": "0x2adc25665018aa1fe0e6bc666dac8fc2697ff9ba",
            "currentGasLimit": "0x07270e00",
            "currentNumber": "0x01",
            "currentTimestamp": "0x03e8",
            "currentRandom": "0x0000000000000000000000000000000000000000000000000000000000000000",
            "currentDifficulty": "0x00",
            "currentBaseFee": "0x07",
            "currentExcessBlobGas": "0x00"
        },
        "pre": {
            "0x3749b9ad7f3ae14dad83a900624dbe1c9c2145c3": {
                "nonce": "0x01",
                "balance": "0x00",
                "code": "0x366000600037600060003660006000601061157cf16000553d6001553d600060003e3d600020600255",
                "storage": {}
            },
            "0xbe1ea4195e126d83e51289738a12c3ed5a625a16": {
                "nonce": "0x00",
                "balance": "0x3635c9adc5dea00000",
                "code": "0x",
                "storage": {}
            }
        },
        "transaction": {
            "nonce": "0x00",
            "gasPrice": "0x0a",
            "gasLimit": [
                "0x01f64a"
            ],
            "to": "0x3749b9ad7f3ae14dad83a900624dbe1c9c2145c3",
            "value": [
                "0x00"
            ],
            "data": [
                "0x00000000000000000000000000000000053287da0e0815dc9541794c8b35ddc31ba75821e2bf11e238e9978812a768288b979af4a204a95c1e79dfedd252a3c5"
            ],
            "sender": "0xbe1ea4195e126d83e51289738a12c3ed5a625a16",
            "secretKey": "0x9d101fc5be2402cc743bbcb23749b9ad7f3ae14dad83a900624dbe1c9c2145c3"
        },
        "post": {
            "Prague": [
                {
                    "hash": "0x76f9dae367ff7e54b75626ab04ec05c05b83c282037eaa3e7a4dfc01370c7f2b",
                    "logs": "0x1dcc4de8dec75d7aab85b567b6ccd41ad312451b948a7413f0a142fd40d49347",
                    "txbytes": "0xf8a1800a8301f64a943749b9ad7f3ae14dad83a900624dbe1c9c2145c380b84000000000000000000000000000000000053287da0e0815dc9541794c8b35ddc31ba75821e2bf11e238e9978812a768288b979af4a204a95c1e79dfedd252a3c525a0c53cb187ad23babd20df4ea3256b66820098e64bd9367992df72d09e3ce1aa49a03f261d2989a012080bf99a5dca12217b8bb184f3625e0f5e35c809192bb013a9",
                    "indexes": {
                        "data": 0,
                        "gas": 0,
                        "value": 0
                    },
                    "state": {
                        "0x3749b9ad7f3ae14dad83a900624dbe1c9c2145c3": {
                            "nonce": "0x01",
                            "balance": "0x00",
                            "code": "0x366000600037600060003660006000601061157cf16000553d6001553d600060003e3d600020600255",
                            "storage": {
                                "0x00": "0x01",
                                "0x01": "0x80",
                                "0x02": "0x012893657d8eb2efad4de0a91bcd0e39ad9837745dec3ea923737ea803fc8e3d"
                            }
                        },
                        "0xbe1ea4195e126d83e51289738a12c3ed5a625a16": {
                            "nonce": "0x01",
                            "balance": "0x3635c9adc5de91ad0c",
                            "code": "0x",
                            "storage": {}
                        },
                        "0x2adc25665018aa1fe0e6bc666dac8fc2697ff9ba": {
                            "nonce": "0x00",
                            "balance": "0x044c16",
                            "code": "0x",
                            "storage": {}
                        }
                    }
                }
            ]
        },
        "config": {
            "blobSchedule": {
                "Cancun": {
                    "target": "0x03",
                    "max": "0x06",
                    "baseFeeUpdateFraction": "0x32f0ed"
                },
                "Prague": {
                    "target": "0x06",
                    "max": "0x09",
                    "baseFeeUpdateFraction": "0x4c6964"
                }
            },
            "chainid": "0x01"
        },
        "_info": {
            "hash": "0x94269c673946b032559a3e0b6f7d4484871eed91a9018d23232868a5663ad76a",
            "comment": "`execution-specs` generated test",
            "filling-transition-tool": "2.18.0rc6",
            "description": "Test the all precompiles of EIP-2537.",
            "url": "https://github.com/ethereum/execution-specs/blob/tests-v5.4.0/tests/prague/eip2537_bls_12_381_precompiles/test_eip_mainnet.py#L17",
            "fixture-format": "state_test",
            "reference-spec": "https://github.com/ethereum/EIPs/blob/master/EIPS/eip-2537.md",
            "reference-spec-version": "c561ec1426fe5ec470eade499a0bd4174f270583"
        }
    },
    "tests/prague/eip2537_bls_12_381_precompiles/test_eip_mainnet.py::test_eip_2537[fork_Prague-state_test-fp_map_to_inf1]": {
        "env": {
            "currentCoinbase": "0x2adc25665018aa1fe0e6bc666dac8fc2697ff9ba",
            "currentGasLimit": "0x07270e00",
            "currentNumber": "0x01",
            "currentTimestamp": "0x03e8",
            "currentRandom": "0x0000000000000000000000000000000000000000000000000000000000000000",
            "currentDifficulty": "0x00",
            "currentBaseFee": "0x07",
            "currentExcessBlobGas": "0x00"
        },
        "pre": {
            "0xa0f119219b24f7073c7d538fdb40128c68c18193": {
                "nonce": "0x01",
                "balance": "0x00",
                "code": "0x3660006000376000600036600060006011615cf8f16000553d6001553d600060003e3d600020600255",
                "storage": {}
            },
            "0x4aa5521651e2916eea3f72d09665c4edff75e03c": {
                "nonce": "0x00",
                "balance": "0x3635c9adc5dea00000",
                "code": "0x",
                "storage": {}
            }
        },
        "transaction": {
            "nonce": "0x00",
            "gasPrice": "0x0a",
            "gasLimit": [
                "0x0245ce"
            ],
            "to": "0xa0f119219b24f7073c7d538fdb40128c68c18193",
            "value": [
                "0x00"
            ],
            "data": [
                "0x0000000000000000000000000000000016ce9bde53570b69b50aa33a30e4023a26e3b393e0fcd71607b97ec3c7e3f0c91d1544ee9ca873cfaf0a63ac04692d6a0000000000000000000000000000000013004bc47b23e05e1e4d876339f2834dec0e392157d4478f8a606480b760b9d58cc55e6cca489194ac02c01b160a11b1"
            ],
            "sender": "0x4aa5521651e2916eea3f72d09665c4edff75e03c",
            "secretKey": "0x292c61937c29646ce9917fe6a0f119219b24f7073c7d538fdb40128c68c18193"
        },
        "post": {
            "Prague": [
                {
                    "hash": "0x1c9ebe51e1aed714bbf3a077d866d7a58826cdb04a4ed2f66a3abfb60d5ace51",
                    "logs": "0x1dcc4de8dec75d7aab85b567b6ccd41ad312451b948a7413f0a142fd40d49347",
                    "txbytes": "0xf8e1800a830245ce94a0f119219b24f7073c7d538fdb40128c68c1819380b8800000000000000000000000000000000016ce9bde53570b69b50aa33a30e4023a26e3b393e0fcd71607b97ec3c7e3f0c91d1544ee9ca873cfaf0a63ac04692d6a0000000000000000000000000000000013004bc47b23e05e1e4d876339f2834dec0e392157d4478f8a606480b760b9d58cc55e6cca489194ac02c01b160a11b125a084b2ee4e81b0557cf5525775519dd158725a6854fb783c02eb12908861b049a9a022b2c2c07a210cc8cbae707e08b3c42fa1a0c5b34730c3f238f0e05afad27ddc",
                    "indexes": {
                        "data": 0,
                        "gas": 0,
                        "value": 0
                    },
                    "state": {
                        "0xa0f119219b24f7073c7d538fdb40128c68c18193": {
                            "nonce": "0x01",
                            "balance": "0x00",
                            "code": "0x3660006000376000600036600060006011615cf8f16000553d6001553d600060003e3d600020600255",
                            "storage": {
                                "0x00": "0x01",
                                "0x01": "0x0100",
                                "0x02": "0xd397b3b043d87fcd6fad1291ff0bfd16401c274896d8c63a923727f077b8e0b5"
                            }
                        },
                        "0x4aa5521651e2916eea3f72d09665c4edff75e03c": {
                            "nonce": "0x01",
                            "balance": "0x3635c9adc5de8ec010",
                            "code": "0x",
                            "storage": {}
                        },
                        "0x2adc25665018aa1fe0e6bc666dac8fc2697ff9ba": {
                            "nonce": "0x00",
                            "balance": "0x052cc8",
                            "code": "0x",
                            "storage": {}
                        }
                    }
                }
            ]
        },
        "config": {
            "blobSchedule": {
                "Cancun": {
                    "target": "0x03",
                    "max": "0x06",
                    "baseFeeUpdateFraction": "0x32f0ed"
                },
                "Prague": {
                    "target": "0x06",
                    "max": "0x09",
                    "baseFeeUpdateFraction": "0x4c6964"
                }
            },
            "chainid": "0x01"
        },
        "_info": {
            "hash": "0x6748a2590efcf70b3ce7ebdea4694d91a8fe74344df9c53e4788867169754f21",
            "comment": "`execution-specs` generated test",
            "filling-transition-tool": "2.18.0rc6",
            "description": "Test the all precompiles of EIP-2537.",
            "url": "https://github.com/ethereum/execution-specs/blob/tests-v5.4.0/tests/prague/eip2537_bls_12_381_precompiles/test_eip_mainnet.py#L17",
            "fixture-format": "state_test",
            "reference-spec": "https://github.com/ethereum/EIPs/blob/master/EIPS/eip-2537.md",
            "reference-spec-version": "c561ec1426fe5ec470eade499a0bd4174f270583"
        }
    }
}