{
    "tests/cancun/eip4844_blobs/test_blob_txs.py::test_invalid_blob_hash_versioning_single_tx[fork_Cancun-state_test--multiple_blobs]": {
        "env": {
            "currentCoinbase": "0x2adc25665018aa1fe0e6bc666dac8fc2697ff9ba",
            "currentGasLimit": "0x07270e00",
            "currentNumber": "0x01",
            "currentTimestamp": "0x03e8",
            "currentRandom": "0x0000000000000000000000000000000000000000000000000000000000000000",
            "currentDifficulty": "0x00",
            "currentBaseFee": "0x07",
            "currentExcessBlobGas": "0x0e0000"
        },
        "pre": {
            "0x69a6c806a7faf36a67a071dce1a8c6c9d0e03f67": {
                "nonce": "0x00",
                "balance": "0x063e39",
                "code": "0x",
                "storage": {}
            }
        },
        "transaction": {
            "nonce": "0x00",
            "maxPriorityFeePerGas": "0x00",
            "maxFeePerGas": "0x07",
            "gasLimit": [
                "0x5208"
            ],
            "to": "0xe420be01b422bcf098dcfe50b059c762ec0fef7e",
            "value": [
                "0x01"
            ],
            "data": [
                "0x"
            ],
            "accessLists": [
                []
            ],
            "maxFeePerBlobGas": "0x01",
            "blobVersionedHashes": [
                "0x0000000000000000000000000000000000000000000000000000000000000000",
                "0x0000000000000000000000000000000000000000000000000000000000000001"
            ],
            "sender": "0x69a6c806a7faf36a67a071dce1a8c6c9d0e03f67",
            "secretKey": "0x9596a87589b6dd619c149bcddb800a4db4d446ba249dd650e3b9864906551e15"
        },
        "post": {
            "Cancun": [
                {
                    "hash": "0x4465cb912fd19f6e05a457772816f38392125f632b2fab579bda0f7cd2250cc1",
                    "logs": "0x1dcc4de8dec75d7aab85b567b6ccd41ad312451b948a7413f0a142fd40d49347",
                    "txbytes": "0x03f8a70180800782520894e420be01b422bcf098dcfe50b059c762ec0fef7e0180c001f842a00000000000000000000000000000000000000000000000000000000000000000a0000000000000000000000000000000000000000000000000000000000000000101a01f40ecca15a26bf5df8f5789cd21dbecde1aa36802d2a60615b8ed8e04655de1a03668ec38ec67037335f18b8f9a9c24779fb038f40e1df3dcc6a5c276cf0f3dc3",
                    "indexes": {
                        "data": 0,
                        "gas": 0,
                        "value": 0
                    },
                    "state": {
                        "0x69a6c806a7faf36a67a071dce1a8c6c9d0e03f67": {
                            "nonce": "0x00",
                            "balance": "0x063e39",
                            "code": "0x",
                            "storage": {}
                        }
                    },
                    "expectException": "TransactionException.TYPE_3_TX_INVALID_BLOB_VERSIONED_HASH"
                }
            ]
        },
        "config": {
            "blobSchedule": {
                "Cancun": {
                    "target": "0x03",
                    "max": "0x06",
                    "baseFeeUpdateFraction": "0x32f0ed"
                }
            },
            "chainid": "0x01"
        },
        "_info": {
            "hash": "0xac0b208cf55d217ef4fb5903f871bafaf1d046f67447c5780db66f38f8da5e85",
            "comment": "`execution-specs` generated test",
            "filling-transition-tool": "2.18.0rc6",
            "description": "Reject blob transactions with invalid blob hash version.\n\n    - Transaction with single blob with invalid version\n    - Transaction with multiple blobs all with invalid version\n    - Transaction with multiple blobs either with invalid version",
            "url": "https://github.com/ethereum/execution-specs/blob/tests-v5.4.0/tests/cancun/eip4844_blobs/test_blob_txs.py#L962",
            "fixture-format": "state_test",
            "reference-spec": "https://github.com/ethereum/EIPs/blob/master/EIPS/eip-4844.md",
            "reference-spec-version": "de2e4a46ad93fc04e6fe3174dc6e90a3307bdb5f"
        }
    },
    "tests/cancun/eip4844_blobs/test_blob_txs.py::test_invalid_blob_hash_versioning_single_tx[fork_Cancun-state_test--multiple_blobs_single_bad_hash_1]": {
        "env": {
            "currentCoinbase": "0x2adc25665018aa1fe0e6bc666dac8fc2697ff9ba",
            "currentGasLimit": "0x07270e00",
            "currentNumber": "0x01",
            "currentTimestamp": "0x03e8",
            "currentRandom": "0x0000000000000000000000000000000000000000000000000000000000000000",
            "currentDifficulty": "0x00",
            "currentBaseFee": "0x07",
            "currentExcessBlobGas": "0x0e0000"
        },
        "pre": {
            "0x855cf3a2a25851c63c716a6109045fcfaa5a20c1": {
                "nonce": "0x00",
                "balance": "0x063e39",
                "code": "0x",
                "storage": {}
            }
        },
        "transaction": {
            "nonce": "0x00",
            "maxPriorityFeePerGas": "0x00",
            "maxFeePerGas": "0x07",
            "gasLimit": [
                "0x5208"
            ],
            "to": "0x90b6b60cd6e09aac00f5bf9474203b6acf1d0fcb",
            "value": [
                "0x01"
            ],
            "data": [
                "0x"
            ],
            "accessLists": [
                []
            ],
            "maxFeePerBlobGas": "0x01",
            "blobVersionedHashes": [
                "0x0100000000000000000000000000000000000000000000000000000000000001",
                "0x0000000000000000000000000000000000000000000000000000000000000002"
            ],
            "sender": "0x855cf3a2a25851c63c716a6109045fcfaa5a20c1",
            "secretKey": "0x94a2b52d2f9d45841758a9cbafa38e6eb2be3efea10f368e19e75f95020dd3a9"
        },
        "post": {
            "Cancun": [
                {
                    "hash": "0x25bd2b115ac0f0916a082304b106d470b31d6ccbb75ed7a45676369a5317ccd4",
                    "logs": "0x1dcc4de8dec75d7aab85b567b6ccd41ad312451b948a7413f0a142fd40d49347",
                    "txbytes": "0x03f8a7018080078252089490b6b60cd6e09aac00f5bf9474203b6acf1d0fcb0180c001f842a00100000000000000000000000000000000000000000000000000000000000001a0000000000000000000000000000000000000000000000000000000000000000280a05075eb5fcee7f08a7bd4a65af47bdbec7c9deff43a2122afb177b29b57f53191a00cf9458d8ade3f7a383ece1f1095b1a94ea0857ede5556d9c05bdca58fe1015b",
                    "indexes": {
                        "data": 0,
                        "gas": 0,
                        "value": 0
                    },
                    "state": {
                        "0x855cf3a2a25851c63c716a6109045fcfaa5a20c1": {
                            "nonce": "0x00",
                            "balance": "0x063e39",
                            "code": "0x",
                            "storage": {}
                        }
                    },
                    "expectException": "TransactionException.TYPE_3_TX_INVALID_BLOB_VERSIONED_HASH"
                }
            ]
        },
        "config": {
            "blobSchedule": {
                "Cancun": {
                    "target": "0x03",
                    "max": "0x06",
                    "baseFeeUpdateFraction": "0x32f0ed"
                }
            },
            "chainid": "0x01"
        },
        "_info": {
            "hash": "0x65feda23af154a5a7b6c3dd6a03c716aa291b9ec7d6d1eb700519203aeda8df5",
            "comment": "`execution-specs` generated test",
            "filling-transition-tool": "2.18.0rc6",
            "description": "Reject blob transactions with invalid blob hash version.\n\n    - Transaction with single blob with invalid version\n    - Transaction with multiple blobs all with invalid version\n    - Transaction with multiple blobs either with invalid version",
            "url": "https://github.com/ethereum/execution-specs/blob/tests-v5.4.0/tests/cancun/eip4844_blobs/test_blob_txs.py#L962",
            "fixture-format": "state_test",
            "reference-spec": "https://github.com/ethereum/EIPs/blob/master/EIPS/eip-4844.md",
            "reference-spec-version": "de2e4a46ad93fc04e6fe3174dc6e90a3307bdb5f"
        }
    },
    "tests/cancun/eip4844_blobs/test_blob_txs.py::test_invalid_blob_hash_versioning_single_tx[fork_Cancun-state_test--multiple_blobs_single_bad_hash_2]": {
        "env": {
            "currentCoinbase": "0x2adc25665018aa1fe0e6bc666dac8fc2697ff9ba",
            "currentGasLimit": "0x07270e00",
            "currentNumber": "0x01",
            "currentTimestamp": "0x03e8",
            "currentRandom": "0x0000000000000000000000000000000000000000000000000000000000000000",
            "currentDifficulty": "0x00",
            "currentBaseFee": "0x07",
            "currentExcessBlobGas": "0x0e0000"
        },
        "pre": {
            "0x2552d0db73cd7fa15e66931f4d8f8d789f85efed": {
                "nonce": "0x00",
                "balance": "0x063e39",
                "code": "0x",
                "storage": {}
            }
        },
        "transaction": {
            "nonce": "0x00",
            "maxPriorityFeePerGas": "0x00",
            "maxFeePerGas": "0x07",
            "gasLimit": [
                "0x5208"
            ],
            "to": "0x77afdaf70b72c785698eba378c1c827113cc97d8",
            "value": [
                "0x01"
            ],
            "data": [
                "0x"
            ],
            "accessLists": [
                []
            ],
            "maxFeePerBlobGas": "0x01",
            "blobVersionedHashes": [
                "0x0000000000000000000000000000000000000000000000000000000000000001",
                "0x0100000000000000000000000000000000000000000000000000000000000002"
            ],
            "sender": "0x2552d0db73cd7fa15e66931f4d8f8d789f85efed",
            "secretKey": "0x4ac5e3bb2f26f718c93ee056e5ab8c4d9dac39bf6d7f5696e9cc8c2e76d4830c"
        },
        "post": {
            "Cancun": [
                {
                    "hash": "0x348897ee3ecbd367451cccf5c86aac24be7ee483895b50b918f3421f0659e97c",
                    "logs": "0x1dcc4de8dec75d7aab85b567b6ccd41ad312451b948a7413f0a142fd40d49347",
                    "txbytes": "0x03f8a7018080078252089477afdaf70b72c785698eba378c1c827113cc97d80180c001f842a00000000000000000000000000000000000000000000000000000000000000001a0010000000000000000000000000000000000000000000000000000000000000280a0647179327dfc2950b60ec9b6176197fb37998f2b5b41b968b499cee39ff689c6a00fd1f2b8b494ea72fee562e6d47ba5888a8eff3264d07e795a8d6e6fc84dceda",
                    "indexes": {
                        "data": 0,
                        "gas": 0,
                        "value": 0
                    },
                    "state": {
                        "0x2552d0db73cd7fa15e66931f4d8f8d789f85efed": {
                            "nonce": "0x00",
                            "balance": "0x063e39",
                            "code": "0x",
                            "storage": {}
                        }
                    },
                    "expectException": "TransactionException.TYPE_3_TX_INVALID_BLOB_VERSIONED_HASH"
                }
            ]
        },
        "config": {
            "blobSchedule": {
                "Cancun": {
                    "target": "0x03",
                    "max": "0x06",
                    "baseFeeUpdateFraction": "0x32f0ed"
                }
            },
            "chainid": "0x01"
        },
        "_info": {
            "hash": "0x7d37f35b7d099738248030a6fbba40fd4a1ec6908fb0342deb7021d9506555ba",
            "comment": "`execution-specs` generated test",
            "filling-transition-tool": "2.18.0rc6",
            "description": "Reject blob transactions with invalid blob hash version.\n\n    - Transaction with single blob with invalid version\n    - Transaction with multiple blobs all with invalid version\n    - Transaction with multiple blobs either with invalid version",
            "url": "https://github.com/ethereum/execution-specs/blob/tests-v5.4.0/tests/cancun/eip4844_blobs/test_blob_txs.py#L962",
            "fixture-format": "state_test",
            "reference-spec": "https://github.com/ethereum/EIPs/blob/master/EIPS/eip-4844.md",
            "reference-spec-version": "de2e4a46ad93fc04e6fe3174dc6e90a3307bdb5f"
        }
    },
    "tests/cancun/eip4844_blobs/test_blob_txs.py::test_invalid_blob_hash_versioning_single_tx[fork_Cancun-state_test--single_blob]": {
        "env": {
            "currentCoinbase": "0x2adc25665018aa1fe0e6bc666dac8fc2697ff9ba",
            "currentGasLimit": "0x07270e00",
            "currentNumber": "0x01",
            "currentTimestamp": "0x03e8",
            "currentRandom": "0x0000000000000000000000000000000000000000000000000000000000000000",
            "currentDifficulty": "0x00",
            "currentBaseFee": "0x07",
            "currentExcessBlobGas": "0x0e0000"
        },
        "pre": {
            "0xe71f21c237cb636f2fd9ddeaf11149b58111f792": {
                "nonce": "0x00",
                "balance": "0x043e39",
                "code": "0x",
                "storage": {}
            }
        },
        "transaction": {
            "nonce": "0x00",
            "maxPriorityFeePerGas": "0x00",
            "maxFeePerGas": "0x07",
            "gasLimit": [
                "0x5208"
            ],
            "to": "0x24e9bffb09574f75f9489b137b343d49dddda5ac",
            "value": [
                "0x01"
            ],
            "data": [
                "0x"
            ],
            "accessLists": [
                []
            ],
            "maxFeePerBlobGas": "0x01",
            "blobVersionedHashes": [
                "0x0000000000000000000000000000000000000000000000000000000000000001"
            ],
            "sender": "0xe71f21c237cb636f2fd9ddeaf11149b58111f792",
            "secretKey": "0x414d5b3cabdb39c3247467847598528b5945d6927c9018b5bfeb7d583eb23eb6"
        },
        "post": {
            "Cancun": [
                {
                    "hash": "0xb2a02ea52e922950f133e8065a0813a5c81ab9b98a87e49cc6fe9f32ca5c99e8",
                    "logs": "0x1dcc4de8dec75d7aab85b567b6ccd41ad312451b948a7413f0a142fd40d49347",
                    "txbytes": "0x03f885018080078252089424e9bffb09574f75f9489b137b343d49dddda5ac0180c001e1a0000000000000000000000000000000000000000000000000000000000000000101a0ff4f6b1aebedb4d8a0e052435f08216919d8970df28825f13eddaabde52a6fa9a01354119e50b44036524cfd37d178bda5f5341be839f6096efbb8c0d7466a1d2c",
                    "indexes": {
                        "data": 0,
                        "gas": 0,
                        "value": 0
                    },
                    "state": {
                        "0xe71f21c237cb636f2fd9ddeaf11149b58111f792": {
                            "nonce": "0x00",
                            "balance": "0x043e39",
                            "code": "0x",
                            "storage": {}
                        }
                    },
                    "expectException": "TransactionException.TYPE_3_TX_INVALID_BLOB_VERSIONED_HASH"
                }
            ]
        },
        "config": {
            "blobSchedule": {
                "Cancun": {
                    "target": "0x03",
                    "max": "0x06",
                    "baseFeeUpdateFraction": "0x32f0ed"
                }
            },
            "chainid": "0x01"
        },
        "_info": {
            "hash": "0x5fcb067e24a9622ea29d9181bf1b8714a5221f7d0a03f71e3118b80ce52b5213",
            "comment": "`execution-specs` generated test",
            "filling-transition-tool": "2.18.0rc6",
            "description": "Reject blob transactions with invalid blob hash version.\n\n    - Transaction with single blob with invalid version\n    - Transaction with multiple blobs all with invalid version\n    - Transaction with multiple blobs either with invalid version",
            "url": "https://github.com/ethereum/execution-specs/blob/tests-v5.4.0/tests/cancun/eip4844_blobs/test_blob_txs.py#L962",
            "fixture-format": "state_test",
            "reference-spec": "https://github.com/ethereum/EIPs/blob/master/EIPS/eip-4844.md",
            "reference-spec-version": "de2e4a46ad93fc04e6fe3174dc6e90a3307bdb5f"
        }
    },
    "tests/cancun/eip4844_blobs/test_blob_txs.py::test_invalid_blob_hash_versioning_single_tx[fork_Prague-state_test--multiple_blobs]": {
        "env": {
            "currentCoinbase": "0x2adc25665018aa1fe0e6bc666dac8fc2697ff9ba",
            "currentGasLimit": "0x07270e00",
            "currentNumber": "0x01",
            "currentTimestamp": "0x03e8",
            "currentRandom": "0x0000000000000000000000000000000000000000000000000000000000000000",
            "currentDifficulty": "0x00",
            "currentBaseFee": "0x07",
            "currentExcessBlobGas": "0x080000"
        },
        "pre": {
            "0x69a6c806a7faf36a67a071dce1a8c6c9d0e03f67": {
                "nonce": "0x00",
                "balance": "0x063e39",
                "code": "0x",
                "storage": {}
            }
        },
        "transaction": {
            "nonce": "0x00",
            "maxPriorityFeePerGas": "0x00",
            "maxFeePerGas": "0x07",
            "gasLimit": [
                "0x5208"
            ],
            "to": "0xe420be01b422bcf098dcfe50b059c762ec0fef7e",
            "value": [
                "0x01"
            ],
            "data": [
                "0x"
            ],
            "accessLists": [
                []
            ],
            "maxFeePerBlobGas": "0x01",
            "blobVersionedHashes": [
                "0x0000000000000000000000000000000000000000000000000000000000000000",
                "0x0000000000000000000000000000000000000000000000000000000000000001"
            ],
            "sender": "0x69a6c806a7faf36a67a071dce1a8c6c9d0e03f67",
            "secretKey": "0x9596a87589b6dd619c149bcddb800a4db4d446ba249dd650e3b9864906551e15"
        },
        "post": {
            "Prague": [
                {
                    "hash": "0x4465cb912fd19f6e05a457772816f38392125f632b2fab579bda0f7cd2250cc1",
                    "logs": "0x1dcc4de8dec75d7aab85b567b6ccd41ad312451b948a7413f0a142fd40d49347",
                    "txbytes": "0x03f8a70180800782520894e420be01b422bcf098dcfe50b059c762ec0fef7e0180c001f842a00000000000000000000000000000000000000000000000000000000000000000a0000000000000000000000000000000000000000000000000000000000000000101a01f40ecca15a26bf5df8f5789cd21dbecde1aa36802d2a60615b8ed8e04655de1a03668ec38ec67037335f18b8f9a9c24779fb038f40e1df3dcc6a5c276cf0f3dc3",
                    "indexes": {
                        "data": 0,
                        "gas": 0,
                        "value": 0
                    },
                    "state": {
                        "0x69a6c806a7faf36a67a071dce1a8c6c9d0e03f67": {
                            "nonce": "0x00",
                            "balance": "0x063e39",
                            "code": "0x",
                            "storage": {}
                        }
                    },
                    "expectException": "TransactionException.TYPE_3_TX_INVALID_BLOB_VERSIONED_HASH"
                }
            ]
        },
        "config": {
            "blobSchedule": {
                "Cancun": {
                    "target": "0x03",
                    "max": "0x06",
                    "baseFeeUpdateFraction": "0x32f0ed"
                },
                "Prague": {
                    "target": "0x06",
                    "max": "0x09",
                    "baseFeeUpdateFraction": "0x4c6964"
                }
            },
            "chainid": "0x01"
        },
        "_info": {
            "hash": "0x60b2c83ea64847453b0766b4c6d9dbc0166b01c2e0d806e98093db8d6dbe156f",
            "comment": "`execution-specs` generated test",
            "filling-transition-tool": "2.18.0rc6",
            "description": "Reject blob transactions with invalid blob hash version.\n\n    - Transaction with single blob with invalid version\n    - Transaction with multiple blobs all with invalid version\n    - Transaction with multiple blobs either with invalid version",
            "url": "https://github.com/ethereum/execution-specs/blob/tests-v5.4.0/tests/cancun/eip4844_blobs/test_blob_txs.py#L962",
            "fixture-format": "state_test",
            "reference-spec": "https://github.com/ethereum/EIPs/blob/master/EIPS/eip-4844.md",
            "reference-spec-version": "de2e4a46ad93fc04e6fe3174dc6e90a3307bdb5f"
        }
    },
    "tests/cancun/eip4844_blobs/test_blob_txs.py::test_invalid_blob_hash_versioning_single_tx[fork_Prague-state_test--multiple_blobs_single_bad_hash_1]": {
        "env": {
            "currentCoinbase": "0x2adc25665018aa1fe0e6bc666dac8fc2697ff9ba",
            "currentGasLimit": "0x07270e00",
            "currentNumber": "0x01",
            "currentTimestamp": "0x03e8",
            "currentRandom": "0x0000000000000000000000000000000000000000000000000000000000000000",
            "currentDifficulty": "0x00",
            "currentBaseFee": "0x07",
            "currentExcessBlobGas": "0x080000"
        },
        "pre": {
            "0x855cf3a2a25851c63c716a6109045fcfaa5a20c1": {
                "nonce": "0x00",
                "balance": "0x063e39",
                "code": "0x",
                "storage": {}
            }
        },
        "transaction": {
            "nonce": "0x00",
            "maxPriorityFeePerGas": "0x00",
            "maxFeePerGas": "0x07",
            "gasLimit": [
                "0x5208"
            ],
            "to": "0x90b6b60cd6e09aac00f5bf9474203b6acf1d0fcb",
            "value": [
                "0x01"
            ],
            "data": [
                "0x"
            ],
            "accessLists": [
                []
            ],
            "maxFeePerBlobGas": "0x01",
            "blobVersionedHashes": [
                "0x0100000000000000000000000000000000000000000000000000000000000001",
                "0x0000000000000000000000000000000000000000000000000000000000000002"
            ],
            "sender": "0x855cf3a2a25851c63c716a6109045fcfaa5a20c1",
            "secretKey": "0x94a2b52d2f9d45841758a9cbafa38e6eb2be3efea10f368e19e75f95020dd3a9"
        },
        "post": {
            "Prague": [
                {
                    "hash": "0x25bd2b115ac0f0916a082304b106d470b31d6ccbb75ed7a45676369a5317ccd4",
                    "logs": "0x1dcc4de8dec75d7aab85b567b6ccd41ad312451b948a7413f0a142fd40d49347",
                    "txbytes": "0x03f8a7018080078252089490b6b60cd6e09aac00f5bf9474203b6acf1d0fcb0180c001f842a00100000000000000000000000000000000000000000000000000000000000001a0000000000000000000000000000000000000000000000000000000000000000280a05075eb5fcee7f08a7bd4a65af47bdbec7c9deff43a2122afb177b29b57f53191a00cf9458d8ade3f7a383ece1f1095b1a94ea0857ede5556d9c05bdca58fe1015b",
                    "indexes": {
                        "data": 0,
                        "gas": 0,
                        "value": 0
                    },
                    "state": {
                        "0x855cf3a2a25851c63c716a6109045fcfaa5a20c1": {
                            "nonce": "0x00",
                            "balance": "0x063e39",
                            "code": "0x",
                            "storage": {}
                        }
                    },
                    "expectException": "TransactionException.TYPE_3_TX_INVALID_BLOB_VERSIONED_HASH"
                }
            ]
        },
        "config": {
            "blobSchedule": {
                "Cancun": {
                    "target": "0x03",
                    "max": "0x06",
                    "baseFeeUpdateFraction": "0x32f0ed"
                },
                "Prague": {
                    "target": "0x06",
                    "max": "0x09",
                    "baseFeeUpdateFraction": "0x4c6964"
                }
            },
            "chainid": "0x01"
        },
        "_info": {
            "hash": "0xefc8252e72b31102ec3793859e9544ac4a696840df764b035c64e61ba2a2f1e2",
            "comment": "`execution-specs` generated test",
            "filling-transition-tool": "2.18.0rc6",
            "description": "Reject blob transactions with invalid blob hash version.\n\n    - Transaction with single blob with invalid version\n    - Transaction with multiple blobs all with invalid version\n    - Transaction with multiple blobs either with invalid version",
            "url": "https://github.com/ethereum/execution-specs/blob/tests-v5.4.0/tests/cancun/eip4844_blobs/test_blob_txs.py#L962",
            "fixture-format": "state_test",
            "reference-spec": "https://github.com/ethereum/EIPs/blob/master/EIPS/eip-4844.md",
            "reference-spec-version": "de2e4a46ad93fc04e6fe3174dc6e90a3307bdb5f"
        }
    },
    "tests/cancun/eip4844_blobs/test_blob_txs.py::test_invalid_blob_hash_versioning_single_tx[fork_Prague-state_test--multiple_blobs_single_bad_hash_2]": {
        "env": {
            "currentCoinbase": "0x2adc25665018aa1fe0e6bc666dac8fc2697ff9ba",
            "currentGasLimit": "0x07270e00",
            "currentNumber": "0x01",
            "currentTimestamp": "0x03e8",
            "currentRandom": "0x0000000000000000000000000000000000000000000000000000000000000000",
            "currentDifficulty": "0x00",
            "currentBaseFee": "0x07",
            "currentExcessBlobGas": "0x080000"
        },
        "pre": {
            "0x2552d0db73cd7fa15e66931f4d8f8d789f85efed": {
                "nonce": "0x00",
                "balance": "0x063e39",
                "code": "0x",
                "storage": {}
            }
        },
        "transaction": {
            "nonce": "0x00",
            "maxPriorityFeePerGas": "0x00",
            "maxFeePerGas": "0x07",
            "gasLimit": [
                "0x5208"
            ],
            "to": "0x77afdaf70b72c785698eba378c1c827113cc97d8",
            "value": [
                "0x01"
            ],
            "data": [
                "0x"
            ],
            "accessLists": [
                []
            ],
            "maxFeePerBlobGas": "0x01",
            "blobVersionedHashes": [
                "0x0000000000000000000000000000000000000000000000000000000000000001",
                "0x0100000000000000000000000000000000000000000000000000000000000002"
            ],
            "sender": "0x2552d0db73cd7fa15e66931f4d8f8d789f85efed",
            "secretKey": "0x4ac5e3bb2f26f718c93ee056e5ab8c4d9dac39bf6d7f5696e9cc8c2e76d4830c"
        },
        "post": {
            "Prague": [
                {
                    "hash": "0x348897ee3ecbd367451cccf5c86aac24be7ee483895b50b918f3421f0659e97c",
                    "logs": "0x1dcc4de8dec75d7aab85b567b6ccd41ad312451b948a7413f0a142fd40d49347",
                    "txbytes": "0x03f8a7018080078252089477afdaf70b72c785698eba378c1c827113cc97d80180c001f842a00000000000000000000000000000000000000000000000000000000000000001a0010000000000000000000000000000000000000000000000000000000000000280a0647179327dfc2950b60ec9b6176197fb37998f2b5b41b968b499cee39ff689c6a00fd1f2b8b494ea72fee562e6d47ba5888a8eff3264d07e795a8d6e6fc84dceda",
                    "indexes": {
                        "data": 0,
                        "gas": 0,
                        "value": 0
                    },
                    "state": {
                        "0x2552d0db73cd7fa15e66931f4d8f8d789f85efed": {
                            "nonce": "0x00",
                            "balance": "0x063e39",
                            "code": "0x",
                            "storage": {}
                        }
                    },
                    "expectException": "TransactionException.TYPE_3_TX_INVALID_BLOB_VERSIONED_HASH"
                }
            ]
        },
        "config": {
            "blobSchedule": {
                "Cancun": {
                    "target": "0x03",
                    "max": "0x06",
                    "baseFeeUpdateFraction": "0x32f0ed"
                },
                "Prague": {
                    "target": "0x06",
                    "max": "0x09",
                    "baseFeeUpdateFraction": "0x4c6964"
                }
            },
            "chainid": "0x01"
        },
        "_info": {
            "hash": "0xd58e1eb4985dea58670c51a9c96e9d73e63f24e935de76deb7f69ad9371b7807",
            "comment": "`execution-specs` generated test",
            "filling-transition-tool": "2.18.0rc6",
            "description": "Reject blob transactions with invalid blob hash version.\n\n    - Transaction with single blob with invalid version\n    - Transaction with multiple blobs all with invalid version\n    - Transaction with multiple blobs either with invalid version",
            "url": "https://github.com/ethereum/execution-specs/blob/tests-v5.4.0/tests/cancun/eip4844_blobs/test_blob_txs.py#L962",
            "fixture-format": "state_test",
            "reference-spec": "https://github.com/ethereum/EIPs/blob/master/EIPS/eip-4844.md",
            "reference-spec-version": "de2e4a46ad93fc04e6fe3174dc6e90a3307bdb5f"
        }
    },
    "tests/cancun/eip4844_blobs/test_blob_txs.py::test_invalid_blob_hash_versioning_single_tx[fork_Prague-state_test--single_blob]": {
        "env": {
            "currentCoinbase": "0x2adc25665018aa1fe0e6bc666dac8fc2697ff9ba",
            "currentGasLimit": "0x07270e00",
            "currentNumber": "0x01",
            "currentTimestamp": "0x03e8",
            "currentRandom": "0x0000000000000000000000000000000000000000000000000000000000000000",
            "currentDifficulty": "0x00",
            "currentBaseFee": "0x07",
            "currentExcessBlobGas": "0x080000"
        },
        "pre": {
            "0xe71f21c237cb636f2fd9ddeaf11149b58111f792": {
                "nonce": "0x00",
                "balance": "0x043e39",
                "code": "0x",
                "storage": {}
            }
        },
        "transaction": {
            "nonce": "0x00",
            "maxPriorityFeePerGas": "0x00",
            "maxFeePerGas": "0x07",
            "gasLimit": [
                "0x5208"
            ],
            "to": "0x24e9bffb09574f75f9489b137b343d49dddda5ac",
            "value": [
                "0x01"
            ],
            "data": [
                "0x"
            ],
            "accessLists": [
                []
            ],
            "maxFeePerBlobGas": "0x01",
            "blobVersionedHashes": [
                "0x0000000000000000000000000000000000000000000000000000000000000001"
            ],
            "sender": "0xe71f21c237cb636f2fd9ddeaf11149b58111f792",
            "secretKey": "0x414d5b3cabdb39c3247467847598528b5945d6927c9018b5bfeb7d583eb23eb6"
        },
        "post": {
            "Prague": [
                {
                    "hash": "0xb2a02ea52e922950f133e8065a0813a5c81ab9b98a87e49cc6fe9f32ca5c99e8",
                    "logs": "0x1dcc4de8dec75d7aab85b567b6ccd41ad312451b948a7413f0a142fd40d49347",
                    "txbytes": "0x03f885018080078252089424e9bffb09574f75f9489b137b343d49dddda5ac0180c001e1a0000000000000000000000000000000000000000000000000000000000000000101a0ff4f6b1aebedb4d8a0e052435f08216919d8970df28825f13eddaabde52a6fa9a01354119e50b44036524cfd37d178bda5f5341be839f6096efbb8c0d7466a1d2c",
                    "indexes": {
                        "data": 0,
                        "gas": 0,
                        "value": 0
                    },
                    "state": {
                        "0xe71f21c237cb636f2fd9ddeaf11149b58111f792": {
                            "nonce": "0x00",
                            "balance": "0x043e39",
                            "code": "0x",
                            "storage": {}
                        }
                    },
                    "expectException": "TransactionException.TYPE_3_TX_INVALID_BLOB_VERSIONED_HASH"
                }
            ]
        },
        "config": {
            "blobSchedule": {
                "Cancun": {
                    "target": "0x03",
                    "max": "0x06",
                    "baseFeeUpdateFraction": "0x32f0ed"
                },
                "Prague": {
                    "target": "0x06",
                    "max": "0x09",
                    "baseFeeUpdateFraction": "0x4c6964"
                }
            },
            "chainid": "0x01"
        },
        "_info": {
            "hash": "0x6fdd49d405c9c9608d8f9ac6a87e8efd0be82b4665636744b7397764e4ba855a",
            "comment": "`execution-specs` generated test",
            "filling-transition-tool": "2.18.0rc6",
            "description": "Reject blob transactions with invalid blob hash version.\n\n    - Transaction with single blob with invalid version\n    - Transaction with multiple blobs all with invalid version\n    - Transaction with multiple blobs either with invalid version",
            "url": "https://github.com/ethereum/execution-specs/blob/tests-v5.4.0/tests/cancun/eip4844_blobs/test_blob_txs.py#L962",
            "fixture-format": "state_test",
            "reference-spec": "https://github.com/ethereum/EIPs/blob/master/EIPS/eip-4844.md",
            "reference-spec-version": "de2e4a46ad93fc04e6fe3174dc6e90a3307bdb5f"
        }
    }
}