{
    "tests/cancun/eip4844_blobs/test_blob_txs.py::test_blob_tx_attribute_gasprice_opcode[fork_Cancun-state_test-tx_gas_500000-opcode_GASPRICE-tx_max_fee_per_gas_100-tx_max_fee_per_blob_gas_delta_0-tx_max_priority_fee_per_gas_0]": {
        "env": {
            "currentCoinbase": "0x2adc25665018aa1fe0e6bc666dac8fc2697ff9ba",
            "currentGasLimit": "0x07270e00",
            "currentNumber": "0x01",
            "currentTimestamp": "0x03e8",
            "currentRandom": "0x0000000000000000000000000000000000000000000000000000000000000000",
            "currentDifficulty": "0x00",
            "currentBaseFee": "0x07",
            "currentExcessBlobGas": "0x0e0000"
        },
        "pre": {
            "0x6f5bfd0c2091fc68d705b2bb31423b8b52fc8476": {
                "nonce": "0x00",
                "balance": "0x02fcf081",
                "code": "0x",
                "storage": {}
            },
            "0x7de408e42300f874f525796be23efaad2bf5e790": {
                "nonce": "0x01",
                "balance": "0x00",
                "code": "0x3a600055",
                "storage": {}
            }
        },
        "transaction": {
            "nonce": "0x00",
            "maxPriorityFeePerGas": "0x00",
            "maxFeePerGas": "0x64",
            "gasLimit": [
                "0x07a120"
            ],
            "to": "0x7de408e42300f874f525796be23efaad2bf5e790",
            "value": [
                "0x01"
            ],
            "data": [
                "0x"
            ],
            "accessLists": [
                []
            ],
            "maxFeePerBlobGas": "0x01",
            "blobVersionedHashes": [
                "0x0100000000000000000000000000000000000000000000000000000000000000"
            ],
            "sender": "0x6f5bfd0c2091fc68d705b2bb31423b8b52fc8476",
            "secretKey": "0xa9b49858fff9b3893a93e9fb7de408e42300f874f525796be23efaad2bf5e790"
        },
        "post": {
            "Cancun": [
                {
                    "hash": "0xc8494700448f3907f54aac5bba4b3102bb1410aa1aef30968b932bb1718a9218",
                    "logs": "0x1dcc4de8dec75d7aab85b567b6ccd41ad312451b948a7413f0a142fd40d49347",
                    "txbytes": "0x03f886018080648307a120947de408e42300f874f525796be23efaad2bf5e7900180c001e1a0010000000000000000000000000000000000000000000000000000000000000001a0f88308d7d02722f540eb6fb7580ba51c1629c6d6640d05427d7b6deefa58b098a066c6a312283650c41e0f7ab3f66df39c36a331e9113ba33a837522040db2e3eb",
                    "indexes": {
                        "data": 0,
                        "gas": 0,
                        "value": 0
                    },
                    "state": {
                        "0x6f5bfd0c2091fc68d705b2bb31423b8b52fc8476": {
                            "nonce": "0x01",
                            "balance": "0x02f655d9",
                            "code": "0x",
                            "storage": {}
                        },
                        "0x7de408e42300f874f525796be23efaad2bf5e790": {
                            "nonce": "0x01",
                            "balance": "0x01",
                            "code": "0x3a600055",
                            "storage": {
                                "0x00": "0x07"
                            }
                        }
                    }
                }
            ]
        },
        "config": {
            "blobSchedule": {
                "Cancun": {
                    "target": "0x03",
                    "max": "0x06",
                    "baseFeeUpdateFraction": "0x32f0ed"
                }
            },
            "chainid": "0x01"
        },
        "_info": {
            "hash": "0x87b51cfe19f093f4ff5d32dab6d601d22d3e73b83eb501e641ecf902673655de",
            "comment": "`execution-specs` generated test",
            "filling-transition-tool": "2.18.0rc6",
            "description": "Test GASPRICE opcode to sanity check that the blob gas fee does not affect\n    its calculation.\n\n    - No priority fee\n    - Priority fee below data fee\n    - Priority fee above data fee",
            "url": "https://github.com/ethereum/execution-specs/blob/tests-v5.4.0/tests/cancun/eip4844_blobs/test_blob_txs.py#L1365",
            "fixture-format": "state_test",
            "reference-spec": "https://github.com/ethereum/EIPs/blob/master/EIPS/eip-4844.md",
            "reference-spec-version": "de2e4a46ad93fc04e6fe3174dc6e90a3307bdb5f"
        }
    },
    "tests/cancun/eip4844_blobs/test_blob_txs.py::test_blob_tx_attribute_gasprice_opcode[fork_Cancun-state_test-tx_gas_500000-opcode_GASPRICE-tx_max_fee_per_gas_100-tx_max_fee_per_blob_gas_delta_0-tx_max_priority_fee_per_gas_2]": {
        "env": {
            "currentCoinbase": "0x2adc25665018aa1fe0e6bc666dac8fc2697ff9ba",
            "currentGasLimit": "0x07270e00",
            "currentNumber": "0x01",
            "currentTimestamp": "0x03e8",
            "currentRandom": "0x0000000000000000000000000000000000000000000000000000000000000000",
            "currentDifficulty": "0x00",
            "currentBaseFee": "0x07",
            "currentExcessBlobGas": "0x0e0000"
        },
        "pre": {
            "0x77431616447473e17129977851926babf8eb1b26": {
                "nonce": "0x00",
                "balance": "0x02fcf081",
                "code": "0x",
                "storage": {}
            },
            "0xbd7e8031e073e4566cabc9d7d97d07dff9d493d9": {
                "nonce": "0x01",
                "balance": "0x00",
                "code": "0x3a600055",
                "storage": {}
            }
        },
        "transaction": {
            "nonce": "0x00",
            "maxPriorityFeePerGas": "0x02",
            "maxFeePerGas": "0x64",
            "gasLimit": [
                "0x07a120"
            ],
            "to": "0xbd7e8031e073e4566cabc9d7d97d07dff9d493d9",
            "value": [
                "0x01"
            ],
            "data": [
                "0x"
            ],
            "accessLists": [
                []
            ],
            "maxFeePerBlobGas": "0x01",
            "blobVersionedHashes": [
                "0x0100000000000000000000000000000000000000000000000000000000000000"
            ],
            "sender": "0x77431616447473e17129977851926babf8eb1b26",
            "secretKey": "0xa856cb58e939c752b529e997bd7e8031e073e4566cabc9d7d97d07dff9d493d9"
        },
        "post": {
            "Cancun": [
                {
                    "hash": "0x90e9b677c79ee1cf8ced7b89358844dbad91a66f247572884a5938a54bb1776b",
                    "logs": "0x1dcc4de8dec75d7aab85b567b6ccd41ad312451b948a7413f0a142fd40d49347",
                    "txbytes": "0x03f886018002648307a12094bd7e8031e073e4566cabc9d7d97d07dff9d493d90180c001e1a0010000000000000000000000000000000000000000000000000000000000000001a07620a5cddf57b6557b71e326f23e6c0740e2938ee0f93b27b952f8f40fd81a55a07f23adbf7dbf49e1df0c0196d041bc2d8da63debc0a3938279ab978df986d76a",
                    "indexes": {
                        "data": 0,
                        "gas": 0,
                        "value": 0
                    },
                    "state": {
                        "0x77431616447473e17129977851926babf8eb1b26": {
                            "nonce": "0x01",
                            "balance": "0x02f50517",
                            "code": "0x",
                            "storage": {}
                        },
                        "0xbd7e8031e073e4566cabc9d7d97d07dff9d493d9": {
                            "nonce": "0x01",
                            "balance": "0x01",
                            "code": "0x3a600055",
                            "storage": {
                                "0x00": "0x09"
                            }
                        },
                        "0x2adc25665018aa1fe0e6bc666dac8fc2697ff9ba": {
                            "nonce": "0x00",
                            "balance": "0x0150c2",
                            "code": "0x",
                            "storage": {}
                        }
                    }
                }
            ]
        },
        "config": {
            "blobSchedule": {
                "Cancun": {
                    "target": "0x03",
                    "max": "0x06",
                    "baseFeeUpdateFraction": "0x32f0ed"
                }
            },
            "chainid": "0x01"
        },
        "_info": {
            "hash": "0x9ffdc06c0fffde1a22449d8c7b7f9e8c2155b698bb35cd02eb303e53628fea02",
            "comment": "`execution-specs` generated test",
            "filling-transition-tool": "2.18.0rc6",
            "description": "Test GASPRICE opcode to sanity check that the blob gas fee does not affect\n    its calculation.\n\n    - No priority fee\n    - Priority fee below data fee\n    - Priority fee above data fee",
            "url": "https://github.com/ethereum/execution-specs/blob/tests-v5.4.0/tests/cancun/eip4844_blobs/test_blob_txs.py#L1365",
            "fixture-format": "state_test",
            "reference-spec": "https://github.com/ethereum/EIPs/blob/master/EIPS/eip-4844.md",
            "reference-spec-version": "de2e4a46ad93fc04e6fe3174dc6e90a3307bdb5f"
        }
    },
    "tests/cancun/eip4844_blobs/test_blob_txs.py::test_blob_tx_attribute_gasprice_opcode[fork_Cancun-state_test-tx_gas_500000-opcode_GASPRICE-tx_max_fee_per_gas_100-tx_max_fee_per_blob_gas_delta_1-tx_max_priority_fee_per_gas_0]": {
        "env": {
            "currentCoinbase": "0x2adc25665018aa1fe0e6bc666dac8fc2697ff9ba",
            "currentGasLimit": "0x07270e00",
            "currentNumber": "0x01",
            "currentTimestamp": "0x03e8",
            "currentRandom": "0x0000000000000000000000000000000000000000000000000000000000000000",
            "currentDifficulty": "0x00",
            "currentBaseFee": "0x07",
            "currentExcessBlobGas": "0x0e0000"
        },
        "pre": {
            "0x685496cc54d1aefc3020e9b23d46924051479242": {
                "nonce": "0x00",
                "balance": "0x02fef081",
                "code": "0x",
                "storage": {}
            },
            "0xb67356d3d89e581a33c6553e53ff9a997cf31b05": {
                "nonce": "0x01",
                "balance": "0x00",
                "code": "0x3a600055",
                "storage": {}
            }
        },
        "transaction": {
            "nonce": "0x00",
            "maxPriorityFeePerGas": "0x00",
            "maxFeePerGas": "0x64",
            "gasLimit": [
                "0x07a120"
            ],
            "to": "0xb67356d3d89e581a33c6553e53ff9a997cf31b05",
            "value": [
                "0x01"
            ],
            "data": [
                "0x"
            ],
            "accessLists": [
                []
            ],
            "maxFeePerBlobGas": "0x02",
            "blobVersionedHashes": [
                "0x0100000000000000000000000000000000000000000000000000000000000000"
            ],
            "sender": "0x685496cc54d1aefc3020e9b23d46924051479242",
            "secretKey": "0x77b1b4b52ec6b8c1e0e3fa1fb67356d3d89e581a33c6553e53ff9a997cf31b05"
        },
        "post": {
            "Cancun": [
                {
                    "hash": "0x60a3e31853dbd6b82071b3cb21b2b5168fff55ce0c61c09e20d40526e6bdd8f5",
                    "logs": "0x1dcc4de8dec75d7aab85b567b6ccd41ad312451b948a7413f0a142fd40d49347",
                    "txbytes": "0x03f886018080648307a12094b67356d3d89e581a33c6553e53ff9a997cf31b050180c002e1a0010000000000000000000000000000000000000000000000000000000000000080a08522b46acfb993b75bb96feada8fb7e2e6e03c6d2044d3e92c968173695f3bf6a00167561f08265592401e5cf22180401855d3d8c5280c1eba537f0381d61c3001",
                    "indexes": {
                        "data": 0,
                        "gas": 0,
                        "value": 0
                    },
                    "state": {
                        "0x685496cc54d1aefc3020e9b23d46924051479242": {
                            "nonce": "0x01",
                            "balance": "0x02f855d9",
                            "code": "0x",
                            "storage": {}
                        },
                        "0xb67356d3d89e581a33c6553e53ff9a997cf31b05": {
                            "nonce": "0x01",
                            "balance": "0x01",
                            "code": "0x3a600055",
                            "storage": {
                                "0x00": "0x07"
                            }
                        }
                    }
                }
            ]
        },
        "config": {
            "blobSchedule": {
                "Cancun": {
                    "target": "0x03",
                    "max": "0x06",
                    "baseFeeUpdateFraction": "0x32f0ed"
                }
            },
            "chainid": "0x01"
        },
        "_info": {
            "hash": "0xf9ff5b292579499e04ba3b9ce44f79ef759449a51cdc902ffa0fda9401348be6",
            "comment": "`execution-specs` generated test",
            "filling-transition-tool": "2.18.0rc6",
            "description": "Test GASPRICE opcode to sanity check that the blob gas fee does not affect\n    its calculation.\n\n    - No priority fee\n    - Priority fee below data fee\n    - Priority fee above data fee",
            "url": "https://github.com/ethereum/execution-specs/blob/tests-v5.4.0/tests/cancun/eip4844_blobs/test_blob_txs.py#L1365",
            "fixture-format": "state_test",
            "reference-spec": "https://github.com/ethereum/EIPs/blob/master/EIPS/eip-4844.md",
            "reference-spec-version": "de2e4a46ad93fc04e6fe3174dc6e90a3307bdb5f"
        }
    },
    "tests/cancun/eip4844_blobs/test_blob_txs.py::test_blob_tx_attribute_gasprice_opcode[fork_Cancun-state_test-tx_gas_500000-opcode_GASPRICE-tx_max_fee_per_gas_100-tx_max_fee_per_blob_gas_delta_1-tx_max_priority_fee_per_gas_2]": {
        "env": {
            "currentCoinbase": "0x2adc25665018aa1fe0e6bc666dac8fc2697ff9ba",
            "currentGasLimit": "0x07270e00",
            "currentNumber": "0x01",
            "currentTimestamp": "0x03e8",
            "currentRandom": "0x0000000000000000000000000000000000000000000000000000000000000000",
            "currentDifficulty": "0x00",
            "currentBaseFee": "0x07",
            "currentExcessBlobGas": "0x0e0000"
        },
        "pre": {
            "0xaaa4db74a33935c50c51893c130996c938d7355e": {
                "nonce": "0x00",
                "balance": "0x02fef081",
                "code": "0x",
                "storage": {}
            },
            "0x73238586343c4404d71954eb37049f324eff8efb": {
                "nonce": "0x01",
                "balance": "0x00",
                "code": "0x3a600055",
                "storage": {}
            }
        },
        "transaction": {
            "nonce": "0x00",
            "maxPriorityFeePerGas": "0x02",
            "maxFeePerGas": "0x64",
            "gasLimit": [
                "0x07a120"
            ],
            "to": "0x73238586343c4404d71954eb37049f324eff8efb",
            "value": [
                "0x01"
            ],
            "data": [
                "0x"
            ],
            "accessLists": [
                []
            ],
            "maxFeePerBlobGas": "0x02",
            "blobVersionedHashes": [
                "0x0100000000000000000000000000000000000000000000000000000000000000"
            ],
            "sender": "0xaaa4db74a33935c50c51893c130996c938d7355e",
            "secretKey": "0x6b544b43c160479b386612a873238586343c4404d71954eb37049f324eff8efb"
        },
        "post": {
            "Cancun": [
                {
                    "hash": "0x634a3de10d31113493076ef40bd0c24e000987a476efe26e47b91281a55a1e2c",
                    "logs": "0x1dcc4de8dec75d7aab85b567b6ccd41ad312451b948a7413f0a142fd40d49347",
                    "txbytes": "0x03f886018002648307a1209473238586343c4404d71954eb37049f324eff8efb0180c002e1a0010000000000000000000000000000000000000000000000000000000000000080a01fcde6af5c3ee28079df07e130284423e2ad558f4dfcadaa5ee9a8e8f18a83aea06830f3b898da3722092d1c33683291505b2641bd246169e1dc30bcc0d1b56caa",
                    "indexes": {
                        "data": 0,
                        "gas": 0,
                        "value": 0
                    },
                    "state": {
                        "0xaaa4db74a33935c50c51893c130996c938d7355e": {
                            "nonce": "0x01",
                            "balance": "0x02f70517",
                            "code": "0x",
                            "storage": {}
                        },
                        "0x73238586343c4404d71954eb37049f324eff8efb": {
                            "nonce": "0x01",
                            "balance": "0x01",
                            "code": "0x3a600055",
                            "storage": {
                                "0x00": "0x09"
                            }
                        },
                        "0x2adc25665018aa1fe0e6bc666dac8fc2697ff9ba": {
                            "nonce": "0x00",
                            "balance": "0x0150c2",
                            "code": "0x",
                            "storage": {}
                        }
                    }
                }
            ]
        },
        "config": {
            "blobSchedule": {
                "Cancun": {
                    "target": "0x03",
                    "max": "0x06",
                    "baseFeeUpdateFraction": "0x32f0ed"
                }
            },
            "chainid": "0x01"
        },
        "_info": {
            "hash": "0xc04795bbaf6f33e215d918b67b2f66c55461f4c12dc543ab42b0a709337461d0",
            "comment": "`execution-specs` generated test",
            "filling-transition-tool": "2.18.0rc6",
            "description": "Test GASPRICE opcode to sanity check that the blob gas fee does not affect\n    its calculation.\n\n    - No priority fee\n    - Priority fee below data fee\n    - Priority fee above data fee",
            "url": "https://github.com/ethereum/execution-specs/blob/tests-v5.4.0/tests/cancun/eip4844_blobs/test_blob_txs.py#L1365",
            "fixture-format": "state_test",
            "reference-spec": "https://github.com/ethereum/EIPs/blob/master/EIPS/eip-4844.md",
            "reference-spec-version": "de2e4a46ad93fc04e6fe3174dc6e90a3307bdb5f"
        }
    },
    "tests/cancun/eip4844_blobs/test_blob_txs.py::test_blob_tx_attribute_gasprice_opcode[fork_Prague-state_test-tx_gas_500000-opcode_GASPRICE-tx_max_fee_per_gas_100-tx_max_fee_per_blob_gas_delta_0-tx_max_priority_fee_per_gas_0]": {
        "env": {
            "currentCoinbase": "0x2adc25665018aa1fe0e6bc666dac8fc2697ff9ba",
            "currentGasLimit": "0x07270e00",
            "currentNumber": "0x01",
            "currentTimestamp": "0x03e8",
            "currentRandom": "0x0000000000000000000000000000000000000000000000000000000000000000",
            "currentDifficulty": "0x00",
            "currentBaseFee": "0x07",
            "currentExcessBlobGas": "0x080000"
        },
        "pre": {
            "0x6f5bfd0c2091fc68d705b2bb31423b8b52fc8476": {
                "nonce": "0x00",
                "balance": "0x02fcf081",
                "code": "0x",
                "storage": {}
            },
            "0x7de408e42300f874f525796be23efaad2bf5e790": {
                "nonce": "0x01",
                "balance": "0x00",
                "code": "0x3a600055",
                "storage": {}
            }
        },
        "transaction": {
            "nonce": "0x00",
            "maxPriorityFeePerGas": "0x00",
            "maxFeePerGas": "0x64",
            "gasLimit": [
                "0x07a120"
            ],
            "to": "0x7de408e42300f874f525796be23efaad2bf5e790",
            "value": [
                "0x01"
            ],
            "data": [
                "0x"
            ],
            "accessLists": [
                []
            ],
            "maxFeePerBlobGas": "0x01",
            "blobVersionedHashes": [
                "0x0100000000000000000000000000000000000000000000000000000000000000"
            ],
            "sender": "0x6f5bfd0c2091fc68d705b2bb31423b8b52fc8476",
            "secretKey": "0xa9b49858fff9b3893a93e9fb7de408e42300f874f525796be23efaad2bf5e790"
        },
        "post": {
            "Prague": [
                {
                    "hash": "0xc8494700448f3907f54aac5bba4b3102bb1410aa1aef30968b932bb1718a9218",
                    "logs": "0x1dcc4de8dec75d7aab85b567b6ccd41ad312451b948a7413f0a142fd40d49347",
                    "txbytes": "0x03f886018080648307a120947de408e42300f874f525796be23efaad2bf5e7900180c001e1a0010000000000000000000000000000000000000000000000000000000000000001a0f88308d7d02722f540eb6fb7580ba51c1629c6d6640d05427d7b6deefa58b098a066c6a312283650c41e0f7ab3f66df39c36a331e9113ba33a837522040db2e3eb",
                    "indexes": {
                        "data": 0,
                        "gas": 0,
                        "value": 0
                    },
                    "state": {
                        "0x6f5bfd0c2091fc68d705b2bb31423b8b52fc8476": {
                            "nonce": "0x01",
                            "balance": "0x02f655d9",
                            "code": "0x",
                            "storage": {}
                        },
                        "0x7de408e42300f874f525796be23efaad2bf5e790": {
                            "nonce": "0x01",
                            "balance": "0x01",
                            "code": "0x3a600055",
                            "storage": {
                                "0x00": "0x07"
                            }
                        }
                    }
                }
            ]
        },
        "config": {
            "blobSchedule": {
                "Cancun": {
                    "target": "0x03",
                    "max": "0x06",
                    "baseFeeUpdateFraction": "0x32f0ed"
                },
                "Prague": {
                    "target": "0x06",
                    "max": "0x09",
                    "baseFeeUpdateFraction": "0x4c6964"
                }
            },
            "chainid": "0x01"
        },
        "_info": {
            "hash": "0xd8fa66245ffae5eadced7e7fa0f689e46c76e1f8d4f93e567e3eabbbc9c261b1",
            "comment": "`execution-specs` generated test",
            "filling-transition-tool": "2.18.0rc6",
            "description": "Test GASPRICE opcode to sanity check that the blob gas fee does not affect\n    its calculation.\n\n    - No priority fee\n    - Priority fee below data fee\n    - Priority fee above data fee",
            "url": "https://github.com/ethereum/execution-specs/blob/tests-v5.4.0/tests/cancun/eip4844_blobs/test_blob_txs.py#L1365",
            "fixture-format": "state_test",
            "reference-spec": "https://github.com/ethereum/EIPs/blob/master/EIPS/eip-4844.md",
            "reference-spec-version": "de2e4a46ad93fc04e6fe3174dc6e90a3307bdb5f"
        }
    },
    "tests/cancun/eip4844_blobs/test_blob_txs.py::test_blob_tx_attribute_gasprice_opcode[fork_Prague-state_test-tx_gas_500000-opcode_GASPRICE-tx_max_fee_per_gas_100-tx_max_fee_per_blob_gas_delta_0-tx_max_priority_fee_per_gas_2]": {
        "env": {
            "currentCoinbase": "0x2adc25665018aa1fe0e6bc666dac8fc2697ff9ba",
            "currentGasLimit": "0x07270e00",
            "currentNumber": "0x01",
            "currentTimestamp": "0x03e8",
            "currentRandom": "0x0000000000000000000000000000000000000000000000000000000000000000",
            "currentDifficulty": "0x00",
            "currentBaseFee": "0x07",
            "currentExcessBlobGas": "0x080000"
        },
        "pre": {
            "0x77431616447473e17129977851926babf8eb1b26": {
                "nonce": "0x00",
                "balance": "0x02fcf081",
                "code": "0x",
                "storage": {}
            },
            "0xbd7e8031e073e4566cabc9d7d97d07dff9d493d9": {
                "nonce": "0x01",
                "balance": "0x00",
                "code": "0x3a600055",
                "storage": {}
            }
        },
        "transaction": {
            "nonce": "0x00",
            "maxPriorityFeePerGas": "0x02",
            "maxFeePerGas": "0x64",
            "gasLimit": [
                "0x07a120"
            ],
            "to": "0xbd7e8031e073e4566cabc9d7d97d07dff9d493d9",
            "value": [
                "0x01"
            ],
            "data": [
                "0x"
            ],
            "accessLists": [
                []
            ],
            "maxFeePerBlobGas": "0x01",
            "blobVersionedHashes": [
                "0x0100000000000000000000000000000000000000000000000000000000000000"
            ],
            "sender": "0x77431616447473e17129977851926babf8eb1b26",
            "secretKey": "0xa856cb58e939c752b529e997bd7e8031e073e4566cabc9d7d97d07dff9d493d9"
        },
        "post": {
            "Prague": [
                {
                    "hash": "0x90e9b677c79ee1cf8ced7b89358844dbad91a66f247572884a5938a54bb1776b",
                    "logs": "0x1dcc4de8dec75d7aab85b567b6ccd41ad312451b948a7413f0a142fd40d49347",
                    "txbytes": "0x03f886018002648307a12094bd7e8031e073e4566cabc9d7d97d07dff9d493d90180c001e1a0010000000000000000000000000000000000000000000000000000000000000001a07620a5cddf57b6557b71e326f23e6c0740e2938ee0f93b27b952f8f40fd81a55a07f23adbf7dbf49e1df0c0196d041bc2d8da63debc0a3938279ab978df986d76a",
                    "indexes": {
                        "data": 0,
                        "gas": 0,
                        "value": 0
                    },
                    "state": {
                        "0x77431616447473e17129977851926babf8eb1b26": {
                            "nonce": "0x01",
                            "balance": "0x02f50517",
                            "code": "0x",
                            "storage": {}
                        },
                        "0xbd7e8031e073e4566cabc9d7d97d07dff9d493d9": {
                            "nonce": "0x01",
                            "balance": "0x01",
                            "code": "0x3a600055",
                            "storage": {
                                "0x00": "0x09"
                            }
                        },
                        "0x2adc25665018aa1fe0e6bc666dac8fc2697ff9ba": {
                            "nonce": "0x00",
                            "balance": "0x0150c2",
                            "code": "0x",
                            "storage": {}
                        }
                    }
                }
            ]
        },
        "config": {
            "blobSchedule": {
                "Cancun": {
                    "target": "0x03",
                    "max": "0x06",
                    "baseFeeUpdateFraction": "0x32f0ed"
                },
                "Prague": {
                    "target": "0x06",
                    "max": "0x09",
                    "baseFeeUpdateFraction": "0x4c6964"
                }
            },
            "chainid": "0x01"
        },
        "_info": {
            "hash": "0x5448666cc49e36d4973dc6438f96a0df080631c0c360dc66645ef81926f7690e",
            "comment": "`execution-specs` generated test",
            "filling-transition-tool": "2.18.0rc6",
            "description": "Test GASPRICE opcode to sanity check that the blob gas fee does not affect\n    its calculation.\n\n    - No priority fee\n    - Priority fee below data fee\n    - Priority fee above data fee",
            "url": "https://github.com/ethereum/execution-specs/blob/tests-v5.4.0/tests/cancun/eip4844_blobs/test_blob_txs.py#L1365",
            "fixture-format": "state_test",
            "reference-spec": "https://github.com/ethereum/EIPs/blob/master/EIPS/eip-4844.md",
            "reference-spec-version": "de2e4a46ad93fc04e6fe3174dc6e90a3307bdb5f"
        }
    },
    "tests/cancun/eip4844_blobs/test_blob_txs.py::test_blob_tx_attribute_gasprice_opcode[fork_Prague-state_test-tx_gas_500000-opcode_GASPRICE-tx_max_fee_per_gas_100-tx_max_fee_per_blob_gas_delta_1-tx_max_priority_fee_per_gas_0]": {
        "env": {
            "currentCoinbase": "0x2adc25665018aa1fe0e6bc666dac8fc2697ff9ba",
            "currentGasLimit": "0x07270e00",
            "currentNumber": "0x01",
            "currentTimestamp": "0x03e8",
            "currentRandom": "0x0000000000000000000000000000000000000000000000000000000000000000",
            "currentDifficulty": "0x00",
            "currentBaseFee": "0x07",
            "currentExcessBlobGas": "0x080000"
        },
        "pre": {
            "0x685496cc54d1aefc3020e9b23d46924051479242": {
                "nonce": "0x00",
                "balance": "0x02fef081",
                "code": "0x",
                "storage": {}
            },
            "0xb67356d3d89e581a33c6553e53ff9a997cf31b05": {
                "nonce": "0x01",
                "balance": "0x00",
                "code": "0x3a600055",
                "storage": {}
            }
        },
        "transaction": {
            "nonce": "0x00",
            "maxPriorityFeePerGas": "0x00",
            "maxFeePerGas": "0x64",
            "gasLimit": [
                "0x07a120"
            ],
            "to": "0xb67356d3d89e581a33c6553e53ff9a997cf31b05",
            "value": [
                "0x01"
            ],
            "data": [
                "0x"
            ],
            "accessLists": [
                []
            ],
            "maxFeePerBlobGas": "0x02",
            "blobVersionedHashes": [
                "0x0100000000000000000000000000000000000000000000000000000000000000"
            ],
            "sender": "0x685496cc54d1aefc3020e9b23d46924051479242",
            "secretKey": "0x77b1b4b52ec6b8c1e0e3fa1fb67356d3d89e581a33c6553e53ff9a997cf31b05"
        },
        "post": {
            "Prague": [
                {
                    "hash": "0x60a3e31853dbd6b82071b3cb21b2b5168fff55ce0c61c09e20d40526e6bdd8f5",
                    "logs": "0x1dcc4de8dec75d7aab85b567b6ccd41ad312451b948a7413f0a142fd40d49347",
                    "txbytes": "0x03f886018080648307a12094b67356d3d89e581a33c6553e53ff9a997cf31b050180c002e1a0010000000000000000000000000000000000000000000000000000000000000080a08522b46acfb993b75bb96feada8fb7e2e6e03c6d2044d3e92c968173695f3bf6a00167561f08265592401e5cf22180401855d3d8c5280c1eba537f0381d61c3001",
                    "indexes": {
                        "data": 0,
                        "gas": 0,
                        "value": 0
                    },
                    "state": {
                        "0x685496cc54d1aefc3020e9b23d46924051479242": {
                            "nonce": "0x01",
                            "balance": "0x02f855d9",
                            "code": "0x",
                            "storage": {}
                        },
                        "0xb67356d3d89e581a33c6553e53ff9a997cf31b05": {
                            "nonce": "0x01",
                            "balance": "0x01",
                            "code": "0x3a600055",
                            "storage": {
                                "0x00": "0x07"
                            }
                        }
                    }
                }
            ]
        },
        "config": {
            "blobSchedule": {
                "Cancun": {
                    "target": "0x03",
                    "max": "0x06",
                    "baseFeeUpdateFraction": "0x32f0ed"
                },
                "Prague": {
                    "target": "0x06",
                    "max": "0x09",
                    "baseFeeUpdateFraction": "0x4c6964"
                }
            },
            "chainid": "0x01"
        },
        "_info": {
            "hash": "0x64414d94670e2827bc5249bf012a6564a91e6ccd617c67e6cf6940e284e75909",
            "comment": "`execution-specs` generated test",
            "filling-transition-tool": "2.18.0rc6",
            "description": "Test GASPRICE opcode to sanity check that the blob gas fee does not affect\n    its calculation.\n\n    - No priority fee\n    - Priority fee below data fee\n    - Priority fee above data fee",
            "url": "https://github.com/ethereum/execution-specs/blob/tests-v5.4.0/tests/cancun/eip4844_blobs/test_blob_txs.py#L1365",
            "fixture-format": "state_test",
            "reference-spec": "https://github.com/ethereum/EIPs/blob/master/EIPS/eip-4844.md",
            "reference-spec-version": "de2e4a46ad93fc04e6fe3174dc6e90a3307bdb5f"
        }
    },
    "tests/cancun/eip4844_blobs/test_blob_txs.py::test_blob_tx_attribute_gasprice_opcode[fork_Prague-state_test-tx_gas_500000-opcode_GASPRICE-tx_max_fee_per_gas_100-tx_max_fee_per_blob_gas_delta_1-tx_max_priority_fee_per_gas_2]": {
        "env": {
            "currentCoinbase": "0x2adc25665018aa1fe0e6bc666dac8fc2697ff9ba",
            "currentGasLimit": "0x07270e00",
            "currentNumber": "0x01",
            "currentTimestamp": "0x03e8",
            "currentRandom": "0x0000000000000000000000000000000000000000000000000000000000000000",
            "currentDifficulty": "0x00",
            "currentBaseFee": "0x07",
            "currentExcessBlobGas": "0x080000"
        },
        "pre": {
            "0xaaa4db74a33935c50c51893c130996c938d7355e": {
                "nonce": "0x00",
                "balance": "0x02fef081",
                "code": "0x",
                "storage": {}
            },
            "0x73238586343c4404d71954eb37049f324eff8efb": {
                "nonce": "0x01",
                "balance": "0x00",
                "code": "0x3a600055",
                "storage": {}
            }
        },
        "transaction": {
            "nonce": "0x00",
            "maxPriorityFeePerGas": "0x02",
            "maxFeePerGas": "0x64",
            "gasLimit": [
                "0x07a120"
            ],
            "to": "0x73238586343c4404d71954eb37049f324eff8efb",
            "value": [
                "0x01"
            ],
            "data": [
                "0x"
            ],
            "accessLists": [
                []
            ],
            "maxFeePerBlobGas": "0x02",
            "blobVersionedHashes": [
                "0x0100000000000000000000000000000000000000000000000000000000000000"
            ],
            "sender": "0xaaa4db74a33935c50c51893c130996c938d7355e",
            "secretKey": "0x6b544b43c160479b386612a873238586343c4404d71954eb37049f324eff8efb"
        },
        "post": {
            "Prague": [
                {
                    "hash": "0x634a3de10d31113493076ef40bd0c24e000987a476efe26e47b91281a55a1e2c",
                    "logs": "0x1dcc4de8dec75d7aab85b567b6ccd41ad312451b948a7413f0a142fd40d49347",
                    "txbytes": "0x03f886018002648307a1209473238586343c4404d71954eb37049f324eff8efb0180c002e1a0010000000000000000000000000000000000000000000000000000000000000080a01fcde6af5c3ee28079df07e130284423e2ad558f4dfcadaa5ee9a8e8f18a83aea06830f3b898da3722092d1c33683291505b2641bd246169e1dc30bcc0d1b56caa",
                    "indexes": {
                        "data": 0,
                        "gas": 0,
                        "value": 0
                    },
                    "state": {
                        "0xaaa4db74a33935c50c51893c130996c938d7355e": {
                            "nonce": "0x01",
                            "balance": "0x02f70517",
                            "code": "0x",
                            "storage": {}
                        },
                        "0x73238586343c4404d71954eb37049f324eff8efb": {
                            "nonce": "0x01",
                            "balance": "0x01",
                            "code": "0x3a600055",
                            "storage": {
                                "0x00": "0x09"
                            }
                        },
                        "0x2adc25665018aa1fe0e6bc666dac8fc2697ff9ba": {
                            "nonce": "0x00",
                            "balance": "0x0150c2",
                            "code": "0x",
                            "storage": {}
                        }
                    }
                }
            ]
        },
        "config": {
            "blobSchedule": {
                "Cancun": {
                    "target": "0x03",
                    "max": "0x06",
                    "baseFeeUpdateFraction": "0x32f0ed"
                },
                "Prague": {
                    "target": "0x06",
                    "max": "0x09",
                    "baseFeeUpdateFraction": "0x4c6964"
                }
            },
            "chainid": "0x01"
        },
        "_info": {
            "hash": "0xa3427c2e88137bad2cb05a862f98af6b3a369a44f7d95bf60a1c3060ca7976b5",
            "comment": "`execution-specs` generated test",
            "filling-transition-tool": "2.18.0rc6",
            "description": "Test GASPRICE opcode to sanity check that the blob gas fee does not affect\n    its calculation.\n\n    - No priority fee\n    - Priority fee below data fee\n    - Priority fee above data fee",
            "url": "https://github.com/ethereum/execution-specs/blob/tests-v5.4.0/tests/cancun/eip4844_blobs/test_blob_txs.py#L1365",
            "fixture-format": "state_test",
            "reference-spec": "https://github.com/ethereum/EIPs/blob/master/EIPS/eip-4844.md",
            "reference-spec-version": "de2e4a46ad93fc04e6fe3174dc6e90a3307bdb5f"
        }
    }
}