{
    "tests/cancun/eip4844_blobs/test_blob_txs.py::test_invalid_tx_blob_count[fork_Cancun-too_few_blobs-state_test]": {
        "env": {
            "currentCoinbase": "0x2adc25665018aa1fe0e6bc666dac8fc2697ff9ba",
            "currentGasLimit": "0x07270e00",
            "currentNumber": "0x01",
            "currentTimestamp": "0x03e8",
            "currentRandom": "0x0000000000000000000000000000000000000000000000000000000000000000",
            "currentDifficulty": "0x00",
            "currentBaseFee": "0x07",
            "currentExcessBlobGas": "0x0e0000"
        },
        "pre": {
            "0x20328188478d007e3806cc5bf07d8a458820b843": {
                "nonce": "0x00",
                "balance": "0x023e39",
                "code": "0x",
                "storage": {}
            }
        },
        "transaction": {
            "nonce": "0x00",
            "maxPriorityFeePerGas": "0x00",
            "maxFeePerGas": "0x07",
            "gasLimit": [
                "0x5208"
            ],
            "to": "0x59e4a5cbe97bf55c9435cd1556c095e2324a540b",
            "value": [
                "0x01"
            ],
            "data": [
                "0x"
            ],
            "accessLists": [
                []
            ],
            "maxFeePerBlobGas": "0x01",
            "blobVersionedHashes": [],
            "sender": "0x20328188478d007e3806cc5bf07d8a458820b843",
            "secretKey": "0x41891d5739499e581df3ca423145907e8b83f46d2920e381e3ce9759b176ca63"
        },
        "post": {
            "Cancun": [
                {
                    "hash": "0xd7f8227e9da3ec6cb71672dda76cc21d8e5c09a82822d82c8e6c02d031605e6d",
                    "logs": "0x1dcc4de8dec75d7aab85b567b6ccd41ad312451b948a7413f0a142fd40d49347",
                    "txbytes": "0x03f864018080078252089459e4a5cbe97bf55c9435cd1556c095e2324a540b0180c001c080a0593fee2bfe30b1ef13080f30e98ba62fe819f7cf54721d445728ddd2ae5d7c04a0677c1f56b90b39255f6ae7ebc778de497e9cea239b24f90348851dd90c93f0ba",
                    "indexes": {
                        "data": 0,
                        "gas": 0,
                        "value": 0
                    },
                    "state": {
                        "0x20328188478d007e3806cc5bf07d8a458820b843": {
                            "nonce": "0x00",
                            "balance": "0x023e39",
                            "code": "0x",
                            "storage": {}
                        }
                    },
                    "expectException": "TransactionException.TYPE_3_TX_ZERO_BLOBS"
                }
            ]
        },
        "config": {
            "blobSchedule": {
                "Cancun": {
                    "target": "0x03",
                    "max": "0x06",
                    "baseFeeUpdateFraction": "0x32f0ed"
                }
            },
            "chainid": "0x01"
        },
        "_info": {
            "hash": "0x9d2eba468ba49c1918dd73819c349ad8b7f49d36d850fcb796f4238725461661",
            "comment": "`execution-specs` generated test",
            "filling-transition-tool": "2.18.0rc6",
            "description": "Reject blocks that include blob transactions with invalid blob counts.\n\n    - `blob count == 0` in type 3 transaction\n    - `blob count > MAX_BLOBS_PER_BLOCK` in type 3 transaction",
            "url": "https://github.com/ethereum/execution-specs/blob/tests-v5.4.0/tests/cancun/eip4844_blobs/test_blob_txs.py#L931",
            "fixture-format": "state_test",
            "reference-spec": "https://github.com/ethereum/EIPs/blob/master/EIPS/eip-4844.md",
            "reference-spec-version": "de2e4a46ad93fc04e6fe3174dc6e90a3307bdb5f"
        }
    },
    "tests/cancun/eip4844_blobs/test_blob_txs.py::test_invalid_tx_blob_count[fork_Cancun-too_many_blobs-state_test]": {
        "env": {
            "currentCoinbase": "0x2adc25665018aa1fe0e6bc666dac8fc2697ff9ba",
            "currentGasLimit": "0x07270e00",
            "currentNumber": "0x01",
            "currentTimestamp": "0x03e8",
            "currentRandom": "0x0000000000000000000000000000000000000000000000000000000000000000",
            "currentDifficulty": "0x00",
            "currentBaseFee": "0x07",
            "currentExcessBlobGas": "0x0e0000"
        },
        "pre": {
            "0x3a55222c26d5ca125dc88252bf76f197983c7936": {
                "nonce": "0x00",
                "balance": "0x103e39",
                "code": "0x",
                "storage": {}
            }
        },
        "transaction": {
            "nonce": "0x00",
            "maxPriorityFeePerGas": "0x00",
            "maxFeePerGas": "0x07",
            "gasLimit": [
                "0x5208"
            ],
            "to": "0xff7a001e6635bac2c1107640c2ebef092a5f89d5",
            "value": [
                "0x01"
            ],
            "data": [
                "0x"
            ],
            "accessLists": [
                []
            ],
            "maxFeePerBlobGas": "0x01",
            "blobVersionedHashes": [
                "0x0100000000000000000000000000000000000000000000000000000000000000",
                "0x0100000000000000000000000000000000000000000000000000000000000001",
                "0x0100000000000000000000000000000000000000000000000000000000000002",
                "0x0100000000000000000000000000000000000000000000000000000000000003",
                "0x0100000000000000000000000000000000000000000000000000000000000004",
                "0x0100000000000000000000000000000000000000000000000000000000000005",
                "0x0100000000000000000000000000000000000000000000000000000000000006"
            ],
            "sender": "0x3a55222c26d5ca125dc88252bf76f197983c7936",
            "secretKey": "0x2c24c177e38bab401758dd8bbd220ad92059d0a9b678ce866f77be9a8b169547"
        },
        "post": {
            "Cancun": [
                {
                    "hash": "0xdf6e2f04d5b238c186c88a70c6e6cf58b3ccbe4d2c632ea786d1881912218c43",
                    "logs": "0x1dcc4de8dec75d7aab85b567b6ccd41ad312451b948a7413f0a142fd40d49347",
                    "txbytes": "0x03f9014c0180800782520894ff7a001e6635bac2c1107640c2ebef092a5f89d50180c001f8e7a00100000000000000000000000000000000000000000000000000000000000000a00100000000000000000000000000000000000000000000000000000000000001a00100000000000000000000000000000000000000000000000000000000000002a00100000000000000000000000000000000000000000000000000000000000003a00100000000000000000000000000000000000000000000000000000000000004a00100000000000000000000000000000000000000000000000000000000000005a0010000000000000000000000000000000000000000000000000000000000000601a00d5eecd33ee7dfaf13e4aeafebb2bdf8439260f5626998e3e02770fe11b0ea7ca02eb1bd78a50f0961611e810afa2e25dbbb4b6cd9028a9ee4a36440bd243534b8",
                    "indexes": {
                        "data": 0,
                        "gas": 0,
                        "value": 0
                    },
                    "state": {
                        "0x3a55222c26d5ca125dc88252bf76f197983c7936": {
                            "nonce": "0x00",
                            "balance": "0x103e39",
                            "code": "0x",
                            "storage": {}
                        }
                    },
                    "expectException": "TransactionException.TYPE_3_TX_MAX_BLOB_GAS_ALLOWANCE_EXCEEDED|TransactionException.TYPE_3_TX_BLOB_COUNT_EXCEEDED"
                }
            ]
        },
        "config": {
            "blobSchedule": {
                "Cancun": {
                    "target": "0x03",
                    "max": "0x06",
                    "baseFeeUpdateFraction": "0x32f0ed"
                }
            },
            "chainid": "0x01"
        },
        "_info": {
            "hash": "0x21ead937fb3d0b1667791418c832bc9cd6346d48ab01797b2df1c5894e900bd7",
            "comment": "`execution-specs` generated test",
            "filling-transition-tool": "2.18.0rc6",
            "description": "Reject blocks that include blob transactions with invalid blob counts.\n\n    - `blob count == 0` in type 3 transaction\n    - `blob count > MAX_BLOBS_PER_BLOCK` in type 3 transaction",
            "url": "https://github.com/ethereum/execution-specs/blob/tests-v5.4.0/tests/cancun/eip4844_blobs/test_blob_txs.py#L931",
            "fixture-format": "state_test",
            "reference-spec": "https://github.com/ethereum/EIPs/blob/master/EIPS/eip-4844.md",
            "reference-spec-version": "de2e4a46ad93fc04e6fe3174dc6e90a3307bdb5f"
        }
    },
    "tests/cancun/eip4844_blobs/test_blob_txs.py::test_invalid_tx_blob_count[fork_Prague-too_few_blobs-state_test]": {
        "env": {
            "currentCoinbase": "0x2adc25665018aa1fe0e6bc666dac8fc2697ff9ba",
            "currentGasLimit": "0x07270e00",
            "currentNumber": "0x01",
            "currentTimestamp": "0x03e8",
            "currentRandom": "0x0000000000000000000000000000000000000000000000000000000000000000",
            "currentDifficulty": "0x00",
            "currentBaseFee": "0x07",
            "currentExcessBlobGas": "0x080000"
        },
        "pre": {
            "0x20328188478d007e3806cc5bf07d8a458820b843": {
                "nonce": "0x00",
                "balance": "0x023e39",
                "code": "0x",
                "storage": {}
            }
        },
        "transaction": {
            "nonce": "0x00",
            "maxPriorityFeePerGas": "0x00",
            "maxFeePerGas": "0x07",
            "gasLimit": [
                "0x5208"
            ],
            "to": "0x59e4a5cbe97bf55c9435cd1556c095e2324a540b",
            "value": [
                "0x01"
            ],
            "data": [
                "0x"
            ],
            "accessLists": [
                []
            ],
            "maxFeePerBlobGas": "0x01",
            "blobVersionedHashes": [],
            "sender": "0x20328188478d007e3806cc5bf07d8a458820b843",
            "secretKey": "0x41891d5739499e581df3ca423145907e8b83f46d2920e381e3ce9759b176ca63"
        },
        "post": {
            "Prague": [
                {
                    "hash": "0xd7f8227e9da3ec6cb71672dda76cc21d8e5c09a82822d82c8e6c02d031605e6d",
                    "logs": "0x1dcc4de8dec75d7aab85b567b6ccd41ad312451b948a7413f0a142fd40d49347",
                    "txbytes": "0x03f864018080078252089459e4a5cbe97bf55c9435cd1556c095e2324a540b0180c001c080a0593fee2bfe30b1ef13080f30e98ba62fe819f7cf54721d445728ddd2ae5d7c04a0677c1f56b90b39255f6ae7ebc778de497e9cea239b24f90348851dd90c93f0ba",
                    "indexes": {
                        "data": 0,
                        "gas": 0,
                        "value": 0
                    },
                    "state": {
                        "0x20328188478d007e3806cc5bf07d8a458820b843": {
                            "nonce": "0x00",
                            "balance": "0x023e39",
                            "code": "0x",
                            "storage": {}
                        }
                    },
                    "expectException": "TransactionException.TYPE_3_TX_ZERO_BLOBS"
                }
            ]
        },
        "config": {
            "blobSchedule": {
                "Cancun": {
                    "target": "0x03",
                    "max": "0x06",
                    "baseFeeUpdateFraction": "0x32f0ed"
                },
                "Prague": {
                    "target": "0x06",
                    "max": "0x09",
                    "baseFeeUpdateFraction": "0x4c6964"
                }
            },
            "chainid": "0x01"
        },
        "_info": {
            "hash": "0xfc1479b03f19166628aa8725620e69a04dd779421da4e5687cd2e7011a5b301e",
            "comment": "`execution-specs` generated test",
            "filling-transition-tool": "2.18.0rc6",
            "description": "Reject blocks that include blob transactions with invalid blob counts.\n\n    - `blob count == 0` in type 3 transaction\n    - `blob count > MAX_BLOBS_PER_BLOCK` in type 3 transaction",
            "url": "https://github.com/ethereum/execution-specs/blob/tests-v5.4.0/tests/cancun/eip4844_blobs/test_blob_txs.py#L931",
            "fixture-format": "state_test",
            "reference-spec": "https://github.com/ethereum/EIPs/blob/master/EIPS/eip-4844.md",
            "reference-spec-version": "de2e4a46ad93fc04e6fe3174dc6e90a3307bdb5f"
        }
    },
    "tests/cancun/eip4844_blobs/test_blob_txs.py::test_invalid_tx_blob_count[fork_Prague-too_many_blobs-state_test]": {
        "env": {
            "currentCoinbase": "0x2adc25665018aa1fe0e6bc666dac8fc2697ff9ba",
            "currentGasLimit": "0x07270e00",
            "currentNumber": "0x01",
            "currentTimestamp": "0x03e8",
            "currentRandom": "0x0000000000000000000000000000000000000000000000000000000000000000",
            "currentDifficulty": "0x00",
            "currentBaseFee": "0x07",
            "currentExcessBlobGas": "0x080000"
        },
        "pre": {
            "0x3a55222c26d5ca125dc88252bf76f197983c7936": {
                "nonce": "0x00",
                "balance": "0x163e39",
                "code": "0x",
                "storage": {}
            }
        },
        "transaction": {
            "nonce": "0x00",
            "maxPriorityFeePerGas": "0x00",
            "maxFeePerGas": "0x07",
            "gasLimit": [
                "0x5208"
            ],
            "to": "0xff7a001e6635bac2c1107640c2ebef092a5f89d5",
            "value": [
                "0x01"
            ],
            "data": [
                "0x"
            ],
            "accessLists": [
                []
            ],
            "maxFeePerBlobGas": "0x01",
            "blobVersionedHashes": [
                "0x0100000000000000000000000000000000000000000000000000000000000000",
                "0x0100000000000000000000000000000000000000000000000000000000000001",
                "0x0100000000000000000000000000000000000000000000000000000000000002",
                "0x0100000000000000000000000000000000000000000000000000000000000003",
                "0x0100000000000000000000000000000000000000000000000000000000000004",
                "0x0100000000000000000000000000000000000000000000000000000000000005",
                "0x0100000000000000000000000000000000000000000000000000000000000006",
                "0x0100000000000000000000000000000000000000000000000000000000000007",
                "0x0100000000000000000000000000000000000000000000000000000000000008",
                "0x0100000000000000000000000000000000000000000000000000000000000009"
            ],
            "sender": "0x3a55222c26d5ca125dc88252bf76f197983c7936",
            "secretKey": "0x2c24c177e38bab401758dd8bbd220ad92059d0a9b678ce866f77be9a8b169547"
        },
        "post": {
            "Prague": [
                {
                    "hash": "0x0d7e209c642f5e75054b4dc1f6eb30b3bd4e928e8a3a92cfb3252d2015100303",
                    "logs": "0x1dcc4de8dec75d7aab85b567b6ccd41ad312451b948a7413f0a142fd40d49347",
                    "txbytes": "0x03f901b00180800782520894ff7a001e6635bac2c1107640c2ebef092a5f89d50180c001f9014aa00100000000000000000000000000000000000000000000000000000000000000a00100000000000000000000000000000000000000000000000000000000000001a00100000000000000000000000000000000000000000000000000000000000002a00100000000000000000000000000000000000000000000000000000000000003a00100000000000000000000000000000000000000000000000000000000000004a00100000000000000000000000000000000000000000000000000000000000005a00100000000000000000000000000000000000000000000000000000000000006a00100000000000000000000000000000000000000000000000000000000000007a00100000000000000000000000000000000000000000000000000000000000008a0010000000000000000000000000000000000000000000000000000000000000901a035c126a4c097992e7e3502d08abce21acf69e49ed1e797c8b794a09e063f6823a06fe03875d78c397d17fabae8fc9774d73e224fe35ee202ead5ef41658a36e69e",
                    "indexes": {
                        "data": 0,
                        "gas": 0,
                        "value": 0
                    },
                    "state": {
                        "0x3a55222c26d5ca125dc88252bf76f197983c7936": {
                            "nonce": "0x00",
                            "balance": "0x163e39",
                            "code": "0x",
                            "storage": {}
                        }
                    },
                    "expectException": "TransactionException.TYPE_3_TX_MAX_BLOB_GAS_ALLOWANCE_EXCEEDED|TransactionException.TYPE_3_TX_BLOB_COUNT_EXCEEDED"
                }
            ]
        },
        "config": {
            "blobSchedule": {
                "Cancun": {
                    "target": "0x03",
                    "max": "0x06",
                    "baseFeeUpdateFraction": "0x32f0ed"
                },
                "Prague": {
                    "target": "0x06",
                    "max": "0x09",
                    "baseFeeUpdateFraction": "0x4c6964"
                }
            },
            "chainid": "0x01"
        },
        "_info": {
            "hash": "0x5b98b9ec13e66b6a1d9f14ca1dedb6b402f64d99bdf8f71f757b3441a7660ee8",
            "comment": "`execution-specs` generated test",
            "filling-transition-tool": "2.18.0rc6",
            "description": "Reject blocks that include blob transactions with invalid blob counts.\n\n    - `blob count == 0` in type 3 transaction\n    - `blob count > MAX_BLOBS_PER_BLOCK` in type 3 transaction",
            "url": "https://github.com/ethereum/execution-specs/blob/tests-v5.4.0/tests/cancun/eip4844_blobs/test_blob_txs.py#L931",
            "fixture-format": "state_test",
            "reference-spec": "https://github.com/ethereum/EIPs/blob/master/EIPS/eip-4844.md",
            "reference-spec-version": "de2e4a46ad93fc04e6fe3174dc6e90a3307bdb5f"
        }
    }
}