{
    "tests/london/eip1559_fee_market_change/test_tx_type.py::test_eip1559_tx_validity[fork_Berlin-invalid-state_test]": {
        "env": {
            "currentCoinbase": "0x2adc25665018aa1fe0e6bc666dac8fc2697ff9ba",
            "currentGasLimit": "0x07270e00",
            "currentNumber": "0x01",
            "currentTimestamp": "0x03e8",
            "currentDifficulty": "0x020000"
        },
        "pre": {
            "0xb8ad52861e26394fcf0dc9af11dc8a0d6d47641d": {
                "nonce": "0x01",
                "balance": "0x00",
                "code": "0x6001600055",
                "storage": {
                    "0x00": "0xdeadbeef"
                }
            },
            "0x21c193fff59c78ca3d27db3a50b9db12bd2cc2c8": {
                "nonce": "0x00",
                "balance": "0x3635c9adc5dea00000",
                "code": "0x",
                "storage": {}
            }
        },
        "transaction": {
            "nonce": "0x00",
            "maxPriorityFeePerGas": "0x01",
            "maxFeePerGas": "0x07",
            "gasLimit": [
                "0x0186a0"
            ],
            "to": "0xb8ad52861e26394fcf0dc9af11dc8a0d6d47641d",
            "value": [
                "0x00"
            ],
            "data": [
                "0x"
            ],
            "accessLists": [
                []
            ],
            "sender": "0x21c193fff59c78ca3d27db3a50b9db12bd2cc2c8",
            "secretKey": "0xb2af85765ac20260e5c5049eb8ad52861e26394fcf0dc9af11dc8a0d6d47641d"
        },
        "post": {
            "Berlin": [
                {
                    "hash": "0x8604aacb277f3b06cb72c019eb03d481c91d1ecd58adb23adb18a5e1d2a520f3",
                    "logs": "0x1dcc4de8dec75d7aab85b567b6ccd41ad312451b948a7413f0a142fd40d49347",
                    "txbytes": "0x02f86301800107830186a094b8ad52861e26394fcf0dc9af11dc8a0d6d47641d8080c080a01b5a5b77ded7a1c56e338dd2c2fb70c2e22587c0841b97df1f23883d93735449a06f2f2b7ddb7b17f6c12bb62b6a35569d327aa4d42b1ee6a606055621165c0acd",
                    "indexes": {
                        "data": 0,
                        "gas": 0,
                        "value": 0
                    },
                    "state": {
                        "0xb8ad52861e26394fcf0dc9af11dc8a0d6d47641d": {
                            "nonce": "0x01",
                            "balance": "0x00",
                            "code": "0x6001600055",
                            "storage": {
                                "0x00": "0xdeadbeef"
                            }
                        },
                        "0x21c193fff59c78ca3d27db3a50b9db12bd2cc2c8": {
                            "nonce": "0x00",
                            "balance": "0x3635c9adc5dea00000",
                            "code": "0x",
                            "storage": {}
                        }
                    },
                    "expectException": "TransactionException.TYPE_2_TX_PRE_FORK"
                }
            ]
        },
        "config": {
            "chainid": "0x01"
        },
        "_info": {
            "hash": "0xaff1e14c51eadba9cf45abb43a9eda64fccf342a78217bf33133c319a0760dbf",
            "comment": "`execution-specs` generated test",
            "filling-transition-tool": "2.18.0rc6",
            "description": "Tests that an EIP-1559 tx has no effect before London.",
            "url": "https://github.com/ethereum/execution-specs/blob/tests-v5.4.0/tests/london/eip1559_fee_market_change/test_tx_type.py#L38",
            "fixture-format": "state_test",
            "reference-spec": "https://github.com/ethereum/EIPs/blob/master/EIPS/eip-1559.md",
            "reference-spec-version": "ba6c342c23164072adb500c3136e3ae6eabff306"
        }
    },
    "tests/london/eip1559_fee_market_change/test_tx_type.py::test_eip1559_tx_validity[fork_Byzantium-invalid-state_test]": {
        "env": {
            "currentCoinbase": "0x2adc25665018aa1fe0e6bc666dac8fc2697ff9ba",
            "currentGasLimit": "0x07270e00",
            "currentNumber": "0x01",
            "currentTimestamp": "0x03e8",
            "currentDifficulty": "0x020000"
        },
        "pre": {
            "0xb8ad52861e26394fcf0dc9af11dc8a0d6d47641d": {
                "nonce": "0x01",
                "balance": "0x00",
                "code": "0x6001600055",
                "storage": {
                    "0x00": "0xdeadbeef"
                }
            },
            "0x21c193fff59c78ca3d27db3a50b9db12bd2cc2c8": {
                "nonce": "0x00",
                "balance": "0x3635c9adc5dea00000",
                "code": "0x",
                "storage": {}
            }
        },
        "transaction": {
            "nonce": "0x00",
            "maxPriorityFeePerGas": "0x01",
            "maxFeePerGas": "0x07",
            "gasLimit": [
                "0x0186a0"
            ],
            "to": "0xb8ad52861e26394fcf0dc9af11dc8a0d6d47641d",
            "value": [
                "0x00"
            ],
            "data": [
                "0x"
            ],
            "accessLists": [
                []
            ],
            "sender": "0x21c193fff59c78ca3d27db3a50b9db12bd2cc2c8",
            "secretKey": "0xb2af85765ac20260e5c5049eb8ad52861e26394fcf0dc9af11dc8a0d6d47641d"
        },
        "post": {
            "Byzantium": [
                {
                    "hash": "0x8604aacb277f3b06cb72c019eb03d481c91d1ecd58adb23adb18a5e1d2a520f3",
                    "logs": "0x1dcc4de8dec75d7aab85b567b6ccd41ad312451b948a7413f0a142fd40d49347",
                    "txbytes": "0x02f86301800107830186a094b8ad52861e26394fcf0dc9af11dc8a0d6d47641d8080c080a01b5a5b77ded7a1c56e338dd2c2fb70c2e22587c0841b97df1f23883d93735449a06f2f2b7ddb7b17f6c12bb62b6a35569d327aa4d42b1ee6a606055621165c0acd",
                    "indexes": {
                        "data": 0,
                        "gas": 0,
                        "value": 0
                    },
                    "state": {
                        "0xb8ad52861e26394fcf0dc9af11dc8a0d6d47641d": {
                            "nonce": "0x01",
                            "balance": "0x00",
                            "code": "0x6001600055",
                            "storage": {
                                "0x00": "0xdeadbeef"
                            }
                        },
                        "0x21c193fff59c78ca3d27db3a50b9db12bd2cc2c8": {
                            "nonce": "0x00",
                            "balance": "0x3635c9adc5dea00000",
                            "code": "0x",
                            "storage": {}
                        }
                    },
                    "expectException": "TransactionException.TYPE_2_TX_PRE_FORK"
                }
            ]
        },
        "config": {
            "chainid": "0x01"
        },
        "_info": {
            "hash": "0x991d15e8972b9ec911a96ae0bb37db354710d18e192120532023c4db40366b5f",
            "comment": "`execution-specs` generated test",
            "filling-transition-tool": "2.18.0rc6",
            "description": "Tests that an EIP-1559 tx has no effect before London.",
            "url": "https://github.com/ethereum/execution-specs/blob/tests-v5.4.0/tests/london/eip1559_fee_market_change/test_tx_type.py#L38",
            "fixture-format": "state_test",
            "reference-spec": "https://github.com/ethereum/EIPs/blob/master/EIPS/eip-1559.md",
            "reference-spec-version": "ba6c342c23164072adb500c3136e3ae6eabff306"
        }
    },
    "tests/london/eip1559_fee_market_change/test_tx_type.py::test_eip1559_tx_validity[fork_Cancun-valid-state_test]": {
        "env": {
            "currentCoinbase": "0x2adc25665018aa1fe0e6bc666dac8fc2697ff9ba",
            "currentGasLimit": "0x07270e00",
            "currentNumber": "0x01",
            "currentTimestamp": "0x03e8",
            "currentRandom": "0x0000000000000000000000000000000000000000000000000000000000000000",
            "currentDifficulty": "0x00",
            "currentBaseFee": "0x07",
            "currentExcessBlobGas": "0x00"
        },
        "pre": {
            "0xef5d8525b90f834e9b84a59351846383049035d4": {
                "nonce": "0x01",
                "balance": "0x00",
                "code": "0x6001600055",
                "storage": {
                    "0x00": "0xdeadbeef"
                }
            },
            "0xdf2207ace5b8d892315d3e572bc5bfbe450a36d5": {
                "nonce": "0x00",
                "balance": "0x3635c9adc5dea00000",
                "code": "0x",
                "storage": {}
            }
        },
        "transaction": {
            "nonce": "0x00",
            "maxPriorityFeePerGas": "0x01",
            "maxFeePerGas": "0x07",
            "gasLimit": [
                "0x0186a0"
            ],
            "to": "0xef5d8525b90f834e9b84a59351846383049035d4",
            "value": [
                "0x00"
            ],
            "data": [
                "0x"
            ],
            "accessLists": [
                []
            ],
            "sender": "0xdf2207ace5b8d892315d3e572bc5bfbe450a36d5",
            "secretKey": "0x083c037d761626d18a8aadceef5d8525b90f834e9b84a59351846383049035d4"
        },
        "post": {
            "Cancun": [
                {
                    "hash": "0x7dae1b4f58d399b70a9c201283c4fb94c0382c995a21bfea2ec6d66714e6bf57",
                    "logs": "0x1dcc4de8dec75d7aab85b567b6ccd41ad312451b948a7413f0a142fd40d49347",
                    "txbytes": "0x02f86301800107830186a094ef5d8525b90f834e9b84a59351846383049035d48080c080a050b0296997589bfd424b094c3c7f39a89f518699fbe6f13c4d511ee5abe97438a06c7e63ab4d87efe9548c65d9c87fb64ac316f0d0e6bc29b3e230e479d9a653f1",
                    "indexes": {
                        "data": 0,
                        "gas": 0,
                        "value": 0
                    },
                    "state": {
                        "0xef5d8525b90f834e9b84a59351846383049035d4": {
                            "nonce": "0x01",
                            "balance": "0x00",
                            "code": "0x6001600055",
                            "storage": {
                                "0x00": "0x01"
                            }
                        },
                        "0xdf2207ace5b8d892315d3e572bc5bfbe450a36d5": {
                            "nonce": "0x01",
                            "balance": "0x3635c9adc5de9d38e6",
                            "code": "0x",
                            "storage": {}
                        }
                    }
                }
            ]
        },
        "config": {
            "blobSchedule": {
                "Cancun": {
                    "target": "0x03",
                    "max": "0x06",
                    "baseFeeUpdateFraction": "0x32f0ed"
                }
            },
            "chainid": "0x01"
        },
        "_info": {
            "hash": "0x5ca6c4abe5f99fafb1f63a30c082f82e2bd5c32169969f1c50e648e782eb3a09",
            "comment": "`execution-specs` generated test",
            "filling-transition-tool": "2.18.0rc6",
            "description": "Tests that an EIP-1559 tx has no effect before London.",
            "url": "https://github.com/ethereum/execution-specs/blob/tests-v5.4.0/tests/london/eip1559_fee_market_change/test_tx_type.py#L38",
            "fixture-format": "state_test",
            "reference-spec": "https://github.com/ethereum/EIPs/blob/master/EIPS/eip-1559.md",
            "reference-spec-version": "ba6c342c23164072adb500c3136e3ae6eabff306"
        }
    },
    "tests/london/eip1559_fee_market_change/test_tx_type.py::test_eip1559_tx_validity[fork_ConstantinopleFix-invalid-state_test]": {
        "env": {
            "currentCoinbase": "0x2adc25665018aa1fe0e6bc666dac8fc2697ff9ba",
            "currentGasLimit": "0x07270e00",
            "currentNumber": "0x01",
            "currentTimestamp": "0x03e8",
            "currentDifficulty": "0x020000"
        },
        "pre": {
            "0xb8ad52861e26394fcf0dc9af11dc8a0d6d47641d": {
                "nonce": "0x01",
                "balance": "0x00",
                "code": "0x6001600055",
                "storage": {
                    "0x00": "0xdeadbeef"
                }
            },
            "0x21c193fff59c78ca3d27db3a50b9db12bd2cc2c8": {
                "nonce": "0x00",
                "balance": "0x3635c9adc5dea00000",
                "code": "0x",
                "storage": {}
            }
        },
        "transaction": {
            "nonce": "0x00",
            "maxPriorityFeePerGas": "0x01",
            "maxFeePerGas": "0x07",
            "gasLimit": [
                "0x0186a0"
            ],
            "to": "0xb8ad52861e26394fcf0dc9af11dc8a0d6d47641d",
            "value": [
                "0x00"
            ],
            "data": [
                "0x"
            ],
            "accessLists": [
                []
            ],
            "sender": "0x21c193fff59c78ca3d27db3a50b9db12bd2cc2c8",
            "secretKey": "0xb2af85765ac20260e5c5049eb8ad52861e26394fcf0dc9af11dc8a0d6d47641d"
        },
        "post": {
            "ConstantinopleFix": [
                {
                    "hash": "0x8604aacb277f3b06cb72c019eb03d481c91d1ecd58adb23adb18a5e1d2a520f3",
                    "logs": "0x1dcc4de8dec75d7aab85b567b6ccd41ad312451b948a7413f0a142fd40d49347",
                    "txbytes": "0x02f86301800107830186a094b8ad52861e26394fcf0dc9af11dc8a0d6d47641d8080c080a01b5a5b77ded7a1c56e338dd2c2fb70c2e22587c0841b97df1f23883d93735449a06f2f2b7ddb7b17f6c12bb62b6a35569d327aa4d42b1ee6a606055621165c0acd",
                    "indexes": {
                        "data": 0,
                        "gas": 0,
                        "value": 0
                    },
                    "state": {
                        "0xb8ad52861e26394fcf0dc9af11dc8a0d6d47641d": {
                            "nonce": "0x01",
                            "balance": "0x00",
                            "code": "0x6001600055",
                            "storage": {
                                "0x00": "0xdeadbeef"
                            }
                        },
                        "0x21c193fff59c78ca3d27db3a50b9db12bd2cc2c8": {
                            "nonce": "0x00",
                            "balance": "0x3635c9adc5dea00000",
                            "code": "0x",
                            "storage": {}
                        }
                    },
                    "expectException": "TransactionException.TYPE_2_TX_PRE_FORK"
                }
            ]
        },
        "config": {
            "chainid": "0x01"
        },
        "_info": {
            "hash": "0x64727ef0b9c95c13ab79809b44ee397fb484ef36525944a78d06a88b7b4ae55f",
            "comment": "`execution-specs` generated test",
            "filling-transition-tool": "2.18.0rc6",
            "description": "Tests that an EIP-1559 tx has no effect before London.",
            "url": "https://github.com/ethereum/execution-specs/blob/tests-v5.4.0/tests/london/eip1559_fee_market_change/test_tx_type.py#L38",
            "fixture-format": "state_test",
            "reference-spec": "https://github.com/ethereum/EIPs/blob/master/EIPS/eip-1559.md",
            "reference-spec-version": "ba6c342c23164072adb500c3136e3ae6eabff306"
        }
    },
    "tests/london/eip1559_fee_market_change/test_tx_type.py::test_eip1559_tx_validity[fork_Frontier-invalid-state_test]": {
        "env": {
            "currentCoinbase": "0x2adc25665018aa1fe0e6bc666dac8fc2697ff9ba",
            "currentGasLimit": "0x07270e00",
            "currentNumber": "0x01",
            "currentTimestamp": "0x03e8",
            "currentDifficulty": "0x020000"
        },
        "pre": {
            "0xb8ad52861e26394fcf0dc9af11dc8a0d6d47641d": {
                "nonce": "0x01",
                "balance": "0x00",
                "code": "0x6001600055",
                "storage": {
                    "0x00": "0xdeadbeef"
                }
            },
            "0x21c193fff59c78ca3d27db3a50b9db12bd2cc2c8": {
                "nonce": "0x00",
                "balance": "0x3635c9adc5dea00000",
                "code": "0x",
                "storage": {}
            }
        },
        "transaction": {
            "nonce": "0x00",
            "maxPriorityFeePerGas": "0x01",
            "maxFeePerGas": "0x07",
            "gasLimit": [
                "0x0186a0"
            ],
            "to": "0xb8ad52861e26394fcf0dc9af11dc8a0d6d47641d",
            "value": [
                "0x00"
            ],
            "data": [
                "0x"
            ],
            "accessLists": [
                []
            ],
            "sender": "0x21c193fff59c78ca3d27db3a50b9db12bd2cc2c8",
            "secretKey": "0xb2af85765ac20260e5c5049eb8ad52861e26394fcf0dc9af11dc8a0d6d47641d"
        },
        "post": {
            "Frontier": [
                {
                    "hash": "0x8604aacb277f3b06cb72c019eb03d481c91d1ecd58adb23adb18a5e1d2a520f3",
                    "logs": "0x1dcc4de8dec75d7aab85b567b6ccd41ad312451b948a7413f0a142fd40d49347",
                    "txbytes": "0x02f86301800107830186a094b8ad52861e26394fcf0dc9af11dc8a0d6d47641d8080c080a01b5a5b77ded7a1c56e338dd2c2fb70c2e22587c0841b97df1f23883d93735449a06f2f2b7ddb7b17f6c12bb62b6a35569d327aa4d42b1ee6a606055621165c0acd",
                    "indexes": {
                        "data": 0,
                        "gas": 0,
                        "value": 0
                    },
                    "state": {
                        "0xb8ad52861e26394fcf0dc9af11dc8a0d6d47641d": {
                            "nonce": "0x01",
                            "balance": "0x00",
                            "code": "0x6001600055",
                            "storage": {
                                "0x00": "0xdeadbeef"
                            }
                        },
                        "0x21c193fff59c78ca3d27db3a50b9db12bd2cc2c8": {
                            "nonce": "0x00",
                            "balance": "0x3635c9adc5dea00000",
                            "code": "0x",
                            "storage": {}
                        }
                    },
                    "expectException": "TransactionException.TYPE_2_TX_PRE_FORK"
                }
            ]
        },
        "config": {
            "chainid": "0x01"
        },
        "_info": {
            "hash": "0xcbae284e0b3a7871f66b2be01cb67ab89de6299ef1afc55eabff1a2edcaef04a",
            "comment": "`execution-specs` generated test",
            "filling-transition-tool": "2.18.0rc6",
            "description": "Tests that an EIP-1559 tx has no effect before London.",
            "url": "https://github.com/ethereum/execution-specs/blob/tests-v5.4.0/tests/london/eip1559_fee_market_change/test_tx_type.py#L38",
            "fixture-format": "state_test",
            "reference-spec": "https://github.com/ethereum/EIPs/blob/master/EIPS/eip-1559.md",
            "reference-spec-version": "ba6c342c23164072adb500c3136e3ae6eabff306"
        }
    },
    "tests/london/eip1559_fee_market_change/test_tx_type.py::test_eip1559_tx_validity[fork_Homestead-invalid-state_test]": {
        "env": {
            "currentCoinbase": "0x2adc25665018aa1fe0e6bc666dac8fc2697ff9ba",
            "currentGasLimit": "0x07270e00",
            "currentNumber": "0x01",
            "currentTimestamp": "0x03e8",
            "currentDifficulty": "0x020000"
        },
        "pre": {
            "0xb8ad52861e26394fcf0dc9af11dc8a0d6d47641d": {
                "nonce": "0x01",
                "balance": "0x00",
                "code": "0x6001600055",
                "storage": {
                    "0x00": "0xdeadbeef"
                }
            },
            "0x21c193fff59c78ca3d27db3a50b9db12bd2cc2c8": {
                "nonce": "0x00",
                "balance": "0x3635c9adc5dea00000",
                "code": "0x",
                "storage": {}
            }
        },
        "transaction": {
            "nonce": "0x00",
            "maxPriorityFeePerGas": "0x01",
            "maxFeePerGas": "0x07",
            "gasLimit": [
                "0x0186a0"
            ],
            "to": "0xb8ad52861e26394fcf0dc9af11dc8a0d6d47641d",
            "value": [
                "0x00"
            ],
            "data": [
                "0x"
            ],
            "accessLists": [
                []
            ],
            "sender": "0x21c193fff59c78ca3d27db3a50b9db12bd2cc2c8",
            "secretKey": "0xb2af85765ac20260e5c5049eb8ad52861e26394fcf0dc9af11dc8a0d6d47641d"
        },
        "post": {
            "Homestead": [
                {
                    "hash": "0x8604aacb277f3b06cb72c019eb03d481c91d1ecd58adb23adb18a5e1d2a520f3",
                    "logs": "0x1dcc4de8dec75d7aab85b567b6ccd41ad312451b948a7413f0a142fd40d49347",
                    "txbytes": "0x02f86301800107830186a094b8ad52861e26394fcf0dc9af11dc8a0d6d47641d8080c080a01b5a5b77ded7a1c56e338dd2c2fb70c2e22587c0841b97df1f23883d93735449a06f2f2b7ddb7b17f6c12bb62b6a35569d327aa4d42b1ee6a606055621165c0acd",
                    "indexes": {
                        "data": 0,
                        "gas": 0,
                        "value": 0
                    },
                    "state": {
                        "0xb8ad52861e26394fcf0dc9af11dc8a0d6d47641d": {
                            "nonce": "0x01",
                            "balance": "0x00",
                            "code": "0x6001600055",
                            "storage": {
                                "0x00": "0xdeadbeef"
                            }
                        },
                        "0x21c193fff59c78ca3d27db3a50b9db12bd2cc2c8": {
                            "nonce": "0x00",
                            "balance": "0x3635c9adc5dea00000",
                            "code": "0x",
                            "storage": {}
                        }
                    },
                    "expectException": "TransactionException.TYPE_2_TX_PRE_FORK"
                }
            ]
        },
        "config": {
            "chainid": "0x01"
        },
        "_info": {
            "hash": "0x483e5eb85e6cec7a2fbc9eb5b7744d82faef1a387b3b778807c75f57fba393e9",
            "comment": "`execution-specs` generated test",
            "filling-transition-tool": "2.18.0rc6",
            "description": "Tests that an EIP-1559 tx has no effect before London.",
            "url": "https://github.com/ethereum/execution-specs/blob/tests-v5.4.0/tests/london/eip1559_fee_market_change/test_tx_type.py#L38",
            "fixture-format": "state_test",
            "reference-spec": "https://github.com/ethereum/EIPs/blob/master/EIPS/eip-1559.md",
            "reference-spec-version": "ba6c342c23164072adb500c3136e3ae6eabff306"
        }
    },
    "tests/london/eip1559_fee_market_change/test_tx_type.py::test_eip1559_tx_validity[fork_Istanbul-invalid-state_test]": {
        "env": {
            "currentCoinbase": "0x2adc25665018aa1fe0e6bc666dac8fc2697ff9ba",
            "currentGasLimit": "0x07270e00",
            "currentNumber": "0x01",
            "currentTimestamp": "0x03e8",
            "currentDifficulty": "0x020000"
        },
        "pre": {
            "0xb8ad52861e26394fcf0dc9af11dc8a0d6d47641d": {
                "nonce": "0x01",
                "balance": "0x00",
                "code": "0x6001600055",
                "storage": {
                    "0x00": "0xdeadbeef"
                }
            },
            "0x21c193fff59c78ca3d27db3a50b9db12bd2cc2c8": {
                "nonce": "0x00",
                "balance": "0x3635c9adc5dea00000",
                "code": "0x",
                "storage": {}
            }
        },
        "transaction": {
            "nonce": "0x00",
            "maxPriorityFeePerGas": "0x01",
            "maxFeePerGas": "0x07",
            "gasLimit": [
                "0x0186a0"
            ],
            "to": "0xb8ad52861e26394fcf0dc9af11dc8a0d6d47641d",
            "value": [
                "0x00"
            ],
            "data": [
                "0x"
            ],
            "accessLists": [
                []
            ],
            "sender": "0x21c193fff59c78ca3d27db3a50b9db12bd2cc2c8",
            "secretKey": "0xb2af85765ac20260e5c5049eb8ad52861e26394fcf0dc9af11dc8a0d6d47641d"
        },
        "post": {
            "Istanbul": [
                {
                    "hash": "0x8604aacb277f3b06cb72c019eb03d481c91d1ecd58adb23adb18a5e1d2a520f3",
                    "logs": "0x1dcc4de8dec75d7aab85b567b6ccd41ad312451b948a7413f0a142fd40d49347",
                    "txbytes": "0x02f86301800107830186a094b8ad52861e26394fcf0dc9af11dc8a0d6d47641d8080c080a01b5a5b77ded7a1c56e338dd2c2fb70c2e22587c0841b97df1f23883d93735449a06f2f2b7ddb7b17f6c12bb62b6a35569d327aa4d42b1ee6a606055621165c0acd",
                    "indexes": {
                        "data": 0,
                        "gas": 0,
                        "value": 0
                    },
                    "state": {
                        "0xb8ad52861e26394fcf0dc9af11dc8a0d6d47641d": {
                            "nonce": "0x01",
                            "balance": "0x00",
                            "code": "0x6001600055",
                            "storage": {
                                "0x00": "0xdeadbeef"
                            }
                        },
                        "0x21c193fff59c78ca3d27db3a50b9db12bd2cc2c8": {
                            "nonce": "0x00",
                            "balance": "0x3635c9adc5dea00000",
                            "code": "0x",
                            "storage": {}
                        }
                    },
                    "expectException": "TransactionException.TYPE_2_TX_PRE_FORK"
                }
            ]
        },
        "config": {
            "chainid": "0x01"
        },
        "_info": {
            "hash": "0x73e0a8a2416fb91832678c7df13f8362281eea66803a41f31fcf28368bee0739",
            "comment": "`execution-specs` generated test",
            "filling-transition-tool": "2.18.0rc6",
            "description": "Tests that an EIP-1559 tx has no effect before London.",
            "url": "https://github.com/ethereum/execution-specs/blob/tests-v5.4.0/tests/london/eip1559_fee_market_change/test_tx_type.py#L38",
            "fixture-format": "state_test",
            "reference-spec": "https://github.com/ethereum/EIPs/blob/master/EIPS/eip-1559.md",
            "reference-spec-version": "ba6c342c23164072adb500c3136e3ae6eabff306"
        }
    },
    "tests/london/eip1559_fee_market_change/test_tx_type.py::test_eip1559_tx_validity[fork_London-valid-state_test]": {
        "env": {
            "currentCoinbase": "0x2adc25665018aa1fe0e6bc666dac8fc2697ff9ba",
            "currentGasLimit": "0x07270e00",
            "currentNumber": "0x01",
            "currentTimestamp": "0x03e8",
            "currentDifficulty": "0x020000",
            "currentBaseFee": "0x07"
        },
        "pre": {
            "0xef5d8525b90f834e9b84a59351846383049035d4": {
                "nonce": "0x01",
                "balance": "0x00",
                "code": "0x6001600055",
                "storage": {
                    "0x00": "0xdeadbeef"
                }
            },
            "0xdf2207ace5b8d892315d3e572bc5bfbe450a36d5": {
                "nonce": "0x00",
                "balance": "0x3635c9adc5dea00000",
                "code": "0x",
                "storage": {}
            }
        },
        "transaction": {
            "nonce": "0x00",
            "maxPriorityFeePerGas": "0x01",
            "maxFeePerGas": "0x07",
            "gasLimit": [
                "0x0186a0"
            ],
            "to": "0xef5d8525b90f834e9b84a59351846383049035d4",
            "value": [
                "0x00"
            ],
            "data": [
                "0x"
            ],
            "accessLists": [
                []
            ],
            "sender": "0xdf2207ace5b8d892315d3e572bc5bfbe450a36d5",
            "secretKey": "0x083c037d761626d18a8aadceef5d8525b90f834e9b84a59351846383049035d4"
        },
        "post": {
            "London": [
                {
                    "hash": "0x7dae1b4f58d399b70a9c201283c4fb94c0382c995a21bfea2ec6d66714e6bf57",
                    "logs": "0x1dcc4de8dec75d7aab85b567b6ccd41ad312451b948a7413f0a142fd40d49347",
                    "txbytes": "0x02f86301800107830186a094ef5d8525b90f834e9b84a59351846383049035d48080c080a050b0296997589bfd424b094c3c7f39a89f518699fbe6f13c4d511ee5abe97438a06c7e63ab4d87efe9548c65d9c87fb64ac316f0d0e6bc29b3e230e479d9a653f1",
                    "indexes": {
                        "data": 0,
                        "gas": 0,
                        "value": 0
                    },
                    "state": {
                        "0xef5d8525b90f834e9b84a59351846383049035d4": {
                            "nonce": "0x01",
                            "balance": "0x00",
                            "code": "0x6001600055",
                            "storage": {
                                "0x00": "0x01"
                            }
                        },
                        "0xdf2207ace5b8d892315d3e572bc5bfbe450a36d5": {
                            "nonce": "0x01",
                            "balance": "0x3635c9adc5de9d38e6",
                            "code": "0x",
                            "storage": {}
                        }
                    }
                }
            ]
        },
        "config": {
            "chainid": "0x01"
        },
        "_info": {
            "hash": "0xd71f4e0a55dc5a595a359dcd585298ac677b5dcb50a09a96f92ab24f2a277efd",
            "comment": "`execution-specs` generated test",
            "filling-transition-tool": "2.18.0rc6",
            "description": "Tests that an EIP-1559 tx has no effect before London.",
            "url": "https://github.com/ethereum/execution-specs/blob/tests-v5.4.0/tests/london/eip1559_fee_market_change/test_tx_type.py#L38",
            "fixture-format": "state_test",
            "reference-spec": "https://github.com/ethereum/EIPs/blob/master/EIPS/eip-1559.md",
            "reference-spec-version": "ba6c342c23164072adb500c3136e3ae6eabff306"
        }
    },
    "tests/london/eip1559_fee_market_change/test_tx_type.py::test_eip1559_tx_validity[fork_Paris-valid-state_test]": {
        "env": {
            "currentCoinbase": "0x2adc25665018aa1fe0e6bc666dac8fc2697ff9ba",
            "currentGasLimit": "0x07270e00",
            "currentNumber": "0x01",
            "currentTimestamp": "0x03e8",
            "currentRandom": "0x0000000000000000000000000000000000000000000000000000000000000000",
            "currentDifficulty": "0x00",
            "currentBaseFee": "0x07"
        },
        "pre": {
            "0xef5d8525b90f834e9b84a59351846383049035d4": {
                "nonce": "0x01",
                "balance": "0x00",
                "code": "0x6001600055",
                "storage": {
                    "0x00": "0xdeadbeef"
                }
            },
            "0xdf2207ace5b8d892315d3e572bc5bfbe450a36d5": {
                "nonce": "0x00",
                "balance": "0x3635c9adc5dea00000",
                "code": "0x",
                "storage": {}
            }
        },
        "transaction": {
            "nonce": "0x00",
            "maxPriorityFeePerGas": "0x01",
            "maxFeePerGas": "0x07",
            "gasLimit": [
                "0x0186a0"
            ],
            "to": "0xef5d8525b90f834e9b84a59351846383049035d4",
            "value": [
                "0x00"
            ],
            "data": [
                "0x"
            ],
            "accessLists": [
                []
            ],
            "sender": "0xdf2207ace5b8d892315d3e572bc5bfbe450a36d5",
            "secretKey": "0x083c037d761626d18a8aadceef5d8525b90f834e9b84a59351846383049035d4"
        },
        "post": {
            "Paris": [
                {
                    "hash": "0x7dae1b4f58d399b70a9c201283c4fb94c0382c995a21bfea2ec6d66714e6bf57",
                    "logs": "0x1dcc4de8dec75d7aab85b567b6ccd41ad312451b948a7413f0a142fd40d49347",
                    "txbytes": "0x02f86301800107830186a094ef5d8525b90f834e9b84a59351846383049035d48080c080a050b0296997589bfd424b094c3c7f39a89f518699fbe6f13c4d511ee5abe97438a06c7e63ab4d87efe9548c65d9c87fb64ac316f0d0e6bc29b3e230e479d9a653f1",
                    "indexes": {
                        "data": 0,
                        "gas": 0,
                        "value": 0
                    },
                    "state": {
                        "0xef5d8525b90f834e9b84a59351846383049035d4": {
                            "nonce": "0x01",
                            "balance": "0x00",
                            "code": "0x6001600055",
                            "storage": {
                                "0x00": "0x01"
                            }
                        },
                        "0xdf2207ace5b8d892315d3e572bc5bfbe450a36d5": {
                            "nonce": "0x01",
                            "balance": "0x3635c9adc5de9d38e6",
                            "code": "0x",
                            "storage": {}
                        }
                    }
                }
            ]
        },
        "config": {
            "chainid": "0x01"
        },
        "_info": {
            "hash": "0x7604dd8c06d49f6937be6dcba1e745a7afb2875e53c06538df2f86dc4a3939be",
            "comment": "`execution-specs` generated test",
            "filling-transition-tool": "2.18.0rc6",
            "description": "Tests that an EIP-1559 tx has no effect before London.",
            "url": "https://github.com/ethereum/execution-specs/blob/tests-v5.4.0/tests/london/eip1559_fee_market_change/test_tx_type.py#L38",
            "fixture-format": "state_test",
            "reference-spec": "https://github.com/ethereum/EIPs/blob/master/EIPS/eip-1559.md",
            "reference-spec-version": "ba6c342c23164072adb500c3136e3ae6eabff306"
        }
    },
    "tests/london/eip1559_fee_market_change/test_tx_type.py::test_eip1559_tx_validity[fork_Prague-valid-state_test]": {
        "env": {
            "currentCoinbase": "0x2adc25665018aa1fe0e6bc666dac8fc2697ff9ba",
            "currentGasLimit": "0x07270e00",
            "currentNumber": "0x01",
            "currentTimestamp": "0x03e8",
            "currentRandom": "0x0000000000000000000000000000000000000000000000000000000000000000",
            "currentDifficulty": "0x00",
            "currentBaseFee": "0x07",
            "currentExcessBlobGas": "0x00"
        },
        "pre": {
            "0xef5d8525b90f834e9b84a59351846383049035d4": {
                "nonce": "0x01",
                "balance": "0x00",
                "code": "0x6001600055",
                "storage": {
                    "0x00": "0xdeadbeef"
                }
            },
            "0xdf2207ace5b8d892315d3e572bc5bfbe450a36d5": {
                "nonce": "0x00",
                "balance": "0x3635c9adc5dea00000",
                "code": "0x",
                "storage": {}
            }
        },
        "transaction": {
            "nonce": "0x00",
            "maxPriorityFeePerGas": "0x01",
            "maxFeePerGas": "0x07",
            "gasLimit": [
                "0x0186a0"
            ],
            "to": "0xef5d8525b90f834e9b84a59351846383049035d4",
            "value": [
                "0x00"
            ],
            "data": [
                "0x"
            ],
            "accessLists": [
                []
            ],
            "sender": "0xdf2207ace5b8d892315d3e572bc5bfbe450a36d5",
            "secretKey": "0x083c037d761626d18a8aadceef5d8525b90f834e9b84a59351846383049035d4"
        },
        "post": {
            "Prague": [
                {
                    "hash": "0x7dae1b4f58d399b70a9c201283c4fb94c0382c995a21bfea2ec6d66714e6bf57",
                    "logs": "0x1dcc4de8dec75d7aab85b567b6ccd41ad312451b948a7413f0a142fd40d49347",
                    "txbytes": "0x02f86301800107830186a094ef5d8525b90f834e9b84a59351846383049035d48080c080a050b0296997589bfd424b094c3c7f39a89f518699fbe6f13c4d511ee5abe97438a06c7e63ab4d87efe9548c65d9c87fb64ac316f0d0e6bc29b3e230e479d9a653f1",
                    "indexes": {
                        "data": 0,
                        "gas": 0,
                        "value": 0
                    },
                    "state": {
                        "0xef5d8525b90f834e9b84a59351846383049035d4": {
                            "nonce": "0x01",
                            "balance": "0x00",
                            "code": "0x6001600055",
                            "storage": {
                                "0x00": "0x01"
                            }
                        },
                        "0xdf2207ace5b8d892315d3e572bc5bfbe450a36d5": {
                            "nonce": "0x01",
                            "balance": "0x3635c9adc5de9d38e6",
                            "code": "0x",
                            "storage": {}
                        }
                    }
                }
            ]
        },
        "config": {
            "blobSchedule": {
                "Cancun": {
                    "target": "0x03",
                    "max": "0x06",
                    "baseFeeUpdateFraction": "0x32f0ed"
                },
                "Prague": {
                    "target": "0x06",
                    "max": "0x09",
                    "baseFeeUpdateFraction": "0x4c6964"
                }
            },
            "chainid": "0x01"
        },
        "_info": {
            "hash": "0x5b1ef9cb560ce7c3a6810cb033b07e664d3af02cd355814324f82de9a637c4ea",
            "comment": "`execution-specs` generated test",
            "filling-transition-tool": "2.18.0rc6",
            "description": "Tests that an EIP-1559 tx has no effect before London.",
            "url": "https://github.com/ethereum/execution-specs/blob/tests-v5.4.0/tests/london/eip1559_fee_market_change/test_tx_type.py#L38",
            "fixture-format": "state_test",
            "reference-spec": "https://github.com/ethereum/EIPs/blob/master/EIPS/eip-1559.md",
            "reference-spec-version": "ba6c342c23164072adb500c3136e3ae6eabff306"
        }
    },
    "tests/london/eip1559_fee_market_change/test_tx_type.py::test_eip1559_tx_validity[fork_Shanghai-valid-state_test]": {
        "env": {
            "currentCoinbase": "0x2adc25665018aa1fe0e6bc666dac8fc2697ff9ba",
            "currentGasLimit": "0x07270e00",
            "currentNumber": "0x01",
            "currentTimestamp": "0x03e8",
            "currentRandom": "0x0000000000000000000000000000000000000000000000000000000000000000",
            "currentDifficulty": "0x00",
            "currentBaseFee": "0x07"
        },
        "pre": {
            "0xef5d8525b90f834e9b84a59351846383049035d4": {
                "nonce": "0x01",
                "balance": "0x00",
                "code": "0x6001600055",
                "storage": {
                    "0x00": "0xdeadbeef"
                }
            },
            "0xdf2207ace5b8d892315d3e572bc5bfbe450a36d5": {
                "nonce": "0x00",
                "balance": "0x3635c9adc5dea00000",
                "code": "0x",
                "storage": {}
            }
        },
        "transaction": {
            "nonce": "0x00",
            "maxPriorityFeePerGas": "0x01",
            "maxFeePerGas": "0x07",
            "gasLimit": [
                "0x0186a0"
            ],
            "to": "0xef5d8525b90f834e9b84a59351846383049035d4",
            "value": [
                "0x00"
            ],
            "data": [
                "0x"
            ],
            "accessLists": [
                []
            ],
            "sender": "0xdf2207ace5b8d892315d3e572bc5bfbe450a36d5",
            "secretKey": "0x083c037d761626d18a8aadceef5d8525b90f834e9b84a59351846383049035d4"
        },
        "post": {
            "Shanghai": [
                {
                    "hash": "0x7dae1b4f58d399b70a9c201283c4fb94c0382c995a21bfea2ec6d66714e6bf57",
                    "logs": "0x1dcc4de8dec75d7aab85b567b6ccd41ad312451b948a7413f0a142fd40d49347",
                    "txbytes": "0x02f86301800107830186a094ef5d8525b90f834e9b84a59351846383049035d48080c080a050b0296997589bfd424b094c3c7f39a89f518699fbe6f13c4d511ee5abe97438a06c7e63ab4d87efe9548c65d9c87fb64ac316f0d0e6bc29b3e230e479d9a653f1",
                    "indexes": {
                        "data": 0,
                        "gas": 0,
                        "value": 0
                    },
                    "state": {
                        "0xef5d8525b90f834e9b84a59351846383049035d4": {
                            "nonce": "0x01",
                            "balance": "0x00",
                            "code": "0x6001600055",
                            "storage": {
                                "0x00": "0x01"
                            }
                        },
                        "0xdf2207ace5b8d892315d3e572bc5bfbe450a36d5": {
                            "nonce": "0x01",
                            "balance": "0x3635c9adc5de9d38e6",
                            "code": "0x",
                            "storage": {}
                        }
                    }
                }
            ]
        },
        "config": {
            "chainid": "0x01"
        },
        "_info": {
            "hash": "0x4af32556e5b5e7a06ce54e224a42a44f0191c67295304543a53121879bb4b50b",
            "comment": "`execution-specs` generated test",
            "filling-transition-tool": "2.18.0rc6",
            "description": "Tests that an EIP-1559 tx has no effect before London.",
            "url": "https://github.com/ethereum/execution-specs/blob/tests-v5.4.0/tests/london/eip1559_fee_market_change/test_tx_type.py#L38",
            "fixture-format": "state_test",
            "reference-spec": "https://github.com/ethereum/EIPs/blob/master/EIPS/eip-1559.md",
            "reference-spec-version": "ba6c342c23164072adb500c3136e3ae6eabff306"
        }
    }
}