{
    "tests/homestead/coverage/test_coverage.py::test_coverage[fork_Berlin-state_test]": {
        "env": {
            "currentCoinbase": "0x2adc25665018aa1fe0e6bc666dac8fc2697ff9ba",
            "currentGasLimit": "0x07270e00",
            "currentNumber": "0x01",
            "currentTimestamp": "0x03e8",
            "currentDifficulty": "0x020000"
        },
        "pre": {
            "0x8d3a8396df8fe44b96462f913418a70b342fb5ba": {
                "nonce": "0x01",
                "balance": "0x00",
                "code": "0x600060011b600060011c600a600b600c600d600e9080815f6101026201020363010203047f01010101010101010101010101010101010101010101010101010101010101016001600053600360020160015060046010600039",
                "storage": {}
            },
            "0x8d3a8396df8fe44b96462f913418a70b342fb6ba": {
                "nonce": "0x01",
                "balance": "0x0de0b6b3a7640000",
                "code": "0x60006000600060006000738d3a8396df8fe44b96462f913418a70b342fb5ba5af160005260206000f3",
                "storage": {}
            },
            "0x1c0f1c6be0689809c703db407b17d9daeb54466f": {
                "nonce": "0x00",
                "balance": "0x6124fee993bc0000",
                "code": "0x",
                "storage": {}
            }
        },
        "transaction": {
            "nonce": "0x00",
            "gasPrice": "0x0a",
            "gasLimit": [
                "0x0186a0"
            ],
            "to": "0x8d3a8396df8fe44b96462f913418a70b342fb6ba",
            "value": [
                "0x00"
            ],
            "data": [
                "0x"
            ],
            "sender": "0x1c0f1c6be0689809c703db407b17d9daeb54466f",
            "secretKey": "0x23acc209414f7299ec18a6d08d3a8396df8fe44b96462f913418a70b342fb5ba"
        },
        "post": {
            "Berlin": [
                {
                    "hash": "0xf0841587e5f20b8140584245edde5d5b407108bd5303c3440985263fe1e3c56e",
                    "logs": "0x1dcc4de8dec75d7aab85b567b6ccd41ad312451b948a7413f0a142fd40d49347",
                    "txbytes": "0xf860800a830186a0948d3a8396df8fe44b96462f913418a70b342fb6ba80801ba04f635adc0e86f583a5ff2058e90aca9df8fc75672d761f584ba9c47a9e758347a0227b44ff1697970bc85183d63e8e6394a13079a8cf00b3cf6aba2d7c0511504b",
                    "indexes": {
                        "data": 0,
                        "gas": 0,
                        "value": 0
                    },
                    "state": {
                        "0x8d3a8396df8fe44b96462f913418a70b342fb5ba": {
                            "nonce": "0x01",
                            "balance": "0x00",
                            "code": "0x600060011b600060011c600a600b600c600d600e9080815f6101026201020363010203047f01010101010101010101010101010101010101010101010101010101010101016001600053600360020160015060046010600039",
                            "storage": {}
                        },
                        "0x8d3a8396df8fe44b96462f913418a70b342fb6ba": {
                            "nonce": "0x01",
                            "balance": "0x0de0b6b3a7640000",
                            "code": "0x60006000600060006000738d3a8396df8fe44b96462f913418a70b342fb5ba5af160005260206000f3",
                            "storage": {}
                        },
                        "0x1c0f1c6be0689809c703db407b17d9daeb54466f": {
                            "nonce": "0x01",
                            "balance": "0x6124fee993acebc4",
                            "code": "0x",
                            "storage": {}
                        },
                        "0x2adc25665018aa1fe0e6bc666dac8fc2697ff9ba": {
                            "nonce": "0x00",
                            "balance": "0x0f143c",
                            "code": "0x",
                            "storage": {}
                        }
                    }
                }
            ]
        },
        "config": {
            "chainid": "0x01"
        },
        "_info": {
            "hash": "0xe481dbc1a3a9afdb7ce291f5d2914a9b4a6b422ce4ec525c19419736b50aed92",
            "comment": "`execution-specs` generated test",
            "filling-transition-tool": "2.18.0rc6",
            "description": "Cover gaps that result from transforming Yul code into our Python opcode\n    wrapper bytecode.\n\n    E.g. Yul tends to optimize stack items by using `SWAP1` and `DUP1` opcodes,\n    which are not regularly used in python code.\n\n    Modify this test to cover more Yul code if required in the future.",
            "url": "https://github.com/ethereum/execution-specs/blob/tests-v5.4.0/tests/homestead/coverage/test_coverage.py#L21",
            "fixture-format": "state_test"
        }
    },
    "tests/homestead/coverage/test_coverage.py::test_coverage[fork_Byzantium-state_test]": {
        "env": {
            "currentCoinbase": "0x2adc25665018aa1fe0e6bc666dac8fc2697ff9ba",
            "currentGasLimit": "0x07270e00",
            "currentNumber": "0x01",
            "currentTimestamp": "0x03e8",
            "currentDifficulty": "0x020000"
        },
        "pre": {
            "0x8d3a8396df8fe44b96462f913418a70b342fb5ba": {
                "nonce": "0x01",
                "balance": "0x00",
                "code": "0x600060011b600060011c600a600b600c600d600e9080815f6101026201020363010203047f01010101010101010101010101010101010101010101010101010101010101016001600053600360020160015060046010600039",
                "storage": {}
            },
            "0x8d3a8396df8fe44b96462f913418a70b342fb6ba": {
                "nonce": "0x01",
                "balance": "0x0de0b6b3a7640000",
                "code": "0x60006000600060006000738d3a8396df8fe44b96462f913418a70b342fb5ba5af160005260206000f3",
                "storage": {}
            },
            "0x1c0f1c6be0689809c703db407b17d9daeb54466f": {
                "nonce": "0x00",
                "balance": "0x6124fee993bc0000",
                "code": "0x",
                "storage": {}
            }
        },
        "transaction": {
            "nonce": "0x00",
            "gasPrice": "0x0a",
            "gasLimit": [
                "0x0186a0"
            ],
            "to": "0x8d3a8396df8fe44b96462f913418a70b342fb6ba",
            "value": [
                "0x00"
            ],
            "data": [
                "0x"
            ],
            "sender": "0x1c0f1c6be0689809c703db407b17d9daeb54466f",
            "secretKey": "0x23acc209414f7299ec18a6d08d3a8396df8fe44b96462f913418a70b342fb5ba"
        },
        "post": {
            "Byzantium": [
                {
                    "hash": "0xacf92515b2109d3ec39f0c8007c1b8928e3659f1ff93826e6f6019c72d1e1327",
                    "logs": "0x1dcc4de8dec75d7aab85b567b6ccd41ad312451b948a7413f0a142fd40d49347",
                    "txbytes": "0xf860800a830186a0948d3a8396df8fe44b96462f913418a70b342fb6ba80801ba04f635adc0e86f583a5ff2058e90aca9df8fc75672d761f584ba9c47a9e758347a0227b44ff1697970bc85183d63e8e6394a13079a8cf00b3cf6aba2d7c0511504b",
                    "indexes": {
                        "data": 0,
                        "gas": 0,
                        "value": 0
                    },
                    "state": {
                        "0x8d3a8396df8fe44b96462f913418a70b342fb5ba": {
                            "nonce": "0x01",
                            "balance": "0x00",
                            "code": "0x600060011b600060011c600a600b600c600d600e9080815f6101026201020363010203047f01010101010101010101010101010101010101010101010101010101010101016001600053600360020160015060046010600039",
                            "storage": {}
                        },
                        "0x8d3a8396df8fe44b96462f913418a70b342fb6ba": {
                            "nonce": "0x01",
                            "balance": "0x0de0b6b3a7640000",
                            "code": "0x60006000600060006000738d3a8396df8fe44b96462f913418a70b342fb5ba5af160005260206000f3",
                            "storage": {}
                        },
                        "0x1c0f1c6be0689809c703db407b17d9daeb54466f": {
                            "nonce": "0x01",
                            "balance": "0x6124fee993acecf0",
                            "code": "0x",
                            "storage": {}
                        },
                        "0x2adc25665018aa1fe0e6bc666dac8fc2697ff9ba": {
                            "nonce": "0x00",
                            "balance": "0x0f1310",
                            "code": "0x",
                            "storage": {}
                        }
                    }
                }
            ]
        },
        "config": {
            "chainid": "0x01"
        },
        "_info": {
            "hash": "0xfc22d88781adf2c67d5e84c8da2aa84678f334e54a262e9c10821ce2aaed7bc2",
            "comment": "`execution-specs` generated test",
            "filling-transition-tool": "2.18.0rc6",
            "description": "Cover gaps that result from transforming Yul code into our Python opcode\n    wrapper bytecode.\n\n    E.g. Yul tends to optimize stack items by using `SWAP1` and `DUP1` opcodes,\n    which are not regularly used in python code.\n\n    Modify this test to cover more Yul code if required in the future.",
            "url": "https://github.com/ethereum/execution-specs/blob/tests-v5.4.0/tests/homestead/coverage/test_coverage.py#L21",
            "fixture-format": "state_test"
        }
    },
    "tests/homestead/coverage/test_coverage.py::test_coverage[fork_Cancun-state_test]": {
        "env": {
            "currentCoinbase": "0x2adc25665018aa1fe0e6bc666dac8fc2697ff9ba",
            "currentGasLimit": "0x07270e00",
            "currentNumber": "0x01",
            "currentTimestamp": "0x03e8",
            "currentRandom": "0x0000000000000000000000000000000000000000000000000000000000000000",
            "currentDifficulty": "0x00",
            "currentBaseFee": "0x07",
            "currentExcessBlobGas": "0x00"
        },
        "pre": {
            "0x8d3a8396df8fe44b96462f913418a70b342fb5ba": {
                "nonce": "0x01",
                "balance": "0x00",
                "code": "0x600060011b600060011c600a600b600c600d600e9080815f6101026201020363010203047f01010101010101010101010101010101010101010101010101010101010101016001600053600360020160015060046010600039",
                "storage": {}
            },
            "0x8d3a8396df8fe44b96462f913418a70b342fb6ba": {
                "nonce": "0x01",
                "balance": "0x0de0b6b3a7640000",
                "code": "0x60006000600060006000738d3a8396df8fe44b96462f913418a70b342fb5ba5af160005260206000f3",
                "storage": {}
            },
            "0x1c0f1c6be0689809c703db407b17d9daeb54466f": {
                "nonce": "0x00",
                "balance": "0x6124fee993bc0000",
                "code": "0x",
                "storage": {}
            }
        },
        "transaction": {
            "nonce": "0x00",
            "maxPriorityFeePerGas": "0x05",
            "maxFeePerGas": "0x0a",
            "gasLimit": [
                "0x0186a0"
            ],
            "to": "0x8d3a8396df8fe44b96462f913418a70b342fb6ba",
            "value": [
                "0x00"
            ],
            "data": [
                "0x"
            ],
            "accessLists": [
                []
            ],
            "sender": "0x1c0f1c6be0689809c703db407b17d9daeb54466f",
            "secretKey": "0x23acc209414f7299ec18a6d08d3a8396df8fe44b96462f913418a70b342fb5ba"
        },
        "post": {
            "Cancun": [
                {
                    "hash": "0x8380031c5e70db1ac30378268c689e2797b887b189689b42587cbe56ede2a3cb",
                    "logs": "0x1dcc4de8dec75d7aab85b567b6ccd41ad312451b948a7413f0a142fd40d49347",
                    "txbytes": "0x02f8630180050a830186a0948d3a8396df8fe44b96462f913418a70b342fb6ba8080c080a0214ff4b1d8ec0bdc2e838ce6ad4338c7de47b9d976c0ae2d598e043ac7479ba4a022c7a5095e0910fba51566cd2816d7b685b4aed95395afe9839cd0eb36fdf709",
                    "indexes": {
                        "data": 0,
                        "gas": 0,
                        "value": 0
                    },
                    "state": {
                        "0x8d3a8396df8fe44b96462f913418a70b342fb5ba": {
                            "nonce": "0x01",
                            "balance": "0x00",
                            "code": "0x600060011b600060011c600a600b600c600d600e9080815f6101026201020363010203047f01010101010101010101010101010101010101010101010101010101010101016001600053600360020160015060046010600039",
                            "storage": {}
                        },
                        "0x8d3a8396df8fe44b96462f913418a70b342fb6ba": {
                            "nonce": "0x01",
                            "balance": "0x0de0b6b3a7640000",
                            "code": "0x60006000600060006000738d3a8396df8fe44b96462f913418a70b342fb5ba5af160005260206000f3",
                            "storage": {}
                        },
                        "0x1c0f1c6be0689809c703db407b17d9daeb54466f": {
                            "nonce": "0x01",
                            "balance": "0x6124fee993b860f8",
                            "code": "0x",
                            "storage": {}
                        },
                        "0x2adc25665018aa1fe0e6bc666dac8fc2697ff9ba": {
                            "nonce": "0x00",
                            "balance": "0x01161c",
                            "code": "0x",
                            "storage": {}
                        }
                    }
                }
            ]
        },
        "config": {
            "blobSchedule": {
                "Cancun": {
                    "target": "0x03",
                    "max": "0x06",
                    "baseFeeUpdateFraction": "0x32f0ed"
                }
            },
            "chainid": "0x01"
        },
        "_info": {
            "hash": "0xf9997f8336aa3986a4ce99365155b46b908bb4f7fa376fe0b146433a29e6033d",
            "comment": "`execution-specs` generated test",
            "filling-transition-tool": "2.18.0rc6",
            "description": "Cover gaps that result from transforming Yul code into our Python opcode\n    wrapper bytecode.\n\n    E.g. Yul tends to optimize stack items by using `SWAP1` and `DUP1` opcodes,\n    which are not regularly used in python code.\n\n    Modify this test to cover more Yul code if required in the future.",
            "url": "https://github.com/ethereum/execution-specs/blob/tests-v5.4.0/tests/homestead/coverage/test_coverage.py#L21",
            "fixture-format": "state_test"
        }
    },
    "tests/homestead/coverage/test_coverage.py::test_coverage[fork_ConstantinopleFix-state_test]": {
        "env": {
            "currentCoinbase": "0x2adc25665018aa1fe0e6bc666dac8fc2697ff9ba",
            "currentGasLimit": "0x07270e00",
            "currentNumber": "0x01",
            "currentTimestamp": "0x03e8",
            "currentDifficulty": "0x020000"
        },
        "pre": {
            "0x8d3a8396df8fe44b96462f913418a70b342fb5ba": {
                "nonce": "0x01",
                "balance": "0x00",
                "code": "0x600060011b600060011c600a600b600c600d600e9080815f6101026201020363010203047f01010101010101010101010101010101010101010101010101010101010101016001600053600360020160015060046010600039",
                "storage": {}
            },
            "0x8d3a8396df8fe44b96462f913418a70b342fb6ba": {
                "nonce": "0x01",
                "balance": "0x0de0b6b3a7640000",
                "code": "0x60006000600060006000738d3a8396df8fe44b96462f913418a70b342fb5ba5af160005260206000f3",
                "storage": {}
            },
            "0x1c0f1c6be0689809c703db407b17d9daeb54466f": {
                "nonce": "0x00",
                "balance": "0x6124fee993bc0000",
                "code": "0x",
                "storage": {}
            }
        },
        "transaction": {
            "nonce": "0x00",
            "gasPrice": "0x0a",
            "gasLimit": [
                "0x0186a0"
            ],
            "to": "0x8d3a8396df8fe44b96462f913418a70b342fb6ba",
            "value": [
                "0x00"
            ],
            "data": [
                "0x"
            ],
            "sender": "0x1c0f1c6be0689809c703db407b17d9daeb54466f",
            "secretKey": "0x23acc209414f7299ec18a6d08d3a8396df8fe44b96462f913418a70b342fb5ba"
        },
        "post": {
            "ConstantinopleFix": [
                {
                    "hash": "0xacf92515b2109d3ec39f0c8007c1b8928e3659f1ff93826e6f6019c72d1e1327",
                    "logs": "0x1dcc4de8dec75d7aab85b567b6ccd41ad312451b948a7413f0a142fd40d49347",
                    "txbytes": "0xf860800a830186a0948d3a8396df8fe44b96462f913418a70b342fb6ba80801ba04f635adc0e86f583a5ff2058e90aca9df8fc75672d761f584ba9c47a9e758347a0227b44ff1697970bc85183d63e8e6394a13079a8cf00b3cf6aba2d7c0511504b",
                    "indexes": {
                        "data": 0,
                        "gas": 0,
                        "value": 0
                    },
                    "state": {
                        "0x8d3a8396df8fe44b96462f913418a70b342fb5ba": {
                            "nonce": "0x01",
                            "balance": "0x00",
                            "code": "0x600060011b600060011c600a600b600c600d600e9080815f6101026201020363010203047f01010101010101010101010101010101010101010101010101010101010101016001600053600360020160015060046010600039",
                            "storage": {}
                        },
                        "0x8d3a8396df8fe44b96462f913418a70b342fb6ba": {
                            "nonce": "0x01",
                            "balance": "0x0de0b6b3a7640000",
                            "code": "0x60006000600060006000738d3a8396df8fe44b96462f913418a70b342fb5ba5af160005260206000f3",
                            "storage": {}
                        },
                        "0x1c0f1c6be0689809c703db407b17d9daeb54466f": {
                            "nonce": "0x01",
                            "balance": "0x6124fee993acecf0",
                            "code": "0x",
                            "storage": {}
                        },
                        "0x2adc25665018aa1fe0e6bc666dac8fc2697ff9ba": {
                            "nonce": "0x00",
                            "balance": "0x0f1310",
                            "code": "0x",
                            "storage": {}
                        }
                    }
                }
            ]
        },
        "config": {
            "chainid": "0x01"
        },
        "_info": {
            "hash": "0x1808ea28d59b6b1ee06acdb48270b96d2a857c6f3e2747a306f65d0ec2a6fc8d",
            "comment": "`execution-specs` generated test",
            "filling-transition-tool": "2.18.0rc6",
            "description": "Cover gaps that result from transforming Yul code into our Python opcode\n    wrapper bytecode.\n\n    E.g. Yul tends to optimize stack items by using `SWAP1` and `DUP1` opcodes,\n    which are not regularly used in python code.\n\n    Modify this test to cover more Yul code if required in the future.",
            "url": "https://github.com/ethereum/execution-specs/blob/tests-v5.4.0/tests/homestead/coverage/test_coverage.py#L21",
            "fixture-format": "state_test"
        }
    },
    "tests/homestead/coverage/test_coverage.py::test_coverage[fork_Homestead-state_test]": {
        "env": {
            "currentCoinbase": "0x2adc25665018aa1fe0e6bc666dac8fc2697ff9ba",
            "currentGasLimit": "0x07270e00",
            "currentNumber": "0x01",
            "currentTimestamp": "0x03e8",
            "currentDifficulty": "0x020000"
        },
        "pre": {
            "0x8d3a8396df8fe44b96462f913418a70b342fb5ba": {
                "nonce": "0x01",
                "balance": "0x00",
                "code": "0x600060011b600060011c600a600b600c600d600e9080815f6101026201020363010203047f01010101010101010101010101010101010101010101010101010101010101016001600053600360020160015060046010600039",
                "storage": {}
            },
            "0x8d3a8396df8fe44b96462f913418a70b342fb6ba": {
                "nonce": "0x01",
                "balance": "0x0de0b6b3a7640000",
                "code": "0x60006000600060006000738d3a8396df8fe44b96462f913418a70b342fb5ba5af160005260206000f3",
                "storage": {}
            },
            "0x1c0f1c6be0689809c703db407b17d9daeb54466f": {
                "nonce": "0x00",
                "balance": "0x6124fee993bc0000",
                "code": "0x",
                "storage": {}
            }
        },
        "transaction": {
            "nonce": "0x00",
            "gasPrice": "0x0a",
            "gasLimit": [
                "0x0186a0"
            ],
            "to": "0x8d3a8396df8fe44b96462f913418a70b342fb6ba",
            "value": [
                "0x00"
            ],
            "data": [
                "0x"
            ],
            "sender": "0x1c0f1c6be0689809c703db407b17d9daeb54466f",
            "secretKey": "0x23acc209414f7299ec18a6d08d3a8396df8fe44b96462f913418a70b342fb5ba"
        },
        "post": {
            "Homestead": [
                {
                    "hash": "0x8ae62bca6e99ed1cfa05481aa88af11fc4f6ab5ecc813b49b8164b951424db98",
                    "logs": "0x1dcc4de8dec75d7aab85b567b6ccd41ad312451b948a7413f0a142fd40d49347",
                    "txbytes": "0xf860800a830186a0948d3a8396df8fe44b96462f913418a70b342fb6ba80801ba04f635adc0e86f583a5ff2058e90aca9df8fc75672d761f584ba9c47a9e758347a0227b44ff1697970bc85183d63e8e6394a13079a8cf00b3cf6aba2d7c0511504b",
                    "indexes": {
                        "data": 0,
                        "gas": 0,
                        "value": 0
                    },
                    "state": {
                        "0x8d3a8396df8fe44b96462f913418a70b342fb5ba": {
                            "nonce": "0x01",
                            "balance": "0x00",
                            "code": "0x600060011b600060011c600a600b600c600d600e9080815f6101026201020363010203047f01010101010101010101010101010101010101010101010101010101010101016001600053600360020160015060046010600039",
                            "storage": {}
                        },
                        "0x8d3a8396df8fe44b96462f913418a70b342fb6ba": {
                            "nonce": "0x01",
                            "balance": "0x0de0b6b3a7640000",
                            "code": "0x60006000600060006000738d3a8396df8fe44b96462f913418a70b342fb5ba5af160005260206000f3",
                            "storage": {}
                        },
                        "0x1c0f1c6be0689809c703db407b17d9daeb54466f": {
                            "nonce": "0x01",
                            "balance": "0x6124fee993acbdc0",
                            "code": "0x",
                            "storage": {}
                        },
                        "0x2adc25665018aa1fe0e6bc666dac8fc2697ff9ba": {
                            "nonce": "0x00",
                            "balance": "0x0f4240",
                            "code": "0x",
                            "storage": {}
                        }
                    }
                }
            ]
        },
        "config": {
            "chainid": "0x01"
        },
        "_info": {
            "hash": "0xe6c27d2e6e41b33c5de702e2397bf9543ac75da8de9cf9a079ec32773741b938",
            "comment": "`execution-specs` generated test",
            "filling-transition-tool": "2.18.0rc6",
            "description": "Cover gaps that result from transforming Yul code into our Python opcode\n    wrapper bytecode.\n\n    E.g. Yul tends to optimize stack items by using `SWAP1` and `DUP1` opcodes,\n    which are not regularly used in python code.\n\n    Modify this test to cover more Yul code if required in the future.",
            "url": "https://github.com/ethereum/execution-specs/blob/tests-v5.4.0/tests/homestead/coverage/test_coverage.py#L21",
            "fixture-format": "state_test"
        }
    },
    "tests/homestead/coverage/test_coverage.py::test_coverage[fork_Istanbul-state_test]": {
        "env": {
            "currentCoinbase": "0x2adc25665018aa1fe0e6bc666dac8fc2697ff9ba",
            "currentGasLimit": "0x07270e00",
            "currentNumber": "0x01",
            "currentTimestamp": "0x03e8",
            "currentDifficulty": "0x020000"
        },
        "pre": {
            "0x8d3a8396df8fe44b96462f913418a70b342fb5ba": {
                "nonce": "0x01",
                "balance": "0x00",
                "code": "0x600060011b600060011c600a600b600c600d600e9080815f6101026201020363010203047f01010101010101010101010101010101010101010101010101010101010101016001600053600360020160015060046010600039",
                "storage": {}
            },
            "0x8d3a8396df8fe44b96462f913418a70b342fb6ba": {
                "nonce": "0x01",
                "balance": "0x0de0b6b3a7640000",
                "code": "0x60006000600060006000738d3a8396df8fe44b96462f913418a70b342fb5ba5af160005260206000f3",
                "storage": {}
            },
            "0x1c0f1c6be0689809c703db407b17d9daeb54466f": {
                "nonce": "0x00",
                "balance": "0x6124fee993bc0000",
                "code": "0x",
                "storage": {}
            }
        },
        "transaction": {
            "nonce": "0x00",
            "gasPrice": "0x0a",
            "gasLimit": [
                "0x0186a0"
            ],
            "to": "0x8d3a8396df8fe44b96462f913418a70b342fb6ba",
            "value": [
                "0x00"
            ],
            "data": [
                "0x"
            ],
            "sender": "0x1c0f1c6be0689809c703db407b17d9daeb54466f",
            "secretKey": "0x23acc209414f7299ec18a6d08d3a8396df8fe44b96462f913418a70b342fb5ba"
        },
        "post": {
            "Istanbul": [
                {
                    "hash": "0xacf92515b2109d3ec39f0c8007c1b8928e3659f1ff93826e6f6019c72d1e1327",
                    "logs": "0x1dcc4de8dec75d7aab85b567b6ccd41ad312451b948a7413f0a142fd40d49347",
                    "txbytes": "0xf860800a830186a0948d3a8396df8fe44b96462f913418a70b342fb6ba80801ba04f635adc0e86f583a5ff2058e90aca9df8fc75672d761f584ba9c47a9e758347a0227b44ff1697970bc85183d63e8e6394a13079a8cf00b3cf6aba2d7c0511504b",
                    "indexes": {
                        "data": 0,
                        "gas": 0,
                        "value": 0
                    },
                    "state": {
                        "0x8d3a8396df8fe44b96462f913418a70b342fb5ba": {
                            "nonce": "0x01",
                            "balance": "0x00",
                            "code": "0x600060011b600060011c600a600b600c600d600e9080815f6101026201020363010203047f01010101010101010101010101010101010101010101010101010101010101016001600053600360020160015060046010600039",
                            "storage": {}
                        },
                        "0x8d3a8396df8fe44b96462f913418a70b342fb6ba": {
                            "nonce": "0x01",
                            "balance": "0x0de0b6b3a7640000",
                            "code": "0x60006000600060006000738d3a8396df8fe44b96462f913418a70b342fb5ba5af160005260206000f3",
                            "storage": {}
                        },
                        "0x1c0f1c6be0689809c703db407b17d9daeb54466f": {
                            "nonce": "0x01",
                            "balance": "0x6124fee993acecf0",
                            "code": "0x",
                            "storage": {}
                        },
                        "0x2adc25665018aa1fe0e6bc666dac8fc2697ff9ba": {
                            "nonce": "0x00",
                            "balance": "0x0f1310",
                            "code": "0x",
                            "storage": {}
                        }
                    }
                }
            ]
        },
        "config": {
            "chainid": "0x01"
        },
        "_info": {
            "hash": "0xe73f69f529e75cc00ab25026f11f05947de3cb8994fcf0f895f38ce11a0d45be",
            "comment": "`execution-specs` generated test",
            "filling-transition-tool": "2.18.0rc6",
            "description": "Cover gaps that result from transforming Yul code into our Python opcode\n    wrapper bytecode.\n\n    E.g. Yul tends to optimize stack items by using `SWAP1` and `DUP1` opcodes,\n    which are not regularly used in python code.\n\n    Modify this test to cover more Yul code if required in the future.",
            "url": "https://github.com/ethereum/execution-specs/blob/tests-v5.4.0/tests/homestead/coverage/test_coverage.py#L21",
            "fixture-format": "state_test"
        }
    },
    "tests/homestead/coverage/test_coverage.py::test_coverage[fork_London-state_test]": {
        "env": {
            "currentCoinbase": "0x2adc25665018aa1fe0e6bc666dac8fc2697ff9ba",
            "currentGasLimit": "0x07270e00",
            "currentNumber": "0x01",
            "currentTimestamp": "0x03e8",
            "currentDifficulty": "0x020000",
            "currentBaseFee": "0x07"
        },
        "pre": {
            "0x8d3a8396df8fe44b96462f913418a70b342fb5ba": {
                "nonce": "0x01",
                "balance": "0x00",
                "code": "0x600060011b600060011c600a600b600c600d600e9080815f6101026201020363010203047f01010101010101010101010101010101010101010101010101010101010101016001600053600360020160015060046010600039",
                "storage": {}
            },
            "0x8d3a8396df8fe44b96462f913418a70b342fb6ba": {
                "nonce": "0x01",
                "balance": "0x0de0b6b3a7640000",
                "code": "0x60006000600060006000738d3a8396df8fe44b96462f913418a70b342fb5ba5af160005260206000f3",
                "storage": {}
            },
            "0x1c0f1c6be0689809c703db407b17d9daeb54466f": {
                "nonce": "0x00",
                "balance": "0x6124fee993bc0000",
                "code": "0x",
                "storage": {}
            }
        },
        "transaction": {
            "nonce": "0x00",
            "gasPrice": "0x0a",
            "gasLimit": [
                "0x0186a0"
            ],
            "to": "0x8d3a8396df8fe44b96462f913418a70b342fb6ba",
            "value": [
                "0x00"
            ],
            "data": [
                "0x"
            ],
            "sender": "0x1c0f1c6be0689809c703db407b17d9daeb54466f",
            "secretKey": "0x23acc209414f7299ec18a6d08d3a8396df8fe44b96462f913418a70b342fb5ba"
        },
        "post": {
            "London": [
                {
                    "hash": "0x3c94a8f7be79e8749898ad5477576bf479e50386d861134dcce5dfd8ba447176",
                    "logs": "0x1dcc4de8dec75d7aab85b567b6ccd41ad312451b948a7413f0a142fd40d49347",
                    "txbytes": "0xf860800a830186a0948d3a8396df8fe44b96462f913418a70b342fb6ba80801ba04f635adc0e86f583a5ff2058e90aca9df8fc75672d761f584ba9c47a9e758347a0227b44ff1697970bc85183d63e8e6394a13079a8cf00b3cf6aba2d7c0511504b",
                    "indexes": {
                        "data": 0,
                        "gas": 0,
                        "value": 0
                    },
                    "state": {
                        "0x8d3a8396df8fe44b96462f913418a70b342fb5ba": {
                            "nonce": "0x01",
                            "balance": "0x00",
                            "code": "0x600060011b600060011c600a600b600c600d600e9080815f6101026201020363010203047f01010101010101010101010101010101010101010101010101010101010101016001600053600360020160015060046010600039",
                            "storage": {}
                        },
                        "0x8d3a8396df8fe44b96462f913418a70b342fb6ba": {
                            "nonce": "0x01",
                            "balance": "0x0de0b6b3a7640000",
                            "code": "0x60006000600060006000738d3a8396df8fe44b96462f913418a70b342fb5ba5af160005260206000f3",
                            "storage": {}
                        },
                        "0x1c0f1c6be0689809c703db407b17d9daeb54466f": {
                            "nonce": "0x01",
                            "balance": "0x6124fee993acebc4",
                            "code": "0x",
                            "storage": {}
                        },
                        "0x2adc25665018aa1fe0e6bc666dac8fc2697ff9ba": {
                            "nonce": "0x00",
                            "balance": "0x048612",
                            "code": "0x",
                            "storage": {}
                        }
                    }
                }
            ]
        },
        "config": {
            "chainid": "0x01"
        },
        "_info": {
            "hash": "0x64526ed48d2b3d3bc02237484cdbbffb2ec909b66f22f239142f5d761a4f5192",
            "comment": "`execution-specs` generated test",
            "filling-transition-tool": "2.18.0rc6",
            "description": "Cover gaps that result from transforming Yul code into our Python opcode\n    wrapper bytecode.\n\n    E.g. Yul tends to optimize stack items by using `SWAP1` and `DUP1` opcodes,\n    which are not regularly used in python code.\n\n    Modify this test to cover more Yul code if required in the future.",
            "url": "https://github.com/ethereum/execution-specs/blob/tests-v5.4.0/tests/homestead/coverage/test_coverage.py#L21",
            "fixture-format": "state_test"
        }
    },
    "tests/homestead/coverage/test_coverage.py::test_coverage[fork_Paris-state_test]": {
        "env": {
            "currentCoinbase": "0x2adc25665018aa1fe0e6bc666dac8fc2697ff9ba",
            "currentGasLimit": "0x07270e00",
            "currentNumber": "0x01",
            "currentTimestamp": "0x03e8",
            "currentRandom": "0x0000000000000000000000000000000000000000000000000000000000000000",
            "currentDifficulty": "0x00",
            "currentBaseFee": "0x07"
        },
        "pre": {
            "0x8d3a8396df8fe44b96462f913418a70b342fb5ba": {
                "nonce": "0x01",
                "balance": "0x00",
                "code": "0x600060011b600060011c600a600b600c600d600e9080815f6101026201020363010203047f01010101010101010101010101010101010101010101010101010101010101016001600053600360020160015060046010600039",
                "storage": {}
            },
            "0x8d3a8396df8fe44b96462f913418a70b342fb6ba": {
                "nonce": "0x01",
                "balance": "0x0de0b6b3a7640000",
                "code": "0x60006000600060006000738d3a8396df8fe44b96462f913418a70b342fb5ba5af160005260206000f3",
                "storage": {}
            },
            "0x1c0f1c6be0689809c703db407b17d9daeb54466f": {
                "nonce": "0x00",
                "balance": "0x6124fee993bc0000",
                "code": "0x",
                "storage": {}
            }
        },
        "transaction": {
            "nonce": "0x00",
            "gasPrice": "0x0a",
            "gasLimit": [
                "0x0186a0"
            ],
            "to": "0x8d3a8396df8fe44b96462f913418a70b342fb6ba",
            "value": [
                "0x00"
            ],
            "data": [
                "0x"
            ],
            "sender": "0x1c0f1c6be0689809c703db407b17d9daeb54466f",
            "secretKey": "0x23acc209414f7299ec18a6d08d3a8396df8fe44b96462f913418a70b342fb5ba"
        },
        "post": {
            "Paris": [
                {
                    "hash": "0x3c94a8f7be79e8749898ad5477576bf479e50386d861134dcce5dfd8ba447176",
                    "logs": "0x1dcc4de8dec75d7aab85b567b6ccd41ad312451b948a7413f0a142fd40d49347",
                    "txbytes": "0xf860800a830186a0948d3a8396df8fe44b96462f913418a70b342fb6ba80801ba04f635adc0e86f583a5ff2058e90aca9df8fc75672d761f584ba9c47a9e758347a0227b44ff1697970bc85183d63e8e6394a13079a8cf00b3cf6aba2d7c0511504b",
                    "indexes": {
                        "data": 0,
                        "gas": 0,
                        "value": 0
                    },
                    "state": {
                        "0x8d3a8396df8fe44b96462f913418a70b342fb5ba": {
                            "nonce": "0x01",
                            "balance": "0x00",
                            "code": "0x600060011b600060011c600a600b600c600d600e9080815f6101026201020363010203047f01010101010101010101010101010101010101010101010101010101010101016001600053600360020160015060046010600039",
                            "storage": {}
                        },
                        "0x8d3a8396df8fe44b96462f913418a70b342fb6ba": {
                            "nonce": "0x01",
                            "balance": "0x0de0b6b3a7640000",
                            "code": "0x60006000600060006000738d3a8396df8fe44b96462f913418a70b342fb5ba5af160005260206000f3",
                            "storage": {}
                        },
                        "0x1c0f1c6be0689809c703db407b17d9daeb54466f": {
                            "nonce": "0x01",
                            "balance": "0x6124fee993acebc4",
                            "code": "0x",
                            "storage": {}
                        },
                        "0x2adc25665018aa1fe0e6bc666dac8fc2697ff9ba": {
                            "nonce": "0x00",
                            "balance": "0x048612",
                            "code": "0x",
                            "storage": {}
                        }
                    }
                }
            ]
        },
        "config": {
            "chainid": "0x01"
        },
        "_info": {
            "hash": "0xb1c2e4b43c83b6bb1dc30f0bc2b38e68289a01357521c408af46012bd3e05a7f",
            "comment": "`execution-specs` generated test",
            "filling-transition-tool": "2.18.0rc6",
            "description": "Cover gaps that result from transforming Yul code into our Python opcode\n    wrapper bytecode.\n\n    E.g. Yul tends to optimize stack items by using `SWAP1` and `DUP1` opcodes,\n    which are not regularly used in python code.\n\n    Modify this test to cover more Yul code if required in the future.",
            "url": "https://github.com/ethereum/execution-specs/blob/tests-v5.4.0/tests/homestead/coverage/test_coverage.py#L21",
            "fixture-format": "state_test"
        }
    },
    "tests/homestead/coverage/test_coverage.py::test_coverage[fork_Prague-state_test]": {
        "env": {
            "currentCoinbase": "0x2adc25665018aa1fe0e6bc666dac8fc2697ff9ba",
            "currentGasLimit": "0x07270e00",
            "currentNumber": "0x01",
            "currentTimestamp": "0x03e8",
            "currentRandom": "0x0000000000000000000000000000000000000000000000000000000000000000",
            "currentDifficulty": "0x00",
            "currentBaseFee": "0x07",
            "currentExcessBlobGas": "0x00"
        },
        "pre": {
            "0x8d3a8396df8fe44b96462f913418a70b342fb5ba": {
                "nonce": "0x01",
                "balance": "0x00",
                "code": "0x600060011b600060011c600a600b600c600d600e9080815f6101026201020363010203047f01010101010101010101010101010101010101010101010101010101010101016001600053600360020160015060046010600039",
                "storage": {}
            },
            "0x8d3a8396df8fe44b96462f913418a70b342fb6ba": {
                "nonce": "0x01",
                "balance": "0x0de0b6b3a7640000",
                "code": "0x60006000600060006000738d3a8396df8fe44b96462f913418a70b342fb5ba5af160005260206000f3",
                "storage": {}
            },
            "0x1c0f1c6be0689809c703db407b17d9daeb54466f": {
                "nonce": "0x00",
                "balance": "0x6124fee993bc0000",
                "code": "0x",
                "storage": {}
            }
        },
        "transaction": {
            "nonce": "0x00",
            "maxPriorityFeePerGas": "0x05",
            "maxFeePerGas": "0x0a",
            "gasLimit": [
                "0x0186a0"
            ],
            "to": "0x8d3a8396df8fe44b96462f913418a70b342fb6ba",
            "value": [
                "0x00"
            ],
            "data": [
                "0x"
            ],
            "accessLists": [
                []
            ],
            "sender": "0x1c0f1c6be0689809c703db407b17d9daeb54466f",
            "secretKey": "0x23acc209414f7299ec18a6d08d3a8396df8fe44b96462f913418a70b342fb5ba"
        },
        "post": {
            "Prague": [
                {
                    "hash": "0x8380031c5e70db1ac30378268c689e2797b887b189689b42587cbe56ede2a3cb",
                    "logs": "0x1dcc4de8dec75d7aab85b567b6ccd41ad312451b948a7413f0a142fd40d49347",
                    "txbytes": "0x02f8630180050a830186a0948d3a8396df8fe44b96462f913418a70b342fb6ba8080c080a0214ff4b1d8ec0bdc2e838ce6ad4338c7de47b9d976c0ae2d598e043ac7479ba4a022c7a5095e0910fba51566cd2816d7b685b4aed95395afe9839cd0eb36fdf709",
                    "indexes": {
                        "data": 0,
                        "gas": 0,
                        "value": 0
                    },
                    "state": {
                        "0x8d3a8396df8fe44b96462f913418a70b342fb5ba": {
                            "nonce": "0x01",
                            "balance": "0x00",
                            "code": "0x600060011b600060011c600a600b600c600d600e9080815f6101026201020363010203047f01010101010101010101010101010101010101010101010101010101010101016001600053600360020160015060046010600039",
                            "storage": {}
                        },
                        "0x8d3a8396df8fe44b96462f913418a70b342fb6ba": {
                            "nonce": "0x01",
                            "balance": "0x0de0b6b3a7640000",
                            "code": "0x60006000600060006000738d3a8396df8fe44b96462f913418a70b342fb5ba5af160005260206000f3",
                            "storage": {}
                        },
                        "0x1c0f1c6be0689809c703db407b17d9daeb54466f": {
                            "nonce": "0x01",
                            "balance": "0x6124fee993b860f8",
                            "code": "0x",
                            "storage": {}
                        },
                        "0x2adc25665018aa1fe0e6bc666dac8fc2697ff9ba": {
                            "nonce": "0x00",
                            "balance": "0x01161c",
                            "code": "0x",
                            "storage": {}
                        }
                    }
                }
            ]
        },
        "config": {
            "blobSchedule": {
                "Cancun": {
                    "target": "0x03",
                    "max": "0x06",
                    "baseFeeUpdateFraction": "0x32f0ed"
                },
                "Prague": {
                    "target": "0x06",
                    "max": "0x09",
                    "baseFeeUpdateFraction": "0x4c6964"
                }
            },
            "chainid": "0x01"
        },
        "_info": {
            "hash": "0x2c600217aa8653034f8865c5a98d079da3bcf13883f2adde1b02d76e1f5500ca",
            "comment": "`execution-specs` generated test",
            "filling-transition-tool": "2.18.0rc6",
            "description": "Cover gaps that result from transforming Yul code into our Python opcode\n    wrapper bytecode.\n\n    E.g. Yul tends to optimize stack items by using `SWAP1` and `DUP1` opcodes,\n    which are not regularly used in python code.\n\n    Modify this test to cover more Yul code if required in the future.",
            "url": "https://github.com/ethereum/execution-specs/blob/tests-v5.4.0/tests/homestead/coverage/test_coverage.py#L21",
            "fixture-format": "state_test"
        }
    },
    "tests/homestead/coverage/test_coverage.py::test_coverage[fork_Shanghai-state_test]": {
        "env": {
            "currentCoinbase": "0x2adc25665018aa1fe0e6bc666dac8fc2697ff9ba",
            "currentGasLimit": "0x07270e00",
            "currentNumber": "0x01",
            "currentTimestamp": "0x03e8",
            "currentRandom": "0x0000000000000000000000000000000000000000000000000000000000000000",
            "currentDifficulty": "0x00",
            "currentBaseFee": "0x07"
        },
        "pre": {
            "0x8d3a8396df8fe44b96462f913418a70b342fb5ba": {
                "nonce": "0x01",
                "balance": "0x00",
                "code": "0x600060011b600060011c600a600b600c600d600e9080815f6101026201020363010203047f01010101010101010101010101010101010101010101010101010101010101016001600053600360020160015060046010600039",
                "storage": {}
            },
            "0x8d3a8396df8fe44b96462f913418a70b342fb6ba": {
                "nonce": "0x01",
                "balance": "0x0de0b6b3a7640000",
                "code": "0x60006000600060006000738d3a8396df8fe44b96462f913418a70b342fb5ba5af160005260206000f3",
                "storage": {}
            },
            "0x1c0f1c6be0689809c703db407b17d9daeb54466f": {
                "nonce": "0x00",
                "balance": "0x6124fee993bc0000",
                "code": "0x",
                "storage": {}
            }
        },
        "transaction": {
            "nonce": "0x00",
            "gasPrice": "0x0a",
            "gasLimit": [
                "0x0186a0"
            ],
            "to": "0x8d3a8396df8fe44b96462f913418a70b342fb6ba",
            "value": [
                "0x00"
            ],
            "data": [
                "0x"
            ],
            "sender": "0x1c0f1c6be0689809c703db407b17d9daeb54466f",
            "secretKey": "0x23acc209414f7299ec18a6d08d3a8396df8fe44b96462f913418a70b342fb5ba"
        },
        "post": {
            "Shanghai": [
                {
                    "hash": "0x8380031c5e70db1ac30378268c689e2797b887b189689b42587cbe56ede2a3cb",
                    "logs": "0x1dcc4de8dec75d7aab85b567b6ccd41ad312451b948a7413f0a142fd40d49347",
                    "txbytes": "0xf860800a830186a0948d3a8396df8fe44b96462f913418a70b342fb6ba80801ba04f635adc0e86f583a5ff2058e90aca9df8fc75672d761f584ba9c47a9e758347a0227b44ff1697970bc85183d63e8e6394a13079a8cf00b3cf6aba2d7c0511504b",
                    "indexes": {
                        "data": 0,
                        "gas": 0,
                        "value": 0
                    },
                    "state": {
                        "0x8d3a8396df8fe44b96462f913418a70b342fb5ba": {
                            "nonce": "0x01",
                            "balance": "0x00",
                            "code": "0x600060011b600060011c600a600b600c600d600e9080815f6101026201020363010203047f01010101010101010101010101010101010101010101010101010101010101016001600053600360020160015060046010600039",
                            "storage": {}
                        },
                        "0x8d3a8396df8fe44b96462f913418a70b342fb6ba": {
                            "nonce": "0x01",
                            "balance": "0x0de0b6b3a7640000",
                            "code": "0x60006000600060006000738d3a8396df8fe44b96462f913418a70b342fb5ba5af160005260206000f3",
                            "storage": {}
                        },
                        "0x1c0f1c6be0689809c703db407b17d9daeb54466f": {
                            "nonce": "0x01",
                            "balance": "0x6124fee993b860f8",
                            "code": "0x",
                            "storage": {}
                        },
                        "0x2adc25665018aa1fe0e6bc666dac8fc2697ff9ba": {
                            "nonce": "0x00",
                            "balance": "0x01161c",
                            "code": "0x",
                            "storage": {}
                        }
                    }
                }
            ]
        },
        "config": {
            "chainid": "0x01"
        },
        "_info": {
            "hash": "0xe0612565a524e3a1561bf97ab584992b5ab820d69d55285ccff421627a98ec93",
            "comment": "`execution-specs` generated test",
            "filling-transition-tool": "2.18.0rc6",
            "description": "Cover gaps that result from transforming Yul code into our Python opcode\n    wrapper bytecode.\n\n    E.g. Yul tends to optimize stack items by using `SWAP1` and `DUP1` opcodes,\n    which are not regularly used in python code.\n\n    Modify this test to cover more Yul code if required in the future.",
            "url": "https://github.com/ethereum/execution-specs/blob/tests-v5.4.0/tests/homestead/coverage/test_coverage.py#L21",
            "fixture-format": "state_test"
        }
    }
}